{
	"Wallet/Wallet.sol": {
		"Wallet": {
			"abi": [
				{
					"inputs": [],
					"stateMutability": "nonpayable",
					"type": "constructor"
				},
				{
					"inputs": [
						{
							"internalType": "address",
							"name": "",
							"type": "address"
						}
					],
					"name": "allowance",
					"outputs": [
						{
							"internalType": "uint256",
							"name": "",
							"type": "uint256"
						}
					],
					"stateMutability": "view",
					"type": "function"
				},
				{
					"inputs": [
						{
							"internalType": "address",
							"name": "",
							"type": "address"
						}
					],
					"name": "isAllowedToSend",
					"outputs": [
						{
							"internalType": "bool",
							"name": "",
							"type": "bool"
						}
					],
					"stateMutability": "view",
					"type": "function"
				},
				{
					"inputs": [
						{
							"internalType": "address",
							"name": "_for",
							"type": "address"
						},
						{
							"internalType": "uint256",
							"name": "_ammount",
							"type": "uint256"
						}
					],
					"name": "setAllowance",
					"outputs": [],
					"stateMutability": "nonpayable",
					"type": "function"
				},
				{
					"inputs": [
						{
							"internalType": "address payable",
							"name": "_to",
							"type": "address"
						},
						{
							"internalType": "uint256",
							"name": "_ammount",
							"type": "uint256"
						},
						{
							"internalType": "bytes",
							"name": "_payload",
							"type": "bytes"
						}
					],
					"name": "transfer",
					"outputs": [
						{
							"internalType": "bytes",
							"name": "",
							"type": "bytes"
						}
					],
					"stateMutability": "nonpayable",
					"type": "function"
				},
				{
					"stateMutability": "payable",
					"type": "receive"
				}
			],
			"devdoc": {
				"kind": "dev",
				"methods": {},
				"version": 1
			},
			"evm": {
				"assembly": "    /* \"Wallet/Wallet.sol\":61:1042  contract Wallet {... */\n  mstore(0x40, 0x80)\n    /* \"Wallet/Wallet.sol\":221:282  constructor() {... */\n  callvalue\n  dup1\n  iszero\n  tag_1\n  jumpi\n  revert(0x00, 0x00)\ntag_1:\n  pop\n    /* \"Wallet/Wallet.sol\":263:273  msg.sender */\n  caller\n    /* \"Wallet/Wallet.sol\":246:251  owner */\n  0x00\n  0x00\n    /* \"Wallet/Wallet.sol\":246:274  owner = payable (msg.sender) */\n  0x0100\n  exp\n  dup2\n  sload\n  dup2\n  0xffffffffffffffffffffffffffffffffffffffff\n  mul\n  not\n  and\n  swap1\n  dup4\n  0xffffffffffffffffffffffffffffffffffffffff\n  and\n  mul\n  or\n  swap1\n  sstore\n  pop\n    /* \"Wallet/Wallet.sol\":61:1042  contract Wallet {... */\n  dataSize(sub_0)\n  dup1\n  dataOffset(sub_0)\n  0x00\n  codecopy\n  0x00\n  return\nstop\n\nsub_0: assembly {\n        /* \"Wallet/Wallet.sol\":61:1042  contract Wallet {... */\n      mstore(0x40, 0x80)\n      jumpi(tag_1, lt(calldatasize, 0x04))\n      shr(0xe0, calldataload(0x00))\n      dup1\n      0x0bc605ad\n      eq\n      tag_3\n      jumpi\n      dup1\n      0x310ec4a7\n      eq\n      tag_4\n      jumpi\n      dup1\n      0x3e5beab9\n      eq\n      tag_5\n      jumpi\n      dup1\n      0xbe45fd62\n      eq\n      tag_6\n      jumpi\n      jump(tag_2)\n    tag_1:\n      jumpi(tag_2, calldatasize)\n      stop\n    tag_2:\n      revert(0x00, 0x00)\n        /* \"Wallet/Wallet.sol\":166:214  mapping (address => bool) public isAllowedToSend */\n    tag_3:\n      callvalue\n      dup1\n      iszero\n      tag_9\n      jumpi\n      revert(0x00, 0x00)\n    tag_9:\n      pop\n      tag_10\n      0x04\n      dup1\n      calldatasize\n      sub\n      dup2\n      add\n      swap1\n      tag_11\n      swap2\n      swap1\n      tag_12\n      jump\t// in\n    tag_11:\n      tag_13\n      jump\t// in\n    tag_10:\n      mload(0x40)\n      tag_14\n      swap2\n      swap1\n      tag_15\n      jump\t// in\n    tag_14:\n      mload(0x40)\n      dup1\n      swap2\n      sub\n      swap1\n      return\n        /* \"Wallet/Wallet.sol\":290:369  function setAllowance(address _for, uint256 _ammount) public {... */\n    tag_4:\n      callvalue\n      dup1\n      iszero\n      tag_16\n      jumpi\n      revert(0x00, 0x00)\n    tag_16:\n      pop\n      tag_17\n      0x04\n      dup1\n      calldatasize\n      sub\n      dup2\n      add\n      swap1\n      tag_18\n      swap2\n      swap1\n      tag_19\n      jump\t// in\n    tag_18:\n      tag_20\n      jump\t// in\n    tag_17:\n      stop\n        /* \"Wallet/Wallet.sol\":114:159  mapping (address => uint256) public allowance */\n    tag_5:\n      callvalue\n      dup1\n      iszero\n      tag_21\n      jumpi\n      revert(0x00, 0x00)\n    tag_21:\n      pop\n      tag_22\n      0x04\n      dup1\n      calldatasize\n      sub\n      dup2\n      add\n      swap1\n      tag_23\n      swap2\n      swap1\n      tag_12\n      jump\t// in\n    tag_23:\n      tag_24\n      jump\t// in\n    tag_22:\n      mload(0x40)\n      tag_25\n      swap2\n      swap1\n      tag_26\n      jump\t// in\n    tag_25:\n      mload(0x40)\n      dup1\n      swap2\n      sub\n      swap1\n      return\n        /* \"Wallet/Wallet.sol\":377:1002  function transfer(address payable _to, uint256 _ammount, bytes memory _payload) public returns (bytes memory) {... */\n    tag_6:\n      callvalue\n      dup1\n      iszero\n      tag_27\n      jumpi\n      revert(0x00, 0x00)\n    tag_27:\n      pop\n      tag_28\n      0x04\n      dup1\n      calldatasize\n      sub\n      dup2\n      add\n      swap1\n      tag_29\n      swap2\n      swap1\n      tag_30\n      jump\t// in\n    tag_29:\n      tag_31\n      jump\t// in\n    tag_28:\n      mload(0x40)\n      tag_32\n      swap2\n      swap1\n      tag_33\n      jump\t// in\n    tag_32:\n      mload(0x40)\n      dup1\n      swap2\n      sub\n      swap1\n      return\n        /* \"Wallet/Wallet.sol\":166:214  mapping (address => bool) public isAllowedToSend */\n    tag_13:\n      mstore(0x20, 0x02)\n      dup1\n      0x00\n      mstore\n      keccak256(0x00, 0x40)\n      0x00\n      swap2\n      pop\n      sload\n      swap1\n      0x0100\n      exp\n      swap1\n      div\n      0xff\n      and\n      dup2\n      jump\t// out\n        /* \"Wallet/Wallet.sol\":290:369  function setAllowance(address _for, uint256 _ammount) public {... */\n    tag_20:\n      pop\n      pop\n      jump\t// out\n        /* \"Wallet/Wallet.sol\":114:159  mapping (address => uint256) public allowance */\n    tag_24:\n      mstore(0x20, 0x01)\n      dup1\n      0x00\n      mstore\n      keccak256(0x00, 0x40)\n      0x00\n      swap2\n      pop\n      swap1\n      pop\n      sload\n      dup2\n      jump\t// out\n        /* \"Wallet/Wallet.sol\":377:1002  function transfer(address payable _to, uint256 _ammount, bytes memory _payload) public returns (bytes memory) {... */\n    tag_31:\n        /* \"Wallet/Wallet.sol\":473:485  bytes memory */\n      0x60\n        /* \"Wallet/Wallet.sol\":582:587  owner */\n      0x00\n      0x00\n      swap1\n      sload\n      swap1\n      0x0100\n      exp\n      swap1\n      div\n      0xffffffffffffffffffffffffffffffffffffffff\n      and\n        /* \"Wallet/Wallet.sol\":568:587  msg.sender != owner */\n      0xffffffffffffffffffffffffffffffffffffffff\n      and\n        /* \"Wallet/Wallet.sol\":568:578  msg.sender */\n      caller\n        /* \"Wallet/Wallet.sol\":568:587  msg.sender != owner */\n      0xffffffffffffffffffffffffffffffffffffffff\n      and\n      eq\n        /* \"Wallet/Wallet.sol\":565:823  if(msg.sender != owner) {... */\n      tag_36\n      jumpi\n        /* \"Wallet/Wallet.sol\":612:627  isAllowedToSend */\n      0x02\n        /* \"Wallet/Wallet.sol\":612:639  isAllowedToSend[msg.sender] */\n      0x00\n        /* \"Wallet/Wallet.sol\":628:638  msg.sender */\n      caller\n        /* \"Wallet/Wallet.sol\":612:639  isAllowedToSend[msg.sender] */\n      0xffffffffffffffffffffffffffffffffffffffff\n      and\n      0xffffffffffffffffffffffffffffffffffffffff\n      and\n      dup2\n      mstore\n      0x20\n      add\n      swap1\n      dup2\n      mstore\n      0x20\n      add\n      0x00\n      keccak256\n      0x00\n      swap1\n      sload\n      swap1\n      0x0100\n      exp\n      swap1\n      div\n      0xff\n      and\n        /* \"Wallet/Wallet.sol\":604:671  require(isAllowedToSend[msg.sender], \"You are not allowed to send\") */\n      tag_37\n      jumpi\n      mload(0x40)\n      0x08c379a000000000000000000000000000000000000000000000000000000000\n      dup2\n      mstore\n      0x04\n      add\n      tag_38\n      swap1\n      tag_39\n      jump\t// in\n    tag_38:\n      mload(0x40)\n      dup1\n      swap2\n      sub\n      swap1\n      revert\n    tag_37:\n        /* \"Wallet/Wallet.sol\":719:727  _ammount */\n      dup3\n        /* \"Wallet/Wallet.sol\":694:703  allowance */\n      0x01\n        /* \"Wallet/Wallet.sol\":694:715  allowance[msg.sender] */\n      0x00\n        /* \"Wallet/Wallet.sol\":704:714  msg.sender */\n      caller\n        /* \"Wallet/Wallet.sol\":694:715  allowance[msg.sender] */\n      0xffffffffffffffffffffffffffffffffffffffff\n      and\n      0xffffffffffffffffffffffffffffffffffffffff\n      and\n      dup2\n      mstore\n      0x20\n      add\n      swap1\n      dup2\n      mstore\n      0x20\n      add\n      0x00\n      keccak256\n      sload\n        /* \"Wallet/Wallet.sol\":694:727  allowance[msg.sender] >= _ammount */\n      lt\n      iszero\n        /* \"Wallet/Wallet.sol\":686:761  require(allowance[msg.sender] >= _ammount, \"You have not enough allowance\") */\n      tag_40\n      jumpi\n      mload(0x40)\n      0x08c379a000000000000000000000000000000000000000000000000000000000\n      dup2\n      mstore\n      0x04\n      add\n      tag_41\n      swap1\n      tag_42\n      jump\t// in\n    tag_41:\n      mload(0x40)\n      dup1\n      swap2\n      sub\n      swap1\n      revert\n    tag_40:\n        /* \"Wallet/Wallet.sol\":803:811  _ammount */\n      dup3\n        /* \"Wallet/Wallet.sol\":778:787  allowance */\n      0x01\n        /* \"Wallet/Wallet.sol\":778:799  allowance[msg.sender] */\n      0x00\n        /* \"Wallet/Wallet.sol\":788:798  msg.sender */\n      caller\n        /* \"Wallet/Wallet.sol\":778:799  allowance[msg.sender] */\n      0xffffffffffffffffffffffffffffffffffffffff\n      and\n      0xffffffffffffffffffffffffffffffffffffffff\n      and\n      dup2\n      mstore\n      0x20\n      add\n      swap1\n      dup2\n      mstore\n      0x20\n      add\n      0x00\n      keccak256\n      0x00\n        /* \"Wallet/Wallet.sol\":778:811  allowance[msg.sender] -= _ammount */\n      dup3\n      dup3\n      sload\n      tag_43\n      swap2\n      swap1\n      tag_44\n      jump\t// in\n    tag_43:\n      swap3\n      pop\n      pop\n      dup2\n      swap1\n      sstore\n      pop\n        /* \"Wallet/Wallet.sol\":565:823  if(msg.sender != owner) {... */\n    tag_36:\n        /* \"Wallet/Wallet.sol\":836:848  bool success */\n      0x00\n        /* \"Wallet/Wallet.sol\":850:873  bytes memory returnData */\n      0x00\n        /* \"Wallet/Wallet.sol\":877:880  _to */\n      dup6\n        /* \"Wallet/Wallet.sol\":877:885  _to.call */\n      0xffffffffffffffffffffffffffffffffffffffff\n      and\n        /* \"Wallet/Wallet.sol\":893:901  _ammount */\n      dup6\n        /* \"Wallet/Wallet.sol\":903:911  _payload */\n      dup6\n        /* \"Wallet/Wallet.sol\":877:912  _to.call{value: _ammount}(_payload) */\n      mload(0x40)\n      tag_45\n      swap2\n      swap1\n      tag_46\n      jump\t// in\n    tag_45:\n      0x00\n      mload(0x40)\n      dup1\n      dup4\n      sub\n      dup2\n      dup6\n      dup8\n      gas\n      call\n      swap3\n      pop\n      pop\n      pop\n      returndatasize\n      dup1\n      0x00\n      dup2\n      eq\n      tag_49\n      jumpi\n      mload(0x40)\n      swap2\n      pop\n      and(add(returndatasize, 0x3f), not(0x1f))\n      dup3\n      add\n      0x40\n      mstore\n      returndatasize\n      dup3\n      mstore\n      returndatasize\n      0x00\n      0x20\n      dup5\n      add\n      returndatacopy\n      jump(tag_48)\n    tag_49:\n      0x60\n      swap2\n      pop\n    tag_48:\n      pop\n        /* \"Wallet/Wallet.sol\":835:912  (bool success, bytes memory returnData) = _to.call{value: _ammount}(_payload) */\n      swap2\n      pop\n      swap2\n      pop\n        /* \"Wallet/Wallet.sol\":931:938  success */\n      dup2\n        /* \"Wallet/Wallet.sol\":923:966  require(success, \"Call was not sucessfull\") */\n      tag_50\n      jumpi\n      mload(0x40)\n      0x08c379a000000000000000000000000000000000000000000000000000000000\n      dup2\n      mstore\n      0x04\n      add\n      tag_51\n      swap1\n      tag_52\n      jump\t// in\n    tag_51:\n      mload(0x40)\n      dup1\n      swap2\n      sub\n      swap1\n      revert\n    tag_50:\n        /* \"Wallet/Wallet.sol\":984:994  returnData */\n      dup1\n        /* \"Wallet/Wallet.sol\":977:994  return returnData */\n      swap3\n      pop\n      pop\n      pop\n        /* \"Wallet/Wallet.sol\":377:1002  function transfer(address payable _to, uint256 _ammount, bytes memory _payload) public returns (bytes memory) {... */\n      swap4\n      swap3\n      pop\n      pop\n      pop\n      jump\t// out\n        /* \"#utility.yul\":7:82   */\n    tag_53:\n        /* \"#utility.yul\":40:46   */\n      0x00\n        /* \"#utility.yul\":73:75   */\n      0x40\n        /* \"#utility.yul\":67:76   */\n      mload\n        /* \"#utility.yul\":57:76   */\n      swap1\n      pop\n        /* \"#utility.yul\":7:82   */\n      swap1\n      jump\t// out\n        /* \"#utility.yul\":88:205   */\n    tag_54:\n        /* \"#utility.yul\":197:198   */\n      0x00\n        /* \"#utility.yul\":194:195   */\n      0x00\n        /* \"#utility.yul\":187:199   */\n      revert\n        /* \"#utility.yul\":211:328   */\n    tag_55:\n        /* \"#utility.yul\":320:321   */\n      0x00\n        /* \"#utility.yul\":317:318   */\n      0x00\n        /* \"#utility.yul\":310:322   */\n      revert\n        /* \"#utility.yul\":334:460   */\n    tag_56:\n        /* \"#utility.yul\":371:378   */\n      0x00\n        /* \"#utility.yul\":411:453   */\n      0xffffffffffffffffffffffffffffffffffffffff\n        /* \"#utility.yul\":404:409   */\n      dup3\n        /* \"#utility.yul\":400:454   */\n      and\n        /* \"#utility.yul\":389:454   */\n      swap1\n      pop\n        /* \"#utility.yul\":334:460   */\n      swap2\n      swap1\n      pop\n      jump\t// out\n        /* \"#utility.yul\":466:562   */\n    tag_57:\n        /* \"#utility.yul\":503:510   */\n      0x00\n        /* \"#utility.yul\":532:556   */\n      tag_99\n        /* \"#utility.yul\":550:555   */\n      dup3\n        /* \"#utility.yul\":532:556   */\n      tag_56\n      jump\t// in\n    tag_99:\n        /* \"#utility.yul\":521:556   */\n      swap1\n      pop\n        /* \"#utility.yul\":466:562   */\n      swap2\n      swap1\n      pop\n      jump\t// out\n        /* \"#utility.yul\":568:690   */\n    tag_58:\n        /* \"#utility.yul\":641:665   */\n      tag_101\n        /* \"#utility.yul\":659:664   */\n      dup2\n        /* \"#utility.yul\":641:665   */\n      tag_57\n      jump\t// in\n    tag_101:\n        /* \"#utility.yul\":634:639   */\n      dup2\n        /* \"#utility.yul\":631:666   */\n      eq\n        /* \"#utility.yul\":621:684   */\n      tag_102\n      jumpi\n        /* \"#utility.yul\":680:681   */\n      0x00\n        /* \"#utility.yul\":677:678   */\n      0x00\n        /* \"#utility.yul\":670:682   */\n      revert\n        /* \"#utility.yul\":621:684   */\n    tag_102:\n        /* \"#utility.yul\":568:690   */\n      pop\n      jump\t// out\n        /* \"#utility.yul\":696:835   */\n    tag_59:\n        /* \"#utility.yul\":742:747   */\n      0x00\n        /* \"#utility.yul\":780:786   */\n      dup2\n        /* \"#utility.yul\":767:787   */\n      calldataload\n        /* \"#utility.yul\":758:787   */\n      swap1\n      pop\n        /* \"#utility.yul\":796:829   */\n      tag_104\n        /* \"#utility.yul\":823:828   */\n      dup2\n        /* \"#utility.yul\":796:829   */\n      tag_58\n      jump\t// in\n    tag_104:\n        /* \"#utility.yul\":696:835   */\n      swap3\n      swap2\n      pop\n      pop\n      jump\t// out\n        /* \"#utility.yul\":841:1170   */\n    tag_12:\n        /* \"#utility.yul\":900:906   */\n      0x00\n        /* \"#utility.yul\":949:951   */\n      0x20\n        /* \"#utility.yul\":937:946   */\n      dup3\n        /* \"#utility.yul\":928:935   */\n      dup5\n        /* \"#utility.yul\":924:947   */\n      sub\n        /* \"#utility.yul\":920:952   */\n      slt\n        /* \"#utility.yul\":917:1036   */\n      iszero\n      tag_106\n      jumpi\n        /* \"#utility.yul\":955:1034   */\n      tag_107\n      tag_54\n      jump\t// in\n    tag_107:\n        /* \"#utility.yul\":917:1036   */\n    tag_106:\n        /* \"#utility.yul\":1075:1076   */\n      0x00\n        /* \"#utility.yul\":1100:1153   */\n      tag_108\n        /* \"#utility.yul\":1145:1152   */\n      dup5\n        /* \"#utility.yul\":1136:1142   */\n      dup3\n        /* \"#utility.yul\":1125:1134   */\n      dup6\n        /* \"#utility.yul\":1121:1143   */\n      add\n        /* \"#utility.yul\":1100:1153   */\n      tag_59\n      jump\t// in\n    tag_108:\n        /* \"#utility.yul\":1090:1153   */\n      swap2\n      pop\n        /* \"#utility.yul\":1046:1163   */\n      pop\n        /* \"#utility.yul\":841:1170   */\n      swap3\n      swap2\n      pop\n      pop\n      jump\t// out\n        /* \"#utility.yul\":1176:1266   */\n    tag_60:\n        /* \"#utility.yul\":1210:1217   */\n      0x00\n        /* \"#utility.yul\":1253:1258   */\n      dup2\n        /* \"#utility.yul\":1246:1259   */\n      iszero\n        /* \"#utility.yul\":1239:1260   */\n      iszero\n        /* \"#utility.yul\":1228:1260   */\n      swap1\n      pop\n        /* \"#utility.yul\":1176:1266   */\n      swap2\n      swap1\n      pop\n      jump\t// out\n        /* \"#utility.yul\":1272:1381   */\n    tag_61:\n        /* \"#utility.yul\":1353:1374   */\n      tag_111\n        /* \"#utility.yul\":1368:1373   */\n      dup2\n        /* \"#utility.yul\":1353:1374   */\n      tag_60\n      jump\t// in\n    tag_111:\n        /* \"#utility.yul\":1348:1351   */\n      dup3\n        /* \"#utility.yul\":1341:1375   */\n      mstore\n        /* \"#utility.yul\":1272:1381   */\n      pop\n      pop\n      jump\t// out\n        /* \"#utility.yul\":1387:1597   */\n    tag_15:\n        /* \"#utility.yul\":1474:1478   */\n      0x00\n        /* \"#utility.yul\":1512:1514   */\n      0x20\n        /* \"#utility.yul\":1501:1510   */\n      dup3\n        /* \"#utility.yul\":1497:1515   */\n      add\n        /* \"#utility.yul\":1489:1515   */\n      swap1\n      pop\n        /* \"#utility.yul\":1525:1590   */\n      tag_113\n        /* \"#utility.yul\":1587:1588   */\n      0x00\n        /* \"#utility.yul\":1576:1585   */\n      dup4\n        /* \"#utility.yul\":1572:1589   */\n      add\n        /* \"#utility.yul\":1563:1569   */\n      dup5\n        /* \"#utility.yul\":1525:1590   */\n      tag_61\n      jump\t// in\n    tag_113:\n        /* \"#utility.yul\":1387:1597   */\n      swap3\n      swap2\n      pop\n      pop\n      jump\t// out\n        /* \"#utility.yul\":1603:1680   */\n    tag_62:\n        /* \"#utility.yul\":1640:1647   */\n      0x00\n        /* \"#utility.yul\":1669:1674   */\n      dup2\n        /* \"#utility.yul\":1658:1674   */\n      swap1\n      pop\n        /* \"#utility.yul\":1603:1680   */\n      swap2\n      swap1\n      pop\n      jump\t// out\n        /* \"#utility.yul\":1686:1808   */\n    tag_63:\n        /* \"#utility.yul\":1759:1783   */\n      tag_116\n        /* \"#utility.yul\":1777:1782   */\n      dup2\n        /* \"#utility.yul\":1759:1783   */\n      tag_62\n      jump\t// in\n    tag_116:\n        /* \"#utility.yul\":1752:1757   */\n      dup2\n        /* \"#utility.yul\":1749:1784   */\n      eq\n        /* \"#utility.yul\":1739:1802   */\n      tag_117\n      jumpi\n        /* \"#utility.yul\":1798:1799   */\n      0x00\n        /* \"#utility.yul\":1795:1796   */\n      0x00\n        /* \"#utility.yul\":1788:1800   */\n      revert\n        /* \"#utility.yul\":1739:1802   */\n    tag_117:\n        /* \"#utility.yul\":1686:1808   */\n      pop\n      jump\t// out\n        /* \"#utility.yul\":1814:1953   */\n    tag_64:\n        /* \"#utility.yul\":1860:1865   */\n      0x00\n        /* \"#utility.yul\":1898:1904   */\n      dup2\n        /* \"#utility.yul\":1885:1905   */\n      calldataload\n        /* \"#utility.yul\":1876:1905   */\n      swap1\n      pop\n        /* \"#utility.yul\":1914:1947   */\n      tag_119\n        /* \"#utility.yul\":1941:1946   */\n      dup2\n        /* \"#utility.yul\":1914:1947   */\n      tag_63\n      jump\t// in\n    tag_119:\n        /* \"#utility.yul\":1814:1953   */\n      swap3\n      swap2\n      pop\n      pop\n      jump\t// out\n        /* \"#utility.yul\":1959:2433   */\n    tag_19:\n        /* \"#utility.yul\":2027:2033   */\n      0x00\n        /* \"#utility.yul\":2035:2041   */\n      0x00\n        /* \"#utility.yul\":2084:2086   */\n      0x40\n        /* \"#utility.yul\":2072:2081   */\n      dup4\n        /* \"#utility.yul\":2063:2070   */\n      dup6\n        /* \"#utility.yul\":2059:2082   */\n      sub\n        /* \"#utility.yul\":2055:2087   */\n      slt\n        /* \"#utility.yul\":2052:2171   */\n      iszero\n      tag_121\n      jumpi\n        /* \"#utility.yul\":2090:2169   */\n      tag_122\n      tag_54\n      jump\t// in\n    tag_122:\n        /* \"#utility.yul\":2052:2171   */\n    tag_121:\n        /* \"#utility.yul\":2210:2211   */\n      0x00\n        /* \"#utility.yul\":2235:2288   */\n      tag_123\n        /* \"#utility.yul\":2280:2287   */\n      dup6\n        /* \"#utility.yul\":2271:2277   */\n      dup3\n        /* \"#utility.yul\":2260:2269   */\n      dup7\n        /* \"#utility.yul\":2256:2278   */\n      add\n        /* \"#utility.yul\":2235:2288   */\n      tag_59\n      jump\t// in\n    tag_123:\n        /* \"#utility.yul\":2225:2288   */\n      swap3\n      pop\n        /* \"#utility.yul\":2181:2298   */\n      pop\n        /* \"#utility.yul\":2337:2339   */\n      0x20\n        /* \"#utility.yul\":2363:2416   */\n      tag_124\n        /* \"#utility.yul\":2408:2415   */\n      dup6\n        /* \"#utility.yul\":2399:2405   */\n      dup3\n        /* \"#utility.yul\":2388:2397   */\n      dup7\n        /* \"#utility.yul\":2384:2406   */\n      add\n        /* \"#utility.yul\":2363:2416   */\n      tag_64\n      jump\t// in\n    tag_124:\n        /* \"#utility.yul\":2353:2416   */\n      swap2\n      pop\n        /* \"#utility.yul\":2308:2426   */\n      pop\n        /* \"#utility.yul\":1959:2433   */\n      swap3\n      pop\n      swap3\n      swap1\n      pop\n      jump\t// out\n        /* \"#utility.yul\":2439:2557   */\n    tag_65:\n        /* \"#utility.yul\":2526:2550   */\n      tag_126\n        /* \"#utility.yul\":2544:2549   */\n      dup2\n        /* \"#utility.yul\":2526:2550   */\n      tag_62\n      jump\t// in\n    tag_126:\n        /* \"#utility.yul\":2521:2524   */\n      dup3\n        /* \"#utility.yul\":2514:2551   */\n      mstore\n        /* \"#utility.yul\":2439:2557   */\n      pop\n      pop\n      jump\t// out\n        /* \"#utility.yul\":2563:2785   */\n    tag_26:\n        /* \"#utility.yul\":2656:2660   */\n      0x00\n        /* \"#utility.yul\":2694:2696   */\n      0x20\n        /* \"#utility.yul\":2683:2692   */\n      dup3\n        /* \"#utility.yul\":2679:2697   */\n      add\n        /* \"#utility.yul\":2671:2697   */\n      swap1\n      pop\n        /* \"#utility.yul\":2707:2778   */\n      tag_128\n        /* \"#utility.yul\":2775:2776   */\n      0x00\n        /* \"#utility.yul\":2764:2773   */\n      dup4\n        /* \"#utility.yul\":2760:2777   */\n      add\n        /* \"#utility.yul\":2751:2757   */\n      dup5\n        /* \"#utility.yul\":2707:2778   */\n      tag_65\n      jump\t// in\n    tag_128:\n        /* \"#utility.yul\":2563:2785   */\n      swap3\n      swap2\n      pop\n      pop\n      jump\t// out\n        /* \"#utility.yul\":2791:2895   */\n    tag_66:\n        /* \"#utility.yul\":2836:2843   */\n      0x00\n        /* \"#utility.yul\":2865:2889   */\n      tag_130\n        /* \"#utility.yul\":2883:2888   */\n      dup3\n        /* \"#utility.yul\":2865:2889   */\n      tag_56\n      jump\t// in\n    tag_130:\n        /* \"#utility.yul\":2854:2889   */\n      swap1\n      pop\n        /* \"#utility.yul\":2791:2895   */\n      swap2\n      swap1\n      pop\n      jump\t// out\n        /* \"#utility.yul\":2901:3039   */\n    tag_67:\n        /* \"#utility.yul\":2982:3014   */\n      tag_132\n        /* \"#utility.yul\":3008:3013   */\n      dup2\n        /* \"#utility.yul\":2982:3014   */\n      tag_66\n      jump\t// in\n    tag_132:\n        /* \"#utility.yul\":2975:2980   */\n      dup2\n        /* \"#utility.yul\":2972:3015   */\n      eq\n        /* \"#utility.yul\":2962:3033   */\n      tag_133\n      jumpi\n        /* \"#utility.yul\":3029:3030   */\n      0x00\n        /* \"#utility.yul\":3026:3027   */\n      0x00\n        /* \"#utility.yul\":3019:3031   */\n      revert\n        /* \"#utility.yul\":2962:3033   */\n    tag_133:\n        /* \"#utility.yul\":2901:3039   */\n      pop\n      jump\t// out\n        /* \"#utility.yul\":3045:3200   */\n    tag_68:\n        /* \"#utility.yul\":3099:3104   */\n      0x00\n        /* \"#utility.yul\":3137:3143   */\n      dup2\n        /* \"#utility.yul\":3124:3144   */\n      calldataload\n        /* \"#utility.yul\":3115:3144   */\n      swap1\n      pop\n        /* \"#utility.yul\":3153:3194   */\n      tag_135\n        /* \"#utility.yul\":3188:3193   */\n      dup2\n        /* \"#utility.yul\":3153:3194   */\n      tag_67\n      jump\t// in\n    tag_135:\n        /* \"#utility.yul\":3045:3200   */\n      swap3\n      swap2\n      pop\n      pop\n      jump\t// out\n        /* \"#utility.yul\":3206:3323   */\n    tag_69:\n        /* \"#utility.yul\":3315:3316   */\n      0x00\n        /* \"#utility.yul\":3312:3313   */\n      0x00\n        /* \"#utility.yul\":3305:3317   */\n      revert\n        /* \"#utility.yul\":3329:3446   */\n    tag_70:\n        /* \"#utility.yul\":3438:3439   */\n      0x00\n        /* \"#utility.yul\":3435:3436   */\n      0x00\n        /* \"#utility.yul\":3428:3440   */\n      revert\n        /* \"#utility.yul\":3452:3554   */\n    tag_71:\n        /* \"#utility.yul\":3493:3499   */\n      0x00\n        /* \"#utility.yul\":3544:3546   */\n      0x1f\n        /* \"#utility.yul\":3540:3547   */\n      not\n        /* \"#utility.yul\":3535:3537   */\n      0x1f\n        /* \"#utility.yul\":3528:3533   */\n      dup4\n        /* \"#utility.yul\":3524:3538   */\n      add\n        /* \"#utility.yul\":3520:3548   */\n      and\n        /* \"#utility.yul\":3510:3548   */\n      swap1\n      pop\n        /* \"#utility.yul\":3452:3554   */\n      swap2\n      swap1\n      pop\n      jump\t// out\n        /* \"#utility.yul\":3560:3740   */\n    tag_72:\n        /* \"#utility.yul\":3608:3685   */\n      0x4e487b7100000000000000000000000000000000000000000000000000000000\n        /* \"#utility.yul\":3605:3606   */\n      0x00\n        /* \"#utility.yul\":3598:3686   */\n      mstore\n        /* \"#utility.yul\":3705:3709   */\n      0x41\n        /* \"#utility.yul\":3702:3703   */\n      0x04\n        /* \"#utility.yul\":3695:3710   */\n      mstore\n        /* \"#utility.yul\":3729:3733   */\n      0x24\n        /* \"#utility.yul\":3726:3727   */\n      0x00\n        /* \"#utility.yul\":3719:3734   */\n      revert\n        /* \"#utility.yul\":3746:4027   */\n    tag_73:\n        /* \"#utility.yul\":3829:3856   */\n      tag_141\n        /* \"#utility.yul\":3851:3855   */\n      dup3\n        /* \"#utility.yul\":3829:3856   */\n      tag_71\n      jump\t// in\n    tag_141:\n        /* \"#utility.yul\":3821:3827   */\n      dup2\n        /* \"#utility.yul\":3817:3857   */\n      add\n        /* \"#utility.yul\":3959:3965   */\n      dup2\n        /* \"#utility.yul\":3947:3957   */\n      dup2\n        /* \"#utility.yul\":3944:3966   */\n      lt\n        /* \"#utility.yul\":3923:3941   */\n      0xffffffffffffffff\n        /* \"#utility.yul\":3911:3921   */\n      dup3\n        /* \"#utility.yul\":3908:3942   */\n      gt\n        /* \"#utility.yul\":3905:3967   */\n      or\n        /* \"#utility.yul\":3902:3990   */\n      iszero\n      tag_142\n      jumpi\n        /* \"#utility.yul\":3970:3988   */\n      tag_143\n      tag_72\n      jump\t// in\n    tag_143:\n        /* \"#utility.yul\":3902:3990   */\n    tag_142:\n        /* \"#utility.yul\":4010:4020   */\n      dup1\n        /* \"#utility.yul\":4006:4008   */\n      0x40\n        /* \"#utility.yul\":3999:4021   */\n      mstore\n        /* \"#utility.yul\":3789:4027   */\n      pop\n        /* \"#utility.yul\":3746:4027   */\n      pop\n      pop\n      jump\t// out\n        /* \"#utility.yul\":4033:4162   */\n    tag_74:\n        /* \"#utility.yul\":4067:4073   */\n      0x00\n        /* \"#utility.yul\":4094:4114   */\n      tag_145\n      tag_53\n      jump\t// in\n    tag_145:\n        /* \"#utility.yul\":4084:4114   */\n      swap1\n      pop\n        /* \"#utility.yul\":4123:4156   */\n      tag_146\n        /* \"#utility.yul\":4151:4155   */\n      dup3\n        /* \"#utility.yul\":4143:4149   */\n      dup3\n        /* \"#utility.yul\":4123:4156   */\n      tag_73\n      jump\t// in\n    tag_146:\n        /* \"#utility.yul\":4033:4162   */\n      swap2\n      swap1\n      pop\n      jump\t// out\n        /* \"#utility.yul\":4168:4475   */\n    tag_75:\n        /* \"#utility.yul\":4229:4233   */\n      0x00\n        /* \"#utility.yul\":4319:4337   */\n      0xffffffffffffffff\n        /* \"#utility.yul\":4311:4317   */\n      dup3\n        /* \"#utility.yul\":4308:4338   */\n      gt\n        /* \"#utility.yul\":4305:4361   */\n      iszero\n      tag_148\n      jumpi\n        /* \"#utility.yul\":4341:4359   */\n      tag_149\n      tag_72\n      jump\t// in\n    tag_149:\n        /* \"#utility.yul\":4305:4361   */\n    tag_148:\n        /* \"#utility.yul\":4379:4408   */\n      tag_150\n        /* \"#utility.yul\":4401:4407   */\n      dup3\n        /* \"#utility.yul\":4379:4408   */\n      tag_71\n      jump\t// in\n    tag_150:\n        /* \"#utility.yul\":4371:4408   */\n      swap1\n      pop\n        /* \"#utility.yul\":4463:4467   */\n      0x20\n        /* \"#utility.yul\":4457:4461   */\n      dup2\n        /* \"#utility.yul\":4453:4468   */\n      add\n        /* \"#utility.yul\":4445:4468   */\n      swap1\n      pop\n        /* \"#utility.yul\":4168:4475   */\n      swap2\n      swap1\n      pop\n      jump\t// out\n        /* \"#utility.yul\":4481:4629   */\n    tag_76:\n        /* \"#utility.yul\":4579:4585   */\n      dup3\n        /* \"#utility.yul\":4574:4577   */\n      dup2\n        /* \"#utility.yul\":4569:4572   */\n      dup4\n        /* \"#utility.yul\":4556:4586   */\n      calldatacopy\n        /* \"#utility.yul\":4620:4621   */\n      0x00\n        /* \"#utility.yul\":4611:4617   */\n      dup4\n        /* \"#utility.yul\":4606:4609   */\n      dup4\n        /* \"#utility.yul\":4602:4618   */\n      add\n        /* \"#utility.yul\":4595:4622   */\n      mstore\n        /* \"#utility.yul\":4481:4629   */\n      pop\n      pop\n      pop\n      jump\t// out\n        /* \"#utility.yul\":4635:5058   */\n    tag_77:\n        /* \"#utility.yul\":4712:4717   */\n      0x00\n        /* \"#utility.yul\":4737:4802   */\n      tag_153\n        /* \"#utility.yul\":4753:4801   */\n      tag_154\n        /* \"#utility.yul\":4794:4800   */\n      dup5\n        /* \"#utility.yul\":4753:4801   */\n      tag_75\n      jump\t// in\n    tag_154:\n        /* \"#utility.yul\":4737:4802   */\n      tag_74\n      jump\t// in\n    tag_153:\n        /* \"#utility.yul\":4728:4802   */\n      swap1\n      pop\n        /* \"#utility.yul\":4825:4831   */\n      dup3\n        /* \"#utility.yul\":4818:4823   */\n      dup2\n        /* \"#utility.yul\":4811:4832   */\n      mstore\n        /* \"#utility.yul\":4863:4867   */\n      0x20\n        /* \"#utility.yul\":4856:4861   */\n      dup2\n        /* \"#utility.yul\":4852:4868   */\n      add\n        /* \"#utility.yul\":4901:4904   */\n      dup5\n        /* \"#utility.yul\":4892:4898   */\n      dup5\n        /* \"#utility.yul\":4887:4890   */\n      dup5\n        /* \"#utility.yul\":4883:4899   */\n      add\n        /* \"#utility.yul\":4880:4905   */\n      gt\n        /* \"#utility.yul\":4877:4989   */\n      iszero\n      tag_155\n      jumpi\n        /* \"#utility.yul\":4908:4987   */\n      tag_156\n      tag_70\n      jump\t// in\n    tag_156:\n        /* \"#utility.yul\":4877:4989   */\n    tag_155:\n        /* \"#utility.yul\":4998:5052   */\n      tag_157\n        /* \"#utility.yul\":5045:5051   */\n      dup5\n        /* \"#utility.yul\":5040:5043   */\n      dup3\n        /* \"#utility.yul\":5035:5038   */\n      dup6\n        /* \"#utility.yul\":4998:5052   */\n      tag_76\n      jump\t// in\n    tag_157:\n        /* \"#utility.yul\":4718:5058   */\n      pop\n        /* \"#utility.yul\":4635:5058   */\n      swap4\n      swap3\n      pop\n      pop\n      pop\n      jump\t// out\n        /* \"#utility.yul\":5077:5415   */\n    tag_78:\n        /* \"#utility.yul\":5132:5137   */\n      0x00\n        /* \"#utility.yul\":5181:5184   */\n      dup3\n        /* \"#utility.yul\":5174:5178   */\n      0x1f\n        /* \"#utility.yul\":5166:5172   */\n      dup4\n        /* \"#utility.yul\":5162:5179   */\n      add\n        /* \"#utility.yul\":5158:5185   */\n      slt\n        /* \"#utility.yul\":5148:5270   */\n      tag_159\n      jumpi\n        /* \"#utility.yul\":5189:5268   */\n      tag_160\n      tag_69\n      jump\t// in\n    tag_160:\n        /* \"#utility.yul\":5148:5270   */\n    tag_159:\n        /* \"#utility.yul\":5306:5312   */\n      dup2\n        /* \"#utility.yul\":5293:5313   */\n      calldataload\n        /* \"#utility.yul\":5331:5409   */\n      tag_161\n        /* \"#utility.yul\":5405:5408   */\n      dup5\n        /* \"#utility.yul\":5397:5403   */\n      dup3\n        /* \"#utility.yul\":5390:5394   */\n      0x20\n        /* \"#utility.yul\":5382:5388   */\n      dup7\n        /* \"#utility.yul\":5378:5395   */\n      add\n        /* \"#utility.yul\":5331:5409   */\n      tag_77\n      jump\t// in\n    tag_161:\n        /* \"#utility.yul\":5322:5409   */\n      swap2\n      pop\n        /* \"#utility.yul\":5138:5415   */\n      pop\n        /* \"#utility.yul\":5077:5415   */\n      swap3\n      swap2\n      pop\n      pop\n      jump\t// out\n        /* \"#utility.yul\":5421:6234   */\n    tag_30:\n        /* \"#utility.yul\":5515:5521   */\n      0x00\n        /* \"#utility.yul\":5523:5529   */\n      0x00\n        /* \"#utility.yul\":5531:5537   */\n      0x00\n        /* \"#utility.yul\":5580:5582   */\n      0x60\n        /* \"#utility.yul\":5568:5577   */\n      dup5\n        /* \"#utility.yul\":5559:5566   */\n      dup7\n        /* \"#utility.yul\":5555:5578   */\n      sub\n        /* \"#utility.yul\":5551:5583   */\n      slt\n        /* \"#utility.yul\":5548:5667   */\n      iszero\n      tag_163\n      jumpi\n        /* \"#utility.yul\":5586:5665   */\n      tag_164\n      tag_54\n      jump\t// in\n    tag_164:\n        /* \"#utility.yul\":5548:5667   */\n    tag_163:\n        /* \"#utility.yul\":5706:5707   */\n      0x00\n        /* \"#utility.yul\":5731:5792   */\n      tag_165\n        /* \"#utility.yul\":5784:5791   */\n      dup7\n        /* \"#utility.yul\":5775:5781   */\n      dup3\n        /* \"#utility.yul\":5764:5773   */\n      dup8\n        /* \"#utility.yul\":5760:5782   */\n      add\n        /* \"#utility.yul\":5731:5792   */\n      tag_68\n      jump\t// in\n    tag_165:\n        /* \"#utility.yul\":5721:5792   */\n      swap4\n      pop\n        /* \"#utility.yul\":5677:5802   */\n      pop\n        /* \"#utility.yul\":5841:5843   */\n      0x20\n        /* \"#utility.yul\":5867:5920   */\n      tag_166\n        /* \"#utility.yul\":5912:5919   */\n      dup7\n        /* \"#utility.yul\":5903:5909   */\n      dup3\n        /* \"#utility.yul\":5892:5901   */\n      dup8\n        /* \"#utility.yul\":5888:5910   */\n      add\n        /* \"#utility.yul\":5867:5920   */\n      tag_64\n      jump\t// in\n    tag_166:\n        /* \"#utility.yul\":5857:5920   */\n      swap3\n      pop\n        /* \"#utility.yul\":5812:5930   */\n      pop\n        /* \"#utility.yul\":5997:5999   */\n      0x40\n        /* \"#utility.yul\":5986:5995   */\n      dup5\n        /* \"#utility.yul\":5982:6000   */\n      add\n        /* \"#utility.yul\":5969:6001   */\n      calldataload\n        /* \"#utility.yul\":6028:6046   */\n      0xffffffffffffffff\n        /* \"#utility.yul\":6020:6026   */\n      dup2\n        /* \"#utility.yul\":6017:6047   */\n      gt\n        /* \"#utility.yul\":6014:6131   */\n      iszero\n      tag_167\n      jumpi\n        /* \"#utility.yul\":6050:6129   */\n      tag_168\n      tag_55\n      jump\t// in\n    tag_168:\n        /* \"#utility.yul\":6014:6131   */\n    tag_167:\n        /* \"#utility.yul\":6155:6217   */\n      tag_169\n        /* \"#utility.yul\":6209:6216   */\n      dup7\n        /* \"#utility.yul\":6200:6206   */\n      dup3\n        /* \"#utility.yul\":6189:6198   */\n      dup8\n        /* \"#utility.yul\":6185:6207   */\n      add\n        /* \"#utility.yul\":6155:6217   */\n      tag_78\n      jump\t// in\n    tag_169:\n        /* \"#utility.yul\":6145:6217   */\n      swap2\n      pop\n        /* \"#utility.yul\":5940:6227   */\n      pop\n        /* \"#utility.yul\":5421:6234   */\n      swap3\n      pop\n      swap3\n      pop\n      swap3\n      jump\t// out\n        /* \"#utility.yul\":6240:6338   */\n    tag_79:\n        /* \"#utility.yul\":6291:6297   */\n      0x00\n        /* \"#utility.yul\":6325:6330   */\n      dup2\n        /* \"#utility.yul\":6319:6331   */\n      mload\n        /* \"#utility.yul\":6309:6331   */\n      swap1\n      pop\n        /* \"#utility.yul\":6240:6338   */\n      swap2\n      swap1\n      pop\n      jump\t// out\n        /* \"#utility.yul\":6344:6512   */\n    tag_80:\n        /* \"#utility.yul\":6427:6438   */\n      0x00\n        /* \"#utility.yul\":6461:6467   */\n      dup3\n        /* \"#utility.yul\":6456:6459   */\n      dup3\n        /* \"#utility.yul\":6449:6468   */\n      mstore\n        /* \"#utility.yul\":6501:6505   */\n      0x20\n        /* \"#utility.yul\":6496:6499   */\n      dup3\n        /* \"#utility.yul\":6492:6506   */\n      add\n        /* \"#utility.yul\":6477:6506   */\n      swap1\n      pop\n        /* \"#utility.yul\":6344:6512   */\n      swap3\n      swap2\n      pop\n      pop\n      jump\t// out\n        /* \"#utility.yul\":6518:6657   */\n    tag_81:\n        /* \"#utility.yul\":6607:6613   */\n      dup3\n        /* \"#utility.yul\":6602:6605   */\n      dup2\n        /* \"#utility.yul\":6597:6600   */\n      dup4\n        /* \"#utility.yul\":6591:6614   */\n      mcopy\n        /* \"#utility.yul\":6648:6649   */\n      0x00\n        /* \"#utility.yul\":6639:6645   */\n      dup4\n        /* \"#utility.yul\":6634:6637   */\n      dup4\n        /* \"#utility.yul\":6630:6646   */\n      add\n        /* \"#utility.yul\":6623:6650   */\n      mstore\n        /* \"#utility.yul\":6518:6657   */\n      pop\n      pop\n      pop\n      jump\t// out\n        /* \"#utility.yul\":6663:7036   */\n    tag_82:\n        /* \"#utility.yul\":6749:6752   */\n      0x00\n        /* \"#utility.yul\":6777:6815   */\n      tag_174\n        /* \"#utility.yul\":6809:6814   */\n      dup3\n        /* \"#utility.yul\":6777:6815   */\n      tag_79\n      jump\t// in\n    tag_174:\n        /* \"#utility.yul\":6831:6901   */\n      tag_175\n        /* \"#utility.yul\":6894:6900   */\n      dup2\n        /* \"#utility.yul\":6889:6892   */\n      dup6\n        /* \"#utility.yul\":6831:6901   */\n      tag_80\n      jump\t// in\n    tag_175:\n        /* \"#utility.yul\":6824:6901   */\n      swap4\n      pop\n        /* \"#utility.yul\":6910:6975   */\n      tag_176\n        /* \"#utility.yul\":6968:6974   */\n      dup2\n        /* \"#utility.yul\":6963:6966   */\n      dup6\n        /* \"#utility.yul\":6956:6960   */\n      0x20\n        /* \"#utility.yul\":6949:6954   */\n      dup7\n        /* \"#utility.yul\":6945:6961   */\n      add\n        /* \"#utility.yul\":6910:6975   */\n      tag_81\n      jump\t// in\n    tag_176:\n        /* \"#utility.yul\":7000:7029   */\n      tag_177\n        /* \"#utility.yul\":7022:7028   */\n      dup2\n        /* \"#utility.yul\":7000:7029   */\n      tag_71\n      jump\t// in\n    tag_177:\n        /* \"#utility.yul\":6995:6998   */\n      dup5\n        /* \"#utility.yul\":6991:7030   */\n      add\n        /* \"#utility.yul\":6984:7030   */\n      swap2\n      pop\n        /* \"#utility.yul\":6753:7036   */\n      pop\n        /* \"#utility.yul\":6663:7036   */\n      swap3\n      swap2\n      pop\n      pop\n      jump\t// out\n        /* \"#utility.yul\":7042:7351   */\n    tag_33:\n        /* \"#utility.yul\":7153:7157   */\n      0x00\n        /* \"#utility.yul\":7191:7193   */\n      0x20\n        /* \"#utility.yul\":7180:7189   */\n      dup3\n        /* \"#utility.yul\":7176:7194   */\n      add\n        /* \"#utility.yul\":7168:7194   */\n      swap1\n      pop\n        /* \"#utility.yul\":7240:7249   */\n      dup2\n        /* \"#utility.yul\":7234:7238   */\n      dup2\n        /* \"#utility.yul\":7230:7250   */\n      sub\n        /* \"#utility.yul\":7226:7227   */\n      0x00\n        /* \"#utility.yul\":7215:7224   */\n      dup4\n        /* \"#utility.yul\":7211:7228   */\n      add\n        /* \"#utility.yul\":7204:7251   */\n      mstore\n        /* \"#utility.yul\":7268:7344   */\n      tag_179\n        /* \"#utility.yul\":7339:7343   */\n      dup2\n        /* \"#utility.yul\":7330:7336   */\n      dup5\n        /* \"#utility.yul\":7268:7344   */\n      tag_82\n      jump\t// in\n    tag_179:\n        /* \"#utility.yul\":7260:7344   */\n      swap1\n      pop\n        /* \"#utility.yul\":7042:7351   */\n      swap3\n      swap2\n      pop\n      pop\n      jump\t// out\n        /* \"#utility.yul\":7357:7526   */\n    tag_83:\n        /* \"#utility.yul\":7441:7452   */\n      0x00\n        /* \"#utility.yul\":7475:7481   */\n      dup3\n        /* \"#utility.yul\":7470:7473   */\n      dup3\n        /* \"#utility.yul\":7463:7482   */\n      mstore\n        /* \"#utility.yul\":7515:7519   */\n      0x20\n        /* \"#utility.yul\":7510:7513   */\n      dup3\n        /* \"#utility.yul\":7506:7520   */\n      add\n        /* \"#utility.yul\":7491:7520   */\n      swap1\n      pop\n        /* \"#utility.yul\":7357:7526   */\n      swap3\n      swap2\n      pop\n      pop\n      jump\t// out\n        /* \"#utility.yul\":7532:7709   */\n    tag_84:\n        /* \"#utility.yul\":7672:7701   */\n      0x596f7520617265206e6f7420616c6c6f77656420746f2073656e640000000000\n        /* \"#utility.yul\":7668:7669   */\n      0x00\n        /* \"#utility.yul\":7660:7666   */\n      dup3\n        /* \"#utility.yul\":7656:7670   */\n      add\n        /* \"#utility.yul\":7649:7702   */\n      mstore\n        /* \"#utility.yul\":7532:7709   */\n      pop\n      jump\t// out\n        /* \"#utility.yul\":7715:8081   */\n    tag_85:\n        /* \"#utility.yul\":7857:7860   */\n      0x00\n        /* \"#utility.yul\":7878:7945   */\n      tag_183\n        /* \"#utility.yul\":7942:7944   */\n      0x1b\n        /* \"#utility.yul\":7937:7940   */\n      dup4\n        /* \"#utility.yul\":7878:7945   */\n      tag_83\n      jump\t// in\n    tag_183:\n        /* \"#utility.yul\":7871:7945   */\n      swap2\n      pop\n        /* \"#utility.yul\":7954:8047   */\n      tag_184\n        /* \"#utility.yul\":8043:8046   */\n      dup3\n        /* \"#utility.yul\":7954:8047   */\n      tag_84\n      jump\t// in\n    tag_184:\n        /* \"#utility.yul\":8072:8074   */\n      0x20\n        /* \"#utility.yul\":8067:8070   */\n      dup3\n        /* \"#utility.yul\":8063:8075   */\n      add\n        /* \"#utility.yul\":8056:8075   */\n      swap1\n      pop\n        /* \"#utility.yul\":7715:8081   */\n      swap2\n      swap1\n      pop\n      jump\t// out\n        /* \"#utility.yul\":8087:8506   */\n    tag_39:\n        /* \"#utility.yul\":8253:8257   */\n      0x00\n        /* \"#utility.yul\":8291:8293   */\n      0x20\n        /* \"#utility.yul\":8280:8289   */\n      dup3\n        /* \"#utility.yul\":8276:8294   */\n      add\n        /* \"#utility.yul\":8268:8294   */\n      swap1\n      pop\n        /* \"#utility.yul\":8340:8349   */\n      dup2\n        /* \"#utility.yul\":8334:8338   */\n      dup2\n        /* \"#utility.yul\":8330:8350   */\n      sub\n        /* \"#utility.yul\":8326:8327   */\n      0x00\n        /* \"#utility.yul\":8315:8324   */\n      dup4\n        /* \"#utility.yul\":8311:8328   */\n      add\n        /* \"#utility.yul\":8304:8351   */\n      mstore\n        /* \"#utility.yul\":8368:8499   */\n      tag_186\n        /* \"#utility.yul\":8494:8498   */\n      dup2\n        /* \"#utility.yul\":8368:8499   */\n      tag_85\n      jump\t// in\n    tag_186:\n        /* \"#utility.yul\":8360:8499   */\n      swap1\n      pop\n        /* \"#utility.yul\":8087:8506   */\n      swap2\n      swap1\n      pop\n      jump\t// out\n        /* \"#utility.yul\":8512:8691   */\n    tag_86:\n        /* \"#utility.yul\":8652:8683   */\n      0x596f752068617665206e6f7420656e6f75676820616c6c6f77616e6365000000\n        /* \"#utility.yul\":8648:8649   */\n      0x00\n        /* \"#utility.yul\":8640:8646   */\n      dup3\n        /* \"#utility.yul\":8636:8650   */\n      add\n        /* \"#utility.yul\":8629:8684   */\n      mstore\n        /* \"#utility.yul\":8512:8691   */\n      pop\n      jump\t// out\n        /* \"#utility.yul\":8697:9063   */\n    tag_87:\n        /* \"#utility.yul\":8839:8842   */\n      0x00\n        /* \"#utility.yul\":8860:8927   */\n      tag_189\n        /* \"#utility.yul\":8924:8926   */\n      0x1d\n        /* \"#utility.yul\":8919:8922   */\n      dup4\n        /* \"#utility.yul\":8860:8927   */\n      tag_83\n      jump\t// in\n    tag_189:\n        /* \"#utility.yul\":8853:8927   */\n      swap2\n      pop\n        /* \"#utility.yul\":8936:9029   */\n      tag_190\n        /* \"#utility.yul\":9025:9028   */\n      dup3\n        /* \"#utility.yul\":8936:9029   */\n      tag_86\n      jump\t// in\n    tag_190:\n        /* \"#utility.yul\":9054:9056   */\n      0x20\n        /* \"#utility.yul\":9049:9052   */\n      dup3\n        /* \"#utility.yul\":9045:9057   */\n      add\n        /* \"#utility.yul\":9038:9057   */\n      swap1\n      pop\n        /* \"#utility.yul\":8697:9063   */\n      swap2\n      swap1\n      pop\n      jump\t// out\n        /* \"#utility.yul\":9069:9488   */\n    tag_42:\n        /* \"#utility.yul\":9235:9239   */\n      0x00\n        /* \"#utility.yul\":9273:9275   */\n      0x20\n        /* \"#utility.yul\":9262:9271   */\n      dup3\n        /* \"#utility.yul\":9258:9276   */\n      add\n        /* \"#utility.yul\":9250:9276   */\n      swap1\n      pop\n        /* \"#utility.yul\":9322:9331   */\n      dup2\n        /* \"#utility.yul\":9316:9320   */\n      dup2\n        /* \"#utility.yul\":9312:9332   */\n      sub\n        /* \"#utility.yul\":9308:9309   */\n      0x00\n        /* \"#utility.yul\":9297:9306   */\n      dup4\n        /* \"#utility.yul\":9293:9310   */\n      add\n        /* \"#utility.yul\":9286:9333   */\n      mstore\n        /* \"#utility.yul\":9350:9481   */\n      tag_192\n        /* \"#utility.yul\":9476:9480   */\n      dup2\n        /* \"#utility.yul\":9350:9481   */\n      tag_87\n      jump\t// in\n    tag_192:\n        /* \"#utility.yul\":9342:9481   */\n      swap1\n      pop\n        /* \"#utility.yul\":9069:9488   */\n      swap2\n      swap1\n      pop\n      jump\t// out\n        /* \"#utility.yul\":9494:9674   */\n    tag_88:\n        /* \"#utility.yul\":9542:9619   */\n      0x4e487b7100000000000000000000000000000000000000000000000000000000\n        /* \"#utility.yul\":9539:9540   */\n      0x00\n        /* \"#utility.yul\":9532:9620   */\n      mstore\n        /* \"#utility.yul\":9639:9643   */\n      0x11\n        /* \"#utility.yul\":9636:9637   */\n      0x04\n        /* \"#utility.yul\":9629:9644   */\n      mstore\n        /* \"#utility.yul\":9663:9667   */\n      0x24\n        /* \"#utility.yul\":9660:9661   */\n      0x00\n        /* \"#utility.yul\":9653:9668   */\n      revert\n        /* \"#utility.yul\":9680:9874   */\n    tag_44:\n        /* \"#utility.yul\":9720:9724   */\n      0x00\n        /* \"#utility.yul\":9740:9760   */\n      tag_195\n        /* \"#utility.yul\":9758:9759   */\n      dup3\n        /* \"#utility.yul\":9740:9760   */\n      tag_62\n      jump\t// in\n    tag_195:\n        /* \"#utility.yul\":9735:9760   */\n      swap2\n      pop\n        /* \"#utility.yul\":9774:9794   */\n      tag_196\n        /* \"#utility.yul\":9792:9793   */\n      dup4\n        /* \"#utility.yul\":9774:9794   */\n      tag_62\n      jump\t// in\n    tag_196:\n        /* \"#utility.yul\":9769:9794   */\n      swap3\n      pop\n        /* \"#utility.yul\":9818:9819   */\n      dup3\n        /* \"#utility.yul\":9815:9816   */\n      dup3\n        /* \"#utility.yul\":9811:9820   */\n      sub\n        /* \"#utility.yul\":9803:9820   */\n      swap1\n      pop\n        /* \"#utility.yul\":9842:9843   */\n      dup2\n        /* \"#utility.yul\":9836:9840   */\n      dup2\n        /* \"#utility.yul\":9833:9844   */\n      gt\n        /* \"#utility.yul\":9830:9867   */\n      iszero\n      tag_197\n      jumpi\n        /* \"#utility.yul\":9847:9865   */\n      tag_198\n      tag_88\n      jump\t// in\n    tag_198:\n        /* \"#utility.yul\":9830:9867   */\n    tag_197:\n        /* \"#utility.yul\":9680:9874   */\n      swap3\n      swap2\n      pop\n      pop\n      jump\t// out\n        /* \"#utility.yul\":9880:10027   */\n    tag_89:\n        /* \"#utility.yul\":9981:9992   */\n      0x00\n        /* \"#utility.yul\":10018:10021   */\n      dup2\n        /* \"#utility.yul\":10003:10021   */\n      swap1\n      pop\n        /* \"#utility.yul\":9880:10027   */\n      swap3\n      swap2\n      pop\n      pop\n      jump\t// out\n        /* \"#utility.yul\":10033:10419   */\n    tag_90:\n        /* \"#utility.yul\":10137:10140   */\n      0x00\n        /* \"#utility.yul\":10165:10203   */\n      tag_201\n        /* \"#utility.yul\":10197:10202   */\n      dup3\n        /* \"#utility.yul\":10165:10203   */\n      tag_79\n      jump\t// in\n    tag_201:\n        /* \"#utility.yul\":10219:10307   */\n      tag_202\n        /* \"#utility.yul\":10300:10306   */\n      dup2\n        /* \"#utility.yul\":10295:10298   */\n      dup6\n        /* \"#utility.yul\":10219:10307   */\n      tag_89\n      jump\t// in\n    tag_202:\n        /* \"#utility.yul\":10212:10307   */\n      swap4\n      pop\n        /* \"#utility.yul\":10316:10381   */\n      tag_203\n        /* \"#utility.yul\":10374:10380   */\n      dup2\n        /* \"#utility.yul\":10369:10372   */\n      dup6\n        /* \"#utility.yul\":10362:10366   */\n      0x20\n        /* \"#utility.yul\":10355:10360   */\n      dup7\n        /* \"#utility.yul\":10351:10367   */\n      add\n        /* \"#utility.yul\":10316:10381   */\n      tag_81\n      jump\t// in\n    tag_203:\n        /* \"#utility.yul\":10406:10412   */\n      dup1\n        /* \"#utility.yul\":10401:10404   */\n      dup5\n        /* \"#utility.yul\":10397:10413   */\n      add\n        /* \"#utility.yul\":10390:10413   */\n      swap2\n      pop\n        /* \"#utility.yul\":10141:10419   */\n      pop\n        /* \"#utility.yul\":10033:10419   */\n      swap3\n      swap2\n      pop\n      pop\n      jump\t// out\n        /* \"#utility.yul\":10425:10696   */\n    tag_46:\n        /* \"#utility.yul\":10555:10558   */\n      0x00\n        /* \"#utility.yul\":10577:10670   */\n      tag_205\n        /* \"#utility.yul\":10666:10669   */\n      dup3\n        /* \"#utility.yul\":10657:10663   */\n      dup5\n        /* \"#utility.yul\":10577:10670   */\n      tag_90\n      jump\t// in\n    tag_205:\n        /* \"#utility.yul\":10570:10670   */\n      swap2\n      pop\n        /* \"#utility.yul\":10687:10690   */\n      dup2\n        /* \"#utility.yul\":10680:10690   */\n      swap1\n      pop\n        /* \"#utility.yul\":10425:10696   */\n      swap3\n      swap2\n      pop\n      pop\n      jump\t// out\n        /* \"#utility.yul\":10702:10875   */\n    tag_91:\n        /* \"#utility.yul\":10842:10867   */\n      0x43616c6c20776173206e6f742073756365737366756c6c000000000000000000\n        /* \"#utility.yul\":10838:10839   */\n      0x00\n        /* \"#utility.yul\":10830:10836   */\n      dup3\n        /* \"#utility.yul\":10826:10840   */\n      add\n        /* \"#utility.yul\":10819:10868   */\n      mstore\n        /* \"#utility.yul\":10702:10875   */\n      pop\n      jump\t// out\n        /* \"#utility.yul\":10881:11247   */\n    tag_92:\n        /* \"#utility.yul\":11023:11026   */\n      0x00\n        /* \"#utility.yul\":11044:11111   */\n      tag_208\n        /* \"#utility.yul\":11108:11110   */\n      0x17\n        /* \"#utility.yul\":11103:11106   */\n      dup4\n        /* \"#utility.yul\":11044:11111   */\n      tag_83\n      jump\t// in\n    tag_208:\n        /* \"#utility.yul\":11037:11111   */\n      swap2\n      pop\n        /* \"#utility.yul\":11120:11213   */\n      tag_209\n        /* \"#utility.yul\":11209:11212   */\n      dup3\n        /* \"#utility.yul\":11120:11213   */\n      tag_91\n      jump\t// in\n    tag_209:\n        /* \"#utility.yul\":11238:11240   */\n      0x20\n        /* \"#utility.yul\":11233:11236   */\n      dup3\n        /* \"#utility.yul\":11229:11241   */\n      add\n        /* \"#utility.yul\":11222:11241   */\n      swap1\n      pop\n        /* \"#utility.yul\":10881:11247   */\n      swap2\n      swap1\n      pop\n      jump\t// out\n        /* \"#utility.yul\":11253:11672   */\n    tag_52:\n        /* \"#utility.yul\":11419:11423   */\n      0x00\n        /* \"#utility.yul\":11457:11459   */\n      0x20\n        /* \"#utility.yul\":11446:11455   */\n      dup3\n        /* \"#utility.yul\":11442:11460   */\n      add\n        /* \"#utility.yul\":11434:11460   */\n      swap1\n      pop\n        /* \"#utility.yul\":11506:11515   */\n      dup2\n        /* \"#utility.yul\":11500:11504   */\n      dup2\n        /* \"#utility.yul\":11496:11516   */\n      sub\n        /* \"#utility.yul\":11492:11493   */\n      0x00\n        /* \"#utility.yul\":11481:11490   */\n      dup4\n        /* \"#utility.yul\":11477:11494   */\n      add\n        /* \"#utility.yul\":11470:11517   */\n      mstore\n        /* \"#utility.yul\":11534:11665   */\n      tag_211\n        /* \"#utility.yul\":11660:11664   */\n      dup2\n        /* \"#utility.yul\":11534:11665   */\n      tag_92\n      jump\t// in\n    tag_211:\n        /* \"#utility.yul\":11526:11665   */\n      swap1\n      pop\n        /* \"#utility.yul\":11253:11672   */\n      swap2\n      swap1\n      pop\n      jump\t// out\n\n    auxdata: 0xa26469706673582212207191fee9a2880ed9961ea0d25e6d9467df174ea01d6e046ef16c4adfefeb23b664736f6c634300081f0033\n}\n",
				"bytecode": {
					"linkReferences": {},
					"object": "6080604052348015600e575f5ffd5b50335f5f6101000a81548173ffffffffffffffffffffffffffffffffffffffff021916908373ffffffffffffffffffffffffffffffffffffffff1602179055506109bc8061005b5f395ff3fe608060405260043610610042575f3560e01c80630bc605ad1461004d578063310ec4a7146100895780633e5beab9146100b1578063be45fd62146100ed57610049565b3661004957005b5f5ffd5b348015610058575f5ffd5b50610073600480360381019061006e9190610434565b610129565b6040516100809190610479565b60405180910390f35b348015610094575f5ffd5b506100af60048036038101906100aa91906104c5565b610146565b005b3480156100bc575f5ffd5b506100d760048036038101906100d29190610434565b61014a565b6040516100e49190610512565b60405180910390f35b3480156100f8575f5ffd5b50610113600480360381019061010e91906106a2565b61015f565b604051610120919061076e565b60405180910390f35b6002602052805f5260405f205f915054906101000a900460ff1681565b5050565b6001602052805f5260405f205f915090505481565b60605f5f9054906101000a900473ffffffffffffffffffffffffffffffffffffffff1673ffffffffffffffffffffffffffffffffffffffff163373ffffffffffffffffffffffffffffffffffffffff16146103115760025f3373ffffffffffffffffffffffffffffffffffffffff1673ffffffffffffffffffffffffffffffffffffffff1681526020019081526020015f205f9054906101000a900460ff1661023d576040517f08c379a0000000000000000000000000000000000000000000000000000000008152600401610234906107e8565b60405180910390fd5b8260015f3373ffffffffffffffffffffffffffffffffffffffff1673ffffffffffffffffffffffffffffffffffffffff1681526020019081526020015f205410156102bd576040517f08c379a00000000000000000000000000000000000000000000000000000000081526004016102b490610850565b60405180910390fd5b8260015f3373ffffffffffffffffffffffffffffffffffffffff1673ffffffffffffffffffffffffffffffffffffffff1681526020019081526020015f205f828254610309919061089b565b925050819055505b5f5f8573ffffffffffffffffffffffffffffffffffffffff1685856040516103399190610908565b5f6040518083038185875af1925050503d805f8114610373576040519150601f19603f3d011682016040523d82523d5f602084013e610378565b606091505b5091509150816103bd576040517f08c379a00000000000000000000000000000000000000000000000000000000081526004016103b490610968565b60405180910390fd5b80925050509392505050565b5f604051905090565b5f5ffd5b5f5ffd5b5f73ffffffffffffffffffffffffffffffffffffffff82169050919050565b5f610403826103da565b9050919050565b610413816103f9565b811461041d575f5ffd5b50565b5f8135905061042e8161040a565b92915050565b5f60208284031215610449576104486103d2565b5b5f61045684828501610420565b91505092915050565b5f8115159050919050565b6104738161045f565b82525050565b5f60208201905061048c5f83018461046a565b92915050565b5f819050919050565b6104a481610492565b81146104ae575f5ffd5b50565b5f813590506104bf8161049b565b92915050565b5f5f604083850312156104db576104da6103d2565b5b5f6104e885828601610420565b92505060206104f9858286016104b1565b9150509250929050565b61050c81610492565b82525050565b5f6020820190506105255f830184610503565b92915050565b5f610535826103da565b9050919050565b6105458161052b565b811461054f575f5ffd5b50565b5f813590506105608161053c565b92915050565b5f5ffd5b5f5ffd5b5f601f19601f8301169050919050565b7f4e487b71000000000000000000000000000000000000000000000000000000005f52604160045260245ffd5b6105b48261056e565b810181811067ffffffffffffffff821117156105d3576105d261057e565b5b80604052505050565b5f6105e56103c9565b90506105f182826105ab565b919050565b5f67ffffffffffffffff8211156106105761060f61057e565b5b6106198261056e565b9050602081019050919050565b828183375f83830152505050565b5f610646610641846105f6565b6105dc565b9050828152602081018484840111156106625761066161056a565b5b61066d848285610626565b509392505050565b5f82601f83011261068957610688610566565b5b8135610699848260208601610634565b91505092915050565b5f5f5f606084860312156106b9576106b86103d2565b5b5f6106c686828701610552565b93505060206106d7868287016104b1565b925050604084013567ffffffffffffffff8111156106f8576106f76103d6565b5b61070486828701610675565b9150509250925092565b5f81519050919050565b5f82825260208201905092915050565b8281835e5f83830152505050565b5f6107408261070e565b61074a8185610718565b935061075a818560208601610728565b6107638161056e565b840191505092915050565b5f6020820190508181035f8301526107868184610736565b905092915050565b5f82825260208201905092915050565b7f596f7520617265206e6f7420616c6c6f77656420746f2073656e6400000000005f82015250565b5f6107d2601b8361078e565b91506107dd8261079e565b602082019050919050565b5f6020820190508181035f8301526107ff816107c6565b9050919050565b7f596f752068617665206e6f7420656e6f75676820616c6c6f77616e63650000005f82015250565b5f61083a601d8361078e565b915061084582610806565b602082019050919050565b5f6020820190508181035f8301526108678161082e565b9050919050565b7f4e487b71000000000000000000000000000000000000000000000000000000005f52601160045260245ffd5b5f6108a582610492565b91506108b083610492565b92508282039050818111156108c8576108c761086e565b5b92915050565b5f81905092915050565b5f6108e28261070e565b6108ec81856108ce565b93506108fc818560208601610728565b80840191505092915050565b5f61091382846108d8565b915081905092915050565b7f43616c6c20776173206e6f742073756365737366756c6c0000000000000000005f82015250565b5f61095260178361078e565b915061095d8261091e565b602082019050919050565b5f6020820190508181035f83015261097f81610946565b905091905056fea26469706673582212207191fee9a2880ed9961ea0d25e6d9467df174ea01d6e046ef16c4adfefeb23b664736f6c634300081f0033",
					"opcodes": "PUSH1 0x80 PUSH1 0x40 MSTORE CALLVALUE DUP1 ISZERO PUSH1 0xE JUMPI PUSH0 PUSH0 REVERT JUMPDEST POP CALLER PUSH0 PUSH0 PUSH2 0x100 EXP DUP2 SLOAD DUP2 PUSH20 0xFFFFFFFFFFFFFFFFFFFFFFFFFFFFFFFFFFFFFFFF MUL NOT AND SWAP1 DUP4 PUSH20 0xFFFFFFFFFFFFFFFFFFFFFFFFFFFFFFFFFFFFFFFF AND MUL OR SWAP1 SSTORE POP PUSH2 0x9BC DUP1 PUSH2 0x5B PUSH0 CODECOPY PUSH0 RETURN INVALID PUSH1 0x80 PUSH1 0x40 MSTORE PUSH1 0x4 CALLDATASIZE LT PUSH2 0x42 JUMPI PUSH0 CALLDATALOAD PUSH1 0xE0 SHR DUP1 PUSH4 0xBC605AD EQ PUSH2 0x4D JUMPI DUP1 PUSH4 0x310EC4A7 EQ PUSH2 0x89 JUMPI DUP1 PUSH4 0x3E5BEAB9 EQ PUSH2 0xB1 JUMPI DUP1 PUSH4 0xBE45FD62 EQ PUSH2 0xED JUMPI PUSH2 0x49 JUMP JUMPDEST CALLDATASIZE PUSH2 0x49 JUMPI STOP JUMPDEST PUSH0 PUSH0 REVERT JUMPDEST CALLVALUE DUP1 ISZERO PUSH2 0x58 JUMPI PUSH0 PUSH0 REVERT JUMPDEST POP PUSH2 0x73 PUSH1 0x4 DUP1 CALLDATASIZE SUB DUP2 ADD SWAP1 PUSH2 0x6E SWAP2 SWAP1 PUSH2 0x434 JUMP JUMPDEST PUSH2 0x129 JUMP JUMPDEST PUSH1 0x40 MLOAD PUSH2 0x80 SWAP2 SWAP1 PUSH2 0x479 JUMP JUMPDEST PUSH1 0x40 MLOAD DUP1 SWAP2 SUB SWAP1 RETURN JUMPDEST CALLVALUE DUP1 ISZERO PUSH2 0x94 JUMPI PUSH0 PUSH0 REVERT JUMPDEST POP PUSH2 0xAF PUSH1 0x4 DUP1 CALLDATASIZE SUB DUP2 ADD SWAP1 PUSH2 0xAA SWAP2 SWAP1 PUSH2 0x4C5 JUMP JUMPDEST PUSH2 0x146 JUMP JUMPDEST STOP JUMPDEST CALLVALUE DUP1 ISZERO PUSH2 0xBC JUMPI PUSH0 PUSH0 REVERT JUMPDEST POP PUSH2 0xD7 PUSH1 0x4 DUP1 CALLDATASIZE SUB DUP2 ADD SWAP1 PUSH2 0xD2 SWAP2 SWAP1 PUSH2 0x434 JUMP JUMPDEST PUSH2 0x14A JUMP JUMPDEST PUSH1 0x40 MLOAD PUSH2 0xE4 SWAP2 SWAP1 PUSH2 0x512 JUMP JUMPDEST PUSH1 0x40 MLOAD DUP1 SWAP2 SUB SWAP1 RETURN JUMPDEST CALLVALUE DUP1 ISZERO PUSH2 0xF8 JUMPI PUSH0 PUSH0 REVERT JUMPDEST POP PUSH2 0x113 PUSH1 0x4 DUP1 CALLDATASIZE SUB DUP2 ADD SWAP1 PUSH2 0x10E SWAP2 SWAP1 PUSH2 0x6A2 JUMP JUMPDEST PUSH2 0x15F JUMP JUMPDEST PUSH1 0x40 MLOAD PUSH2 0x120 SWAP2 SWAP1 PUSH2 0x76E JUMP JUMPDEST PUSH1 0x40 MLOAD DUP1 SWAP2 SUB SWAP1 RETURN JUMPDEST PUSH1 0x2 PUSH1 0x20 MSTORE DUP1 PUSH0 MSTORE PUSH1 0x40 PUSH0 KECCAK256 PUSH0 SWAP2 POP SLOAD SWAP1 PUSH2 0x100 EXP SWAP1 DIV PUSH1 0xFF AND DUP2 JUMP JUMPDEST POP POP JUMP JUMPDEST PUSH1 0x1 PUSH1 0x20 MSTORE DUP1 PUSH0 MSTORE PUSH1 0x40 PUSH0 KECCAK256 PUSH0 SWAP2 POP SWAP1 POP SLOAD DUP2 JUMP JUMPDEST PUSH1 0x60 PUSH0 PUSH0 SWAP1 SLOAD SWAP1 PUSH2 0x100 EXP SWAP1 DIV PUSH20 0xFFFFFFFFFFFFFFFFFFFFFFFFFFFFFFFFFFFFFFFF AND PUSH20 0xFFFFFFFFFFFFFFFFFFFFFFFFFFFFFFFFFFFFFFFF AND CALLER PUSH20 0xFFFFFFFFFFFFFFFFFFFFFFFFFFFFFFFFFFFFFFFF AND EQ PUSH2 0x311 JUMPI PUSH1 0x2 PUSH0 CALLER PUSH20 0xFFFFFFFFFFFFFFFFFFFFFFFFFFFFFFFFFFFFFFFF AND PUSH20 0xFFFFFFFFFFFFFFFFFFFFFFFFFFFFFFFFFFFFFFFF AND DUP2 MSTORE PUSH1 0x20 ADD SWAP1 DUP2 MSTORE PUSH1 0x20 ADD PUSH0 KECCAK256 PUSH0 SWAP1 SLOAD SWAP1 PUSH2 0x100 EXP SWAP1 DIV PUSH1 0xFF AND PUSH2 0x23D JUMPI PUSH1 0x40 MLOAD PUSH32 0x8C379A000000000000000000000000000000000000000000000000000000000 DUP2 MSTORE PUSH1 0x4 ADD PUSH2 0x234 SWAP1 PUSH2 0x7E8 JUMP JUMPDEST PUSH1 0x40 MLOAD DUP1 SWAP2 SUB SWAP1 REVERT JUMPDEST DUP3 PUSH1 0x1 PUSH0 CALLER PUSH20 0xFFFFFFFFFFFFFFFFFFFFFFFFFFFFFFFFFFFFFFFF AND PUSH20 0xFFFFFFFFFFFFFFFFFFFFFFFFFFFFFFFFFFFFFFFF AND DUP2 MSTORE PUSH1 0x20 ADD SWAP1 DUP2 MSTORE PUSH1 0x20 ADD PUSH0 KECCAK256 SLOAD LT ISZERO PUSH2 0x2BD JUMPI PUSH1 0x40 MLOAD PUSH32 0x8C379A000000000000000000000000000000000000000000000000000000000 DUP2 MSTORE PUSH1 0x4 ADD PUSH2 0x2B4 SWAP1 PUSH2 0x850 JUMP JUMPDEST PUSH1 0x40 MLOAD DUP1 SWAP2 SUB SWAP1 REVERT JUMPDEST DUP3 PUSH1 0x1 PUSH0 CALLER PUSH20 0xFFFFFFFFFFFFFFFFFFFFFFFFFFFFFFFFFFFFFFFF AND PUSH20 0xFFFFFFFFFFFFFFFFFFFFFFFFFFFFFFFFFFFFFFFF AND DUP2 MSTORE PUSH1 0x20 ADD SWAP1 DUP2 MSTORE PUSH1 0x20 ADD PUSH0 KECCAK256 PUSH0 DUP3 DUP3 SLOAD PUSH2 0x309 SWAP2 SWAP1 PUSH2 0x89B JUMP JUMPDEST SWAP3 POP POP DUP2 SWAP1 SSTORE POP JUMPDEST PUSH0 PUSH0 DUP6 PUSH20 0xFFFFFFFFFFFFFFFFFFFFFFFFFFFFFFFFFFFFFFFF AND DUP6 DUP6 PUSH1 0x40 MLOAD PUSH2 0x339 SWAP2 SWAP1 PUSH2 0x908 JUMP JUMPDEST PUSH0 PUSH1 0x40 MLOAD DUP1 DUP4 SUB DUP2 DUP6 DUP8 GAS CALL SWAP3 POP POP POP RETURNDATASIZE DUP1 PUSH0 DUP2 EQ PUSH2 0x373 JUMPI PUSH1 0x40 MLOAD SWAP2 POP PUSH1 0x1F NOT PUSH1 0x3F RETURNDATASIZE ADD AND DUP3 ADD PUSH1 0x40 MSTORE RETURNDATASIZE DUP3 MSTORE RETURNDATASIZE PUSH0 PUSH1 0x20 DUP5 ADD RETURNDATACOPY PUSH2 0x378 JUMP JUMPDEST PUSH1 0x60 SWAP2 POP JUMPDEST POP SWAP2 POP SWAP2 POP DUP2 PUSH2 0x3BD JUMPI PUSH1 0x40 MLOAD PUSH32 0x8C379A000000000000000000000000000000000000000000000000000000000 DUP2 MSTORE PUSH1 0x4 ADD PUSH2 0x3B4 SWAP1 PUSH2 0x968 JUMP JUMPDEST PUSH1 0x40 MLOAD DUP1 SWAP2 SUB SWAP1 REVERT JUMPDEST DUP1 SWAP3 POP POP POP SWAP4 SWAP3 POP POP POP JUMP JUMPDEST PUSH0 PUSH1 0x40 MLOAD SWAP1 POP SWAP1 JUMP JUMPDEST PUSH0 PUSH0 REVERT JUMPDEST PUSH0 PUSH0 REVERT JUMPDEST PUSH0 PUSH20 0xFFFFFFFFFFFFFFFFFFFFFFFFFFFFFFFFFFFFFFFF DUP3 AND SWAP1 POP SWAP2 SWAP1 POP JUMP JUMPDEST PUSH0 PUSH2 0x403 DUP3 PUSH2 0x3DA JUMP JUMPDEST SWAP1 POP SWAP2 SWAP1 POP JUMP JUMPDEST PUSH2 0x413 DUP2 PUSH2 0x3F9 JUMP JUMPDEST DUP2 EQ PUSH2 0x41D JUMPI PUSH0 PUSH0 REVERT JUMPDEST POP JUMP JUMPDEST PUSH0 DUP2 CALLDATALOAD SWAP1 POP PUSH2 0x42E DUP2 PUSH2 0x40A JUMP JUMPDEST SWAP3 SWAP2 POP POP JUMP JUMPDEST PUSH0 PUSH1 0x20 DUP3 DUP5 SUB SLT ISZERO PUSH2 0x449 JUMPI PUSH2 0x448 PUSH2 0x3D2 JUMP JUMPDEST JUMPDEST PUSH0 PUSH2 0x456 DUP5 DUP3 DUP6 ADD PUSH2 0x420 JUMP JUMPDEST SWAP2 POP POP SWAP3 SWAP2 POP POP JUMP JUMPDEST PUSH0 DUP2 ISZERO ISZERO SWAP1 POP SWAP2 SWAP1 POP JUMP JUMPDEST PUSH2 0x473 DUP2 PUSH2 0x45F JUMP JUMPDEST DUP3 MSTORE POP POP JUMP JUMPDEST PUSH0 PUSH1 0x20 DUP3 ADD SWAP1 POP PUSH2 0x48C PUSH0 DUP4 ADD DUP5 PUSH2 0x46A JUMP JUMPDEST SWAP3 SWAP2 POP POP JUMP JUMPDEST PUSH0 DUP2 SWAP1 POP SWAP2 SWAP1 POP JUMP JUMPDEST PUSH2 0x4A4 DUP2 PUSH2 0x492 JUMP JUMPDEST DUP2 EQ PUSH2 0x4AE JUMPI PUSH0 PUSH0 REVERT JUMPDEST POP JUMP JUMPDEST PUSH0 DUP2 CALLDATALOAD SWAP1 POP PUSH2 0x4BF DUP2 PUSH2 0x49B JUMP JUMPDEST SWAP3 SWAP2 POP POP JUMP JUMPDEST PUSH0 PUSH0 PUSH1 0x40 DUP4 DUP6 SUB SLT ISZERO PUSH2 0x4DB JUMPI PUSH2 0x4DA PUSH2 0x3D2 JUMP JUMPDEST JUMPDEST PUSH0 PUSH2 0x4E8 DUP6 DUP3 DUP7 ADD PUSH2 0x420 JUMP JUMPDEST SWAP3 POP POP PUSH1 0x20 PUSH2 0x4F9 DUP6 DUP3 DUP7 ADD PUSH2 0x4B1 JUMP JUMPDEST SWAP2 POP POP SWAP3 POP SWAP3 SWAP1 POP JUMP JUMPDEST PUSH2 0x50C DUP2 PUSH2 0x492 JUMP JUMPDEST DUP3 MSTORE POP POP JUMP JUMPDEST PUSH0 PUSH1 0x20 DUP3 ADD SWAP1 POP PUSH2 0x525 PUSH0 DUP4 ADD DUP5 PUSH2 0x503 JUMP JUMPDEST SWAP3 SWAP2 POP POP JUMP JUMPDEST PUSH0 PUSH2 0x535 DUP3 PUSH2 0x3DA JUMP JUMPDEST SWAP1 POP SWAP2 SWAP1 POP JUMP JUMPDEST PUSH2 0x545 DUP2 PUSH2 0x52B JUMP JUMPDEST DUP2 EQ PUSH2 0x54F JUMPI PUSH0 PUSH0 REVERT JUMPDEST POP JUMP JUMPDEST PUSH0 DUP2 CALLDATALOAD SWAP1 POP PUSH2 0x560 DUP2 PUSH2 0x53C JUMP JUMPDEST SWAP3 SWAP2 POP POP JUMP JUMPDEST PUSH0 PUSH0 REVERT JUMPDEST PUSH0 PUSH0 REVERT JUMPDEST PUSH0 PUSH1 0x1F NOT PUSH1 0x1F DUP4 ADD AND SWAP1 POP SWAP2 SWAP1 POP JUMP JUMPDEST PUSH32 0x4E487B7100000000000000000000000000000000000000000000000000000000 PUSH0 MSTORE PUSH1 0x41 PUSH1 0x4 MSTORE PUSH1 0x24 PUSH0 REVERT JUMPDEST PUSH2 0x5B4 DUP3 PUSH2 0x56E JUMP JUMPDEST DUP2 ADD DUP2 DUP2 LT PUSH8 0xFFFFFFFFFFFFFFFF DUP3 GT OR ISZERO PUSH2 0x5D3 JUMPI PUSH2 0x5D2 PUSH2 0x57E JUMP JUMPDEST JUMPDEST DUP1 PUSH1 0x40 MSTORE POP POP POP JUMP JUMPDEST PUSH0 PUSH2 0x5E5 PUSH2 0x3C9 JUMP JUMPDEST SWAP1 POP PUSH2 0x5F1 DUP3 DUP3 PUSH2 0x5AB JUMP JUMPDEST SWAP2 SWAP1 POP JUMP JUMPDEST PUSH0 PUSH8 0xFFFFFFFFFFFFFFFF DUP3 GT ISZERO PUSH2 0x610 JUMPI PUSH2 0x60F PUSH2 0x57E JUMP JUMPDEST JUMPDEST PUSH2 0x619 DUP3 PUSH2 0x56E JUMP JUMPDEST SWAP1 POP PUSH1 0x20 DUP2 ADD SWAP1 POP SWAP2 SWAP1 POP JUMP JUMPDEST DUP3 DUP2 DUP4 CALLDATACOPY PUSH0 DUP4 DUP4 ADD MSTORE POP POP POP JUMP JUMPDEST PUSH0 PUSH2 0x646 PUSH2 0x641 DUP5 PUSH2 0x5F6 JUMP JUMPDEST PUSH2 0x5DC JUMP JUMPDEST SWAP1 POP DUP3 DUP2 MSTORE PUSH1 0x20 DUP2 ADD DUP5 DUP5 DUP5 ADD GT ISZERO PUSH2 0x662 JUMPI PUSH2 0x661 PUSH2 0x56A JUMP JUMPDEST JUMPDEST PUSH2 0x66D DUP5 DUP3 DUP6 PUSH2 0x626 JUMP JUMPDEST POP SWAP4 SWAP3 POP POP POP JUMP JUMPDEST PUSH0 DUP3 PUSH1 0x1F DUP4 ADD SLT PUSH2 0x689 JUMPI PUSH2 0x688 PUSH2 0x566 JUMP JUMPDEST JUMPDEST DUP2 CALLDATALOAD PUSH2 0x699 DUP5 DUP3 PUSH1 0x20 DUP7 ADD PUSH2 0x634 JUMP JUMPDEST SWAP2 POP POP SWAP3 SWAP2 POP POP JUMP JUMPDEST PUSH0 PUSH0 PUSH0 PUSH1 0x60 DUP5 DUP7 SUB SLT ISZERO PUSH2 0x6B9 JUMPI PUSH2 0x6B8 PUSH2 0x3D2 JUMP JUMPDEST JUMPDEST PUSH0 PUSH2 0x6C6 DUP7 DUP3 DUP8 ADD PUSH2 0x552 JUMP JUMPDEST SWAP4 POP POP PUSH1 0x20 PUSH2 0x6D7 DUP7 DUP3 DUP8 ADD PUSH2 0x4B1 JUMP JUMPDEST SWAP3 POP POP PUSH1 0x40 DUP5 ADD CALLDATALOAD PUSH8 0xFFFFFFFFFFFFFFFF DUP2 GT ISZERO PUSH2 0x6F8 JUMPI PUSH2 0x6F7 PUSH2 0x3D6 JUMP JUMPDEST JUMPDEST PUSH2 0x704 DUP7 DUP3 DUP8 ADD PUSH2 0x675 JUMP JUMPDEST SWAP2 POP POP SWAP3 POP SWAP3 POP SWAP3 JUMP JUMPDEST PUSH0 DUP2 MLOAD SWAP1 POP SWAP2 SWAP1 POP JUMP JUMPDEST PUSH0 DUP3 DUP3 MSTORE PUSH1 0x20 DUP3 ADD SWAP1 POP SWAP3 SWAP2 POP POP JUMP JUMPDEST DUP3 DUP2 DUP4 MCOPY PUSH0 DUP4 DUP4 ADD MSTORE POP POP POP JUMP JUMPDEST PUSH0 PUSH2 0x740 DUP3 PUSH2 0x70E JUMP JUMPDEST PUSH2 0x74A DUP2 DUP6 PUSH2 0x718 JUMP JUMPDEST SWAP4 POP PUSH2 0x75A DUP2 DUP6 PUSH1 0x20 DUP7 ADD PUSH2 0x728 JUMP JUMPDEST PUSH2 0x763 DUP2 PUSH2 0x56E JUMP JUMPDEST DUP5 ADD SWAP2 POP POP SWAP3 SWAP2 POP POP JUMP JUMPDEST PUSH0 PUSH1 0x20 DUP3 ADD SWAP1 POP DUP2 DUP2 SUB PUSH0 DUP4 ADD MSTORE PUSH2 0x786 DUP2 DUP5 PUSH2 0x736 JUMP JUMPDEST SWAP1 POP SWAP3 SWAP2 POP POP JUMP JUMPDEST PUSH0 DUP3 DUP3 MSTORE PUSH1 0x20 DUP3 ADD SWAP1 POP SWAP3 SWAP2 POP POP JUMP JUMPDEST PUSH32 0x596F7520617265206E6F7420616C6C6F77656420746F2073656E640000000000 PUSH0 DUP3 ADD MSTORE POP JUMP JUMPDEST PUSH0 PUSH2 0x7D2 PUSH1 0x1B DUP4 PUSH2 0x78E JUMP JUMPDEST SWAP2 POP PUSH2 0x7DD DUP3 PUSH2 0x79E JUMP JUMPDEST PUSH1 0x20 DUP3 ADD SWAP1 POP SWAP2 SWAP1 POP JUMP JUMPDEST PUSH0 PUSH1 0x20 DUP3 ADD SWAP1 POP DUP2 DUP2 SUB PUSH0 DUP4 ADD MSTORE PUSH2 0x7FF DUP2 PUSH2 0x7C6 JUMP JUMPDEST SWAP1 POP SWAP2 SWAP1 POP JUMP JUMPDEST PUSH32 0x596F752068617665206E6F7420656E6F75676820616C6C6F77616E6365000000 PUSH0 DUP3 ADD MSTORE POP JUMP JUMPDEST PUSH0 PUSH2 0x83A PUSH1 0x1D DUP4 PUSH2 0x78E JUMP JUMPDEST SWAP2 POP PUSH2 0x845 DUP3 PUSH2 0x806 JUMP JUMPDEST PUSH1 0x20 DUP3 ADD SWAP1 POP SWAP2 SWAP1 POP JUMP JUMPDEST PUSH0 PUSH1 0x20 DUP3 ADD SWAP1 POP DUP2 DUP2 SUB PUSH0 DUP4 ADD MSTORE PUSH2 0x867 DUP2 PUSH2 0x82E JUMP JUMPDEST SWAP1 POP SWAP2 SWAP1 POP JUMP JUMPDEST PUSH32 0x4E487B7100000000000000000000000000000000000000000000000000000000 PUSH0 MSTORE PUSH1 0x11 PUSH1 0x4 MSTORE PUSH1 0x24 PUSH0 REVERT JUMPDEST PUSH0 PUSH2 0x8A5 DUP3 PUSH2 0x492 JUMP JUMPDEST SWAP2 POP PUSH2 0x8B0 DUP4 PUSH2 0x492 JUMP JUMPDEST SWAP3 POP DUP3 DUP3 SUB SWAP1 POP DUP2 DUP2 GT ISZERO PUSH2 0x8C8 JUMPI PUSH2 0x8C7 PUSH2 0x86E JUMP JUMPDEST JUMPDEST SWAP3 SWAP2 POP POP JUMP JUMPDEST PUSH0 DUP2 SWAP1 POP SWAP3 SWAP2 POP POP JUMP JUMPDEST PUSH0 PUSH2 0x8E2 DUP3 PUSH2 0x70E JUMP JUMPDEST PUSH2 0x8EC DUP2 DUP6 PUSH2 0x8CE JUMP JUMPDEST SWAP4 POP PUSH2 0x8FC DUP2 DUP6 PUSH1 0x20 DUP7 ADD PUSH2 0x728 JUMP JUMPDEST DUP1 DUP5 ADD SWAP2 POP POP SWAP3 SWAP2 POP POP JUMP JUMPDEST PUSH0 PUSH2 0x913 DUP3 DUP5 PUSH2 0x8D8 JUMP JUMPDEST SWAP2 POP DUP2 SWAP1 POP SWAP3 SWAP2 POP POP JUMP JUMPDEST PUSH32 0x43616C6C20776173206E6F742073756365737366756C6C000000000000000000 PUSH0 DUP3 ADD MSTORE POP JUMP JUMPDEST PUSH0 PUSH2 0x952 PUSH1 0x17 DUP4 PUSH2 0x78E JUMP JUMPDEST SWAP2 POP PUSH2 0x95D DUP3 PUSH2 0x91E JUMP JUMPDEST PUSH1 0x20 DUP3 ADD SWAP1 POP SWAP2 SWAP1 POP JUMP JUMPDEST PUSH0 PUSH1 0x20 DUP3 ADD SWAP1 POP DUP2 DUP2 SUB PUSH0 DUP4 ADD MSTORE PUSH2 0x97F DUP2 PUSH2 0x946 JUMP JUMPDEST SWAP1 POP SWAP2 SWAP1 POP JUMP INVALID LOG2 PUSH5 0x6970667358 0x22 SLT KECCAK256 PUSH18 0x91FEE9A2880ED9961EA0D25E6D9467DF174E LOG0 SAR PUSH15 0x46EF16C4ADFEFEB23B664736F6C63 NUMBER STOP ADDMOD 0x1F STOP CALLER "
				},
				"gasEstimates": {
					"creation": {
						"codeDepositCost": "498400",
						"executionCost": "24792",
						"totalCost": "523192"
					},
					"external": {
						"allowance(address)": "2824",
						"isAllowedToSend(address)": "2811",
						"setAllowance(address,uint256)": "619",
						"transfer(address,uint256,bytes)": "infinite"
					}
				},
				"methodIdentifiers": {
					"allowance(address)": "3e5beab9",
					"isAllowedToSend(address)": "0bc605ad",
					"setAllowance(address,uint256)": "310ec4a7",
					"transfer(address,uint256,bytes)": "be45fd62"
				}
			},
			"storageLayout": {
				"storage": [
					{
						"astId": 3,
						"contract": "Wallet/Wallet.sol:Wallet",
						"label": "owner",
						"offset": 0,
						"slot": "0",
						"type": "t_address_payable"
					},
					{
						"astId": 7,
						"contract": "Wallet/Wallet.sol:Wallet",
						"label": "allowance",
						"offset": 0,
						"slot": "1",
						"type": "t_mapping(t_address,t_uint256)"
					},
					{
						"astId": 11,
						"contract": "Wallet/Wallet.sol:Wallet",
						"label": "isAllowedToSend",
						"offset": 0,
						"slot": "2",
						"type": "t_mapping(t_address,t_bool)"
					}
				],
				"types": {
					"t_address": {
						"encoding": "inplace",
						"label": "address",
						"numberOfBytes": "20"
					},
					"t_address_payable": {
						"encoding": "inplace",
						"label": "address payable",
						"numberOfBytes": "20"
					},
					"t_bool": {
						"encoding": "inplace",
						"label": "bool",
						"numberOfBytes": "1"
					},
					"t_mapping(t_address,t_bool)": {
						"encoding": "mapping",
						"key": "t_address",
						"label": "mapping(address => bool)",
						"numberOfBytes": "32",
						"value": "t_bool"
					},
					"t_mapping(t_address,t_uint256)": {
						"encoding": "mapping",
						"key": "t_address",
						"label": "mapping(address => uint256)",
						"numberOfBytes": "32",
						"value": "t_uint256"
					},
					"t_uint256": {
						"encoding": "inplace",
						"label": "uint256",
						"numberOfBytes": "32"
					}
				}
			},
			"userdoc": {
				"kind": "user",
				"methods": {},
				"version": 1
			}
		}
	}
}