{
	"The Blockchain Messenger/TheBlockchainMessenger.sol": {
		"TheBlockchainMessenger": {
			"abi": [
				{
					"inputs": [],
					"stateMutability": "nonpayable",
					"type": "constructor"
				},
				{
					"inputs": [],
					"name": "changeCount",
					"outputs": [
						{
							"internalType": "uint256",
							"name": "",
							"type": "uint256"
						}
					],
					"stateMutability": "view",
					"type": "function"
				},
				{
					"inputs": [
						{
							"internalType": "string",
							"name": "_newMessage",
							"type": "string"
						}
					],
					"name": "getMessage",
					"outputs": [],
					"stateMutability": "nonpayable",
					"type": "function"
				},
				{
					"inputs": [],
					"name": "owner",
					"outputs": [
						{
							"internalType": "address",
							"name": "",
							"type": "address"
						}
					],
					"stateMutability": "view",
					"type": "function"
				},
				{
					"inputs": [],
					"name": "theMessage",
					"outputs": [
						{
							"internalType": "string",
							"name": "",
							"type": "string"
						}
					],
					"stateMutability": "view",
					"type": "function"
				}
			],
			"devdoc": {
				"kind": "dev",
				"methods": {},
				"version": 1
			},
			"evm": {
				"assembly": "    /* \"The Blockchain Messenger/TheBlockchainMessenger.sol\":61:429  contract TheBlockchainMessenger {... */\n  mstore(0x40, 0x80)\n    /* \"The Blockchain Messenger/TheBlockchainMessenger.sol\":193:243  constructor(){... */\n  callvalue\n  dup1\n  iszero\n  tag_1\n  jumpi\n  revert(0x00, 0x00)\ntag_1:\n  pop\n    /* \"The Blockchain Messenger/TheBlockchainMessenger.sol\":225:235  msg.sender */\n  caller\n    /* \"The Blockchain Messenger/TheBlockchainMessenger.sol\":217:222  owner */\n  0x01\n  0x00\n    /* \"The Blockchain Messenger/TheBlockchainMessenger.sol\":217:235  owner = msg.sender */\n  0x0100\n  exp\n  dup2\n  sload\n  dup2\n  0xffffffffffffffffffffffffffffffffffffffff\n  mul\n  not\n  and\n  swap1\n  dup4\n  0xffffffffffffffffffffffffffffffffffffffff\n  and\n  mul\n  or\n  swap1\n  sstore\n  pop\n    /* \"The Blockchain Messenger/TheBlockchainMessenger.sol\":61:429  contract TheBlockchainMessenger {... */\n  dataSize(sub_0)\n  dup1\n  dataOffset(sub_0)\n  0x00\n  codecopy\n  0x00\n  return\nstop\n\nsub_0: assembly {\n        /* \"The Blockchain Messenger/TheBlockchainMessenger.sol\":61:429  contract TheBlockchainMessenger {... */\n      mstore(0x40, 0x80)\n      callvalue\n      dup1\n      iszero\n      tag_1\n      jumpi\n      revert(0x00, 0x00)\n    tag_1:\n      pop\n      jumpi(tag_2, lt(calldatasize, 0x04))\n      shr(0xe0, calldataload(0x00))\n      dup1\n      0x0cc4e8d8\n      eq\n      tag_3\n      jumpi\n      dup1\n      0x67e8805f\n      eq\n      tag_4\n      jumpi\n      dup1\n      0x8da5cb5b\n      eq\n      tag_5\n      jumpi\n      dup1\n      0xf35f6447\n      eq\n      tag_6\n      jumpi\n    tag_2:\n      revert(0x00, 0x00)\n        /* \"The Blockchain Messenger/TheBlockchainMessenger.sol\":251:426  function getMessage(string memory _newMessage) public  {... */\n    tag_3:\n      tag_7\n      0x04\n      dup1\n      calldatasize\n      sub\n      dup2\n      add\n      swap1\n      tag_8\n      swap2\n      swap1\n      tag_9\n      jump\t// in\n    tag_8:\n      tag_10\n      jump\t// in\n    tag_7:\n      stop\n        /* \"The Blockchain Messenger/TheBlockchainMessenger.sol\":160:184  string public theMessage */\n    tag_4:\n      tag_11\n      tag_12\n      jump\t// in\n    tag_11:\n      mload(0x40)\n      tag_13\n      swap2\n      swap1\n      tag_14\n      jump\t// in\n    tag_13:\n      mload(0x40)\n      dup1\n      swap2\n      sub\n      swap1\n      return\n        /* \"The Blockchain Messenger/TheBlockchainMessenger.sol\":133:153  address public owner */\n    tag_5:\n      tag_15\n      tag_16\n      jump\t// in\n    tag_15:\n      mload(0x40)\n      tag_17\n      swap2\n      swap1\n      tag_18\n      jump\t// in\n    tag_17:\n      mload(0x40)\n      dup1\n      swap2\n      sub\n      swap1\n      return\n        /* \"The Blockchain Messenger/TheBlockchainMessenger.sol\":100:126  uint256 public changeCount */\n    tag_6:\n      tag_19\n      tag_20\n      jump\t// in\n    tag_19:\n      mload(0x40)\n      tag_21\n      swap2\n      swap1\n      tag_22\n      jump\t// in\n    tag_21:\n      mload(0x40)\n      dup1\n      swap2\n      sub\n      swap1\n      return\n        /* \"The Blockchain Messenger/TheBlockchainMessenger.sol\":251:426  function getMessage(string memory _newMessage) public  {... */\n    tag_10:\n        /* \"The Blockchain Messenger/TheBlockchainMessenger.sol\":329:339  msg.sender */\n      caller\n        /* \"The Blockchain Messenger/TheBlockchainMessenger.sol\":320:339  owner == msg.sender */\n      0xffffffffffffffffffffffffffffffffffffffff\n      and\n        /* \"The Blockchain Messenger/TheBlockchainMessenger.sol\":320:325  owner */\n      0x01\n      0x00\n      swap1\n      sload\n      swap1\n      0x0100\n      exp\n      swap1\n      div\n      0xffffffffffffffffffffffffffffffffffffffff\n      and\n        /* \"The Blockchain Messenger/TheBlockchainMessenger.sol\":320:339  owner == msg.sender */\n      0xffffffffffffffffffffffffffffffffffffffff\n      and\n      sub\n        /* \"The Blockchain Messenger/TheBlockchainMessenger.sol\":317:419  if(owner == msg.sender){... */\n      tag_24\n      jumpi\n        /* \"The Blockchain Messenger/TheBlockchainMessenger.sol\":355:366  changeCount */\n      0x00\n      0x00\n        /* \"The Blockchain Messenger/TheBlockchainMessenger.sol\":355:368  changeCount++ */\n      dup2\n      sload\n      dup1\n      swap3\n      swap2\n      swap1\n      tag_25\n      swap1\n      tag_26\n      jump\t// in\n    tag_25:\n      swap2\n      swap1\n      pop\n      sstore\n      pop\n        /* \"The Blockchain Messenger/TheBlockchainMessenger.sol\":396:407  _newMessage */\n      dup1\n        /* \"The Blockchain Messenger/TheBlockchainMessenger.sol\":383:393  theMessage */\n      0x02\n        /* \"The Blockchain Messenger/TheBlockchainMessenger.sol\":383:407  theMessage = _newMessage */\n      swap1\n      dup2\n      tag_27\n      swap2\n      swap1\n      tag_28\n      jump\t// in\n    tag_27:\n      pop\n        /* \"The Blockchain Messenger/TheBlockchainMessenger.sol\":317:419  if(owner == msg.sender){... */\n    tag_24:\n        /* \"The Blockchain Messenger/TheBlockchainMessenger.sol\":251:426  function getMessage(string memory _newMessage) public  {... */\n      pop\n      jump\t// out\n        /* \"The Blockchain Messenger/TheBlockchainMessenger.sol\":160:184  string public theMessage */\n    tag_12:\n      0x02\n      dup1\n      sload\n      tag_29\n      swap1\n      tag_30\n      jump\t// in\n    tag_29:\n      dup1\n      0x1f\n      add\n      0x20\n      dup1\n      swap2\n      div\n      mul\n      0x20\n      add\n      mload(0x40)\n      swap1\n      dup2\n      add\n      0x40\n      mstore\n      dup1\n      swap3\n      swap2\n      swap1\n      dup2\n      dup2\n      mstore\n      0x20\n      add\n      dup3\n      dup1\n      sload\n      tag_31\n      swap1\n      tag_30\n      jump\t// in\n    tag_31:\n      dup1\n      iszero\n      tag_32\n      jumpi\n      dup1\n      0x1f\n      lt\n      tag_33\n      jumpi\n      0x0100\n      dup1\n      dup4\n      sload\n      div\n      mul\n      dup4\n      mstore\n      swap2\n      0x20\n      add\n      swap2\n      jump(tag_32)\n    tag_33:\n      dup3\n      add\n      swap2\n      swap1\n      0x00\n      mstore\n      keccak256(0x00, 0x20)\n      swap1\n    tag_34:\n      dup2\n      sload\n      dup2\n      mstore\n      swap1\n      0x01\n      add\n      swap1\n      0x20\n      add\n      dup1\n      dup4\n      gt\n      tag_34\n      jumpi\n      dup3\n      swap1\n      sub\n      0x1f\n      and\n      dup3\n      add\n      swap2\n    tag_32:\n      pop\n      pop\n      pop\n      pop\n      pop\n      dup2\n      jump\t// out\n        /* \"The Blockchain Messenger/TheBlockchainMessenger.sol\":133:153  address public owner */\n    tag_16:\n      0x01\n      0x00\n      swap1\n      sload\n      swap1\n      0x0100\n      exp\n      swap1\n      div\n      0xffffffffffffffffffffffffffffffffffffffff\n      and\n      dup2\n      jump\t// out\n        /* \"The Blockchain Messenger/TheBlockchainMessenger.sol\":100:126  uint256 public changeCount */\n    tag_20:\n      sload(0x00)\n      dup2\n      jump\t// out\n        /* \"#utility.yul\":7:82   */\n    tag_35:\n        /* \"#utility.yul\":40:46   */\n      0x00\n        /* \"#utility.yul\":73:75   */\n      0x40\n        /* \"#utility.yul\":67:76   */\n      mload\n        /* \"#utility.yul\":57:76   */\n      swap1\n      pop\n        /* \"#utility.yul\":7:82   */\n      swap1\n      jump\t// out\n        /* \"#utility.yul\":88:205   */\n    tag_36:\n        /* \"#utility.yul\":197:198   */\n      0x00\n        /* \"#utility.yul\":194:195   */\n      0x00\n        /* \"#utility.yul\":187:199   */\n      revert\n        /* \"#utility.yul\":211:328   */\n    tag_37:\n        /* \"#utility.yul\":320:321   */\n      0x00\n        /* \"#utility.yul\":317:318   */\n      0x00\n        /* \"#utility.yul\":310:322   */\n      revert\n        /* \"#utility.yul\":334:451   */\n    tag_38:\n        /* \"#utility.yul\":443:444   */\n      0x00\n        /* \"#utility.yul\":440:441   */\n      0x00\n        /* \"#utility.yul\":433:445   */\n      revert\n        /* \"#utility.yul\":457:574   */\n    tag_39:\n        /* \"#utility.yul\":566:567   */\n      0x00\n        /* \"#utility.yul\":563:564   */\n      0x00\n        /* \"#utility.yul\":556:568   */\n      revert\n        /* \"#utility.yul\":580:682   */\n    tag_40:\n        /* \"#utility.yul\":621:627   */\n      0x00\n        /* \"#utility.yul\":672:674   */\n      0x1f\n        /* \"#utility.yul\":668:675   */\n      not\n        /* \"#utility.yul\":663:665   */\n      0x1f\n        /* \"#utility.yul\":656:661   */\n      dup4\n        /* \"#utility.yul\":652:666   */\n      add\n        /* \"#utility.yul\":648:676   */\n      and\n        /* \"#utility.yul\":638:676   */\n      swap1\n      pop\n        /* \"#utility.yul\":580:682   */\n      swap2\n      swap1\n      pop\n      jump\t// out\n        /* \"#utility.yul\":688:868   */\n    tag_41:\n        /* \"#utility.yul\":736:813   */\n      0x4e487b7100000000000000000000000000000000000000000000000000000000\n        /* \"#utility.yul\":733:734   */\n      0x00\n        /* \"#utility.yul\":726:814   */\n      mstore\n        /* \"#utility.yul\":833:837   */\n      0x41\n        /* \"#utility.yul\":830:831   */\n      0x04\n        /* \"#utility.yul\":823:838   */\n      mstore\n        /* \"#utility.yul\":857:861   */\n      0x24\n        /* \"#utility.yul\":854:855   */\n      0x00\n        /* \"#utility.yul\":847:862   */\n      revert\n        /* \"#utility.yul\":874:1155   */\n    tag_42:\n        /* \"#utility.yul\":957:984   */\n      tag_83\n        /* \"#utility.yul\":979:983   */\n      dup3\n        /* \"#utility.yul\":957:984   */\n      tag_40\n      jump\t// in\n    tag_83:\n        /* \"#utility.yul\":949:955   */\n      dup2\n        /* \"#utility.yul\":945:985   */\n      add\n        /* \"#utility.yul\":1087:1093   */\n      dup2\n        /* \"#utility.yul\":1075:1085   */\n      dup2\n        /* \"#utility.yul\":1072:1094   */\n      lt\n        /* \"#utility.yul\":1051:1069   */\n      0xffffffffffffffff\n        /* \"#utility.yul\":1039:1049   */\n      dup3\n        /* \"#utility.yul\":1036:1070   */\n      gt\n        /* \"#utility.yul\":1033:1095   */\n      or\n        /* \"#utility.yul\":1030:1118   */\n      iszero\n      tag_84\n      jumpi\n        /* \"#utility.yul\":1098:1116   */\n      tag_85\n      tag_41\n      jump\t// in\n    tag_85:\n        /* \"#utility.yul\":1030:1118   */\n    tag_84:\n        /* \"#utility.yul\":1138:1148   */\n      dup1\n        /* \"#utility.yul\":1134:1136   */\n      0x40\n        /* \"#utility.yul\":1127:1149   */\n      mstore\n        /* \"#utility.yul\":917:1155   */\n      pop\n        /* \"#utility.yul\":874:1155   */\n      pop\n      pop\n      jump\t// out\n        /* \"#utility.yul\":1161:1290   */\n    tag_43:\n        /* \"#utility.yul\":1195:1201   */\n      0x00\n        /* \"#utility.yul\":1222:1242   */\n      tag_87\n      tag_35\n      jump\t// in\n    tag_87:\n        /* \"#utility.yul\":1212:1242   */\n      swap1\n      pop\n        /* \"#utility.yul\":1251:1284   */\n      tag_88\n        /* \"#utility.yul\":1279:1283   */\n      dup3\n        /* \"#utility.yul\":1271:1277   */\n      dup3\n        /* \"#utility.yul\":1251:1284   */\n      tag_42\n      jump\t// in\n    tag_88:\n        /* \"#utility.yul\":1161:1290   */\n      swap2\n      swap1\n      pop\n      jump\t// out\n        /* \"#utility.yul\":1296:1604   */\n    tag_44:\n        /* \"#utility.yul\":1358:1362   */\n      0x00\n        /* \"#utility.yul\":1448:1466   */\n      0xffffffffffffffff\n        /* \"#utility.yul\":1440:1446   */\n      dup3\n        /* \"#utility.yul\":1437:1467   */\n      gt\n        /* \"#utility.yul\":1434:1490   */\n      iszero\n      tag_90\n      jumpi\n        /* \"#utility.yul\":1470:1488   */\n      tag_91\n      tag_41\n      jump\t// in\n    tag_91:\n        /* \"#utility.yul\":1434:1490   */\n    tag_90:\n        /* \"#utility.yul\":1508:1537   */\n      tag_92\n        /* \"#utility.yul\":1530:1536   */\n      dup3\n        /* \"#utility.yul\":1508:1537   */\n      tag_40\n      jump\t// in\n    tag_92:\n        /* \"#utility.yul\":1500:1537   */\n      swap1\n      pop\n        /* \"#utility.yul\":1592:1596   */\n      0x20\n        /* \"#utility.yul\":1586:1590   */\n      dup2\n        /* \"#utility.yul\":1582:1597   */\n      add\n        /* \"#utility.yul\":1574:1597   */\n      swap1\n      pop\n        /* \"#utility.yul\":1296:1604   */\n      swap2\n      swap1\n      pop\n      jump\t// out\n        /* \"#utility.yul\":1610:1758   */\n    tag_45:\n        /* \"#utility.yul\":1708:1714   */\n      dup3\n        /* \"#utility.yul\":1703:1706   */\n      dup2\n        /* \"#utility.yul\":1698:1701   */\n      dup4\n        /* \"#utility.yul\":1685:1715   */\n      calldatacopy\n        /* \"#utility.yul\":1749:1750   */\n      0x00\n        /* \"#utility.yul\":1740:1746   */\n      dup4\n        /* \"#utility.yul\":1735:1738   */\n      dup4\n        /* \"#utility.yul\":1731:1747   */\n      add\n        /* \"#utility.yul\":1724:1751   */\n      mstore\n        /* \"#utility.yul\":1610:1758   */\n      pop\n      pop\n      pop\n      jump\t// out\n        /* \"#utility.yul\":1764:2189   */\n    tag_46:\n        /* \"#utility.yul\":1842:1847   */\n      0x00\n        /* \"#utility.yul\":1867:1933   */\n      tag_95\n        /* \"#utility.yul\":1883:1932   */\n      tag_96\n        /* \"#utility.yul\":1925:1931   */\n      dup5\n        /* \"#utility.yul\":1883:1932   */\n      tag_44\n      jump\t// in\n    tag_96:\n        /* \"#utility.yul\":1867:1933   */\n      tag_43\n      jump\t// in\n    tag_95:\n        /* \"#utility.yul\":1858:1933   */\n      swap1\n      pop\n        /* \"#utility.yul\":1956:1962   */\n      dup3\n        /* \"#utility.yul\":1949:1954   */\n      dup2\n        /* \"#utility.yul\":1942:1963   */\n      mstore\n        /* \"#utility.yul\":1994:1998   */\n      0x20\n        /* \"#utility.yul\":1987:1992   */\n      dup2\n        /* \"#utility.yul\":1983:1999   */\n      add\n        /* \"#utility.yul\":2032:2035   */\n      dup5\n        /* \"#utility.yul\":2023:2029   */\n      dup5\n        /* \"#utility.yul\":2018:2021   */\n      dup5\n        /* \"#utility.yul\":2014:2030   */\n      add\n        /* \"#utility.yul\":2011:2036   */\n      gt\n        /* \"#utility.yul\":2008:2120   */\n      iszero\n      tag_97\n      jumpi\n        /* \"#utility.yul\":2039:2118   */\n      tag_98\n      tag_39\n      jump\t// in\n    tag_98:\n        /* \"#utility.yul\":2008:2120   */\n    tag_97:\n        /* \"#utility.yul\":2129:2183   */\n      tag_99\n        /* \"#utility.yul\":2176:2182   */\n      dup5\n        /* \"#utility.yul\":2171:2174   */\n      dup3\n        /* \"#utility.yul\":2166:2169   */\n      dup6\n        /* \"#utility.yul\":2129:2183   */\n      tag_45\n      jump\t// in\n    tag_99:\n        /* \"#utility.yul\":1848:2189   */\n      pop\n        /* \"#utility.yul\":1764:2189   */\n      swap4\n      swap3\n      pop\n      pop\n      pop\n      jump\t// out\n        /* \"#utility.yul\":2209:2549   */\n    tag_47:\n        /* \"#utility.yul\":2265:2270   */\n      0x00\n        /* \"#utility.yul\":2314:2317   */\n      dup3\n        /* \"#utility.yul\":2307:2311   */\n      0x1f\n        /* \"#utility.yul\":2299:2305   */\n      dup4\n        /* \"#utility.yul\":2295:2312   */\n      add\n        /* \"#utility.yul\":2291:2318   */\n      slt\n        /* \"#utility.yul\":2281:2403   */\n      tag_101\n      jumpi\n        /* \"#utility.yul\":2322:2401   */\n      tag_102\n      tag_38\n      jump\t// in\n    tag_102:\n        /* \"#utility.yul\":2281:2403   */\n    tag_101:\n        /* \"#utility.yul\":2439:2445   */\n      dup2\n        /* \"#utility.yul\":2426:2446   */\n      calldataload\n        /* \"#utility.yul\":2464:2543   */\n      tag_103\n        /* \"#utility.yul\":2539:2542   */\n      dup5\n        /* \"#utility.yul\":2531:2537   */\n      dup3\n        /* \"#utility.yul\":2524:2528   */\n      0x20\n        /* \"#utility.yul\":2516:2522   */\n      dup7\n        /* \"#utility.yul\":2512:2529   */\n      add\n        /* \"#utility.yul\":2464:2543   */\n      tag_46\n      jump\t// in\n    tag_103:\n        /* \"#utility.yul\":2455:2543   */\n      swap2\n      pop\n        /* \"#utility.yul\":2271:2549   */\n      pop\n        /* \"#utility.yul\":2209:2549   */\n      swap3\n      swap2\n      pop\n      pop\n      jump\t// out\n        /* \"#utility.yul\":2555:3064   */\n    tag_9:\n        /* \"#utility.yul\":2624:2630   */\n      0x00\n        /* \"#utility.yul\":2673:2675   */\n      0x20\n        /* \"#utility.yul\":2661:2670   */\n      dup3\n        /* \"#utility.yul\":2652:2659   */\n      dup5\n        /* \"#utility.yul\":2648:2671   */\n      sub\n        /* \"#utility.yul\":2644:2676   */\n      slt\n        /* \"#utility.yul\":2641:2760   */\n      iszero\n      tag_105\n      jumpi\n        /* \"#utility.yul\":2679:2758   */\n      tag_106\n      tag_36\n      jump\t// in\n    tag_106:\n        /* \"#utility.yul\":2641:2760   */\n    tag_105:\n        /* \"#utility.yul\":2827:2828   */\n      0x00\n        /* \"#utility.yul\":2816:2825   */\n      dup3\n        /* \"#utility.yul\":2812:2829   */\n      add\n        /* \"#utility.yul\":2799:2830   */\n      calldataload\n        /* \"#utility.yul\":2857:2875   */\n      0xffffffffffffffff\n        /* \"#utility.yul\":2849:2855   */\n      dup2\n        /* \"#utility.yul\":2846:2876   */\n      gt\n        /* \"#utility.yul\":2843:2960   */\n      iszero\n      tag_107\n      jumpi\n        /* \"#utility.yul\":2879:2958   */\n      tag_108\n      tag_37\n      jump\t// in\n    tag_108:\n        /* \"#utility.yul\":2843:2960   */\n    tag_107:\n        /* \"#utility.yul\":2984:3047   */\n      tag_109\n        /* \"#utility.yul\":3039:3046   */\n      dup5\n        /* \"#utility.yul\":3030:3036   */\n      dup3\n        /* \"#utility.yul\":3019:3028   */\n      dup6\n        /* \"#utility.yul\":3015:3037   */\n      add\n        /* \"#utility.yul\":2984:3047   */\n      tag_47\n      jump\t// in\n    tag_109:\n        /* \"#utility.yul\":2974:3047   */\n      swap2\n      pop\n        /* \"#utility.yul\":2770:3057   */\n      pop\n        /* \"#utility.yul\":2555:3064   */\n      swap3\n      swap2\n      pop\n      pop\n      jump\t// out\n        /* \"#utility.yul\":3070:3169   */\n    tag_48:\n        /* \"#utility.yul\":3122:3128   */\n      0x00\n        /* \"#utility.yul\":3156:3161   */\n      dup2\n        /* \"#utility.yul\":3150:3162   */\n      mload\n        /* \"#utility.yul\":3140:3162   */\n      swap1\n      pop\n        /* \"#utility.yul\":3070:3169   */\n      swap2\n      swap1\n      pop\n      jump\t// out\n        /* \"#utility.yul\":3175:3344   */\n    tag_49:\n        /* \"#utility.yul\":3259:3270   */\n      0x00\n        /* \"#utility.yul\":3293:3299   */\n      dup3\n        /* \"#utility.yul\":3288:3291   */\n      dup3\n        /* \"#utility.yul\":3281:3300   */\n      mstore\n        /* \"#utility.yul\":3333:3337   */\n      0x20\n        /* \"#utility.yul\":3328:3331   */\n      dup3\n        /* \"#utility.yul\":3324:3338   */\n      add\n        /* \"#utility.yul\":3309:3338   */\n      swap1\n      pop\n        /* \"#utility.yul\":3175:3344   */\n      swap3\n      swap2\n      pop\n      pop\n      jump\t// out\n        /* \"#utility.yul\":3350:3489   */\n    tag_50:\n        /* \"#utility.yul\":3439:3445   */\n      dup3\n        /* \"#utility.yul\":3434:3437   */\n      dup2\n        /* \"#utility.yul\":3429:3432   */\n      dup4\n        /* \"#utility.yul\":3423:3446   */\n      mcopy\n        /* \"#utility.yul\":3480:3481   */\n      0x00\n        /* \"#utility.yul\":3471:3477   */\n      dup4\n        /* \"#utility.yul\":3466:3469   */\n      dup4\n        /* \"#utility.yul\":3462:3478   */\n      add\n        /* \"#utility.yul\":3455:3482   */\n      mstore\n        /* \"#utility.yul\":3350:3489   */\n      pop\n      pop\n      pop\n      jump\t// out\n        /* \"#utility.yul\":3495:3872   */\n    tag_51:\n        /* \"#utility.yul\":3583:3586   */\n      0x00\n        /* \"#utility.yul\":3611:3650   */\n      tag_114\n        /* \"#utility.yul\":3644:3649   */\n      dup3\n        /* \"#utility.yul\":3611:3650   */\n      tag_48\n      jump\t// in\n    tag_114:\n        /* \"#utility.yul\":3666:3737   */\n      tag_115\n        /* \"#utility.yul\":3730:3736   */\n      dup2\n        /* \"#utility.yul\":3725:3728   */\n      dup6\n        /* \"#utility.yul\":3666:3737   */\n      tag_49\n      jump\t// in\n    tag_115:\n        /* \"#utility.yul\":3659:3737   */\n      swap4\n      pop\n        /* \"#utility.yul\":3746:3811   */\n      tag_116\n        /* \"#utility.yul\":3804:3810   */\n      dup2\n        /* \"#utility.yul\":3799:3802   */\n      dup6\n        /* \"#utility.yul\":3792:3796   */\n      0x20\n        /* \"#utility.yul\":3785:3790   */\n      dup7\n        /* \"#utility.yul\":3781:3797   */\n      add\n        /* \"#utility.yul\":3746:3811   */\n      tag_50\n      jump\t// in\n    tag_116:\n        /* \"#utility.yul\":3836:3865   */\n      tag_117\n        /* \"#utility.yul\":3858:3864   */\n      dup2\n        /* \"#utility.yul\":3836:3865   */\n      tag_40\n      jump\t// in\n    tag_117:\n        /* \"#utility.yul\":3831:3834   */\n      dup5\n        /* \"#utility.yul\":3827:3866   */\n      add\n        /* \"#utility.yul\":3820:3866   */\n      swap2\n      pop\n        /* \"#utility.yul\":3587:3872   */\n      pop\n        /* \"#utility.yul\":3495:3872   */\n      swap3\n      swap2\n      pop\n      pop\n      jump\t// out\n        /* \"#utility.yul\":3878:4191   */\n    tag_14:\n        /* \"#utility.yul\":3991:3995   */\n      0x00\n        /* \"#utility.yul\":4029:4031   */\n      0x20\n        /* \"#utility.yul\":4018:4027   */\n      dup3\n        /* \"#utility.yul\":4014:4032   */\n      add\n        /* \"#utility.yul\":4006:4032   */\n      swap1\n      pop\n        /* \"#utility.yul\":4078:4087   */\n      dup2\n        /* \"#utility.yul\":4072:4076   */\n      dup2\n        /* \"#utility.yul\":4068:4088   */\n      sub\n        /* \"#utility.yul\":4064:4065   */\n      0x00\n        /* \"#utility.yul\":4053:4062   */\n      dup4\n        /* \"#utility.yul\":4049:4066   */\n      add\n        /* \"#utility.yul\":4042:4089   */\n      mstore\n        /* \"#utility.yul\":4106:4184   */\n      tag_119\n        /* \"#utility.yul\":4179:4183   */\n      dup2\n        /* \"#utility.yul\":4170:4176   */\n      dup5\n        /* \"#utility.yul\":4106:4184   */\n      tag_51\n      jump\t// in\n    tag_119:\n        /* \"#utility.yul\":4098:4184   */\n      swap1\n      pop\n        /* \"#utility.yul\":3878:4191   */\n      swap3\n      swap2\n      pop\n      pop\n      jump\t// out\n        /* \"#utility.yul\":4197:4323   */\n    tag_52:\n        /* \"#utility.yul\":4234:4241   */\n      0x00\n        /* \"#utility.yul\":4274:4316   */\n      0xffffffffffffffffffffffffffffffffffffffff\n        /* \"#utility.yul\":4267:4272   */\n      dup3\n        /* \"#utility.yul\":4263:4317   */\n      and\n        /* \"#utility.yul\":4252:4317   */\n      swap1\n      pop\n        /* \"#utility.yul\":4197:4323   */\n      swap2\n      swap1\n      pop\n      jump\t// out\n        /* \"#utility.yul\":4329:4425   */\n    tag_53:\n        /* \"#utility.yul\":4366:4373   */\n      0x00\n        /* \"#utility.yul\":4395:4419   */\n      tag_122\n        /* \"#utility.yul\":4413:4418   */\n      dup3\n        /* \"#utility.yul\":4395:4419   */\n      tag_52\n      jump\t// in\n    tag_122:\n        /* \"#utility.yul\":4384:4419   */\n      swap1\n      pop\n        /* \"#utility.yul\":4329:4425   */\n      swap2\n      swap1\n      pop\n      jump\t// out\n        /* \"#utility.yul\":4431:4549   */\n    tag_54:\n        /* \"#utility.yul\":4518:4542   */\n      tag_124\n        /* \"#utility.yul\":4536:4541   */\n      dup2\n        /* \"#utility.yul\":4518:4542   */\n      tag_53\n      jump\t// in\n    tag_124:\n        /* \"#utility.yul\":4513:4516   */\n      dup3\n        /* \"#utility.yul\":4506:4543   */\n      mstore\n        /* \"#utility.yul\":4431:4549   */\n      pop\n      pop\n      jump\t// out\n        /* \"#utility.yul\":4555:4777   */\n    tag_18:\n        /* \"#utility.yul\":4648:4652   */\n      0x00\n        /* \"#utility.yul\":4686:4688   */\n      0x20\n        /* \"#utility.yul\":4675:4684   */\n      dup3\n        /* \"#utility.yul\":4671:4689   */\n      add\n        /* \"#utility.yul\":4663:4689   */\n      swap1\n      pop\n        /* \"#utility.yul\":4699:4770   */\n      tag_126\n        /* \"#utility.yul\":4767:4768   */\n      0x00\n        /* \"#utility.yul\":4756:4765   */\n      dup4\n        /* \"#utility.yul\":4752:4769   */\n      add\n        /* \"#utility.yul\":4743:4749   */\n      dup5\n        /* \"#utility.yul\":4699:4770   */\n      tag_54\n      jump\t// in\n    tag_126:\n        /* \"#utility.yul\":4555:4777   */\n      swap3\n      swap2\n      pop\n      pop\n      jump\t// out\n        /* \"#utility.yul\":4783:4860   */\n    tag_55:\n        /* \"#utility.yul\":4820:4827   */\n      0x00\n        /* \"#utility.yul\":4849:4854   */\n      dup2\n        /* \"#utility.yul\":4838:4854   */\n      swap1\n      pop\n        /* \"#utility.yul\":4783:4860   */\n      swap2\n      swap1\n      pop\n      jump\t// out\n        /* \"#utility.yul\":4866:4984   */\n    tag_56:\n        /* \"#utility.yul\":4953:4977   */\n      tag_129\n        /* \"#utility.yul\":4971:4976   */\n      dup2\n        /* \"#utility.yul\":4953:4977   */\n      tag_55\n      jump\t// in\n    tag_129:\n        /* \"#utility.yul\":4948:4951   */\n      dup3\n        /* \"#utility.yul\":4941:4978   */\n      mstore\n        /* \"#utility.yul\":4866:4984   */\n      pop\n      pop\n      jump\t// out\n        /* \"#utility.yul\":4990:5212   */\n    tag_22:\n        /* \"#utility.yul\":5083:5087   */\n      0x00\n        /* \"#utility.yul\":5121:5123   */\n      0x20\n        /* \"#utility.yul\":5110:5119   */\n      dup3\n        /* \"#utility.yul\":5106:5124   */\n      add\n        /* \"#utility.yul\":5098:5124   */\n      swap1\n      pop\n        /* \"#utility.yul\":5134:5205   */\n      tag_131\n        /* \"#utility.yul\":5202:5203   */\n      0x00\n        /* \"#utility.yul\":5191:5200   */\n      dup4\n        /* \"#utility.yul\":5187:5204   */\n      add\n        /* \"#utility.yul\":5178:5184   */\n      dup5\n        /* \"#utility.yul\":5134:5205   */\n      tag_56\n      jump\t// in\n    tag_131:\n        /* \"#utility.yul\":4990:5212   */\n      swap3\n      swap2\n      pop\n      pop\n      jump\t// out\n        /* \"#utility.yul\":5218:5398   */\n    tag_57:\n        /* \"#utility.yul\":5266:5343   */\n      0x4e487b7100000000000000000000000000000000000000000000000000000000\n        /* \"#utility.yul\":5263:5264   */\n      0x00\n        /* \"#utility.yul\":5256:5344   */\n      mstore\n        /* \"#utility.yul\":5363:5367   */\n      0x11\n        /* \"#utility.yul\":5360:5361   */\n      0x04\n        /* \"#utility.yul\":5353:5368   */\n      mstore\n        /* \"#utility.yul\":5387:5391   */\n      0x24\n        /* \"#utility.yul\":5384:5385   */\n      0x00\n        /* \"#utility.yul\":5377:5392   */\n      revert\n        /* \"#utility.yul\":5404:5637   */\n    tag_26:\n        /* \"#utility.yul\":5443:5446   */\n      0x00\n        /* \"#utility.yul\":5466:5490   */\n      tag_134\n        /* \"#utility.yul\":5484:5489   */\n      dup3\n        /* \"#utility.yul\":5466:5490   */\n      tag_55\n      jump\t// in\n    tag_134:\n        /* \"#utility.yul\":5457:5490   */\n      swap2\n      pop\n        /* \"#utility.yul\":5512:5578   */\n      0xffffffffffffffffffffffffffffffffffffffffffffffffffffffffffffffff\n        /* \"#utility.yul\":5505:5510   */\n      dup3\n        /* \"#utility.yul\":5502:5579   */\n      sub\n        /* \"#utility.yul\":5499:5602   */\n      tag_135\n      jumpi\n        /* \"#utility.yul\":5582:5600   */\n      tag_136\n      tag_57\n      jump\t// in\n    tag_136:\n        /* \"#utility.yul\":5499:5602   */\n    tag_135:\n        /* \"#utility.yul\":5629:5630   */\n      0x01\n        /* \"#utility.yul\":5622:5627   */\n      dup3\n        /* \"#utility.yul\":5618:5631   */\n      add\n        /* \"#utility.yul\":5611:5631   */\n      swap1\n      pop\n        /* \"#utility.yul\":5404:5637   */\n      swap2\n      swap1\n      pop\n      jump\t// out\n        /* \"#utility.yul\":5643:5823   */\n    tag_58:\n        /* \"#utility.yul\":5691:5768   */\n      0x4e487b7100000000000000000000000000000000000000000000000000000000\n        /* \"#utility.yul\":5688:5689   */\n      0x00\n        /* \"#utility.yul\":5681:5769   */\n      mstore\n        /* \"#utility.yul\":5788:5792   */\n      0x22\n        /* \"#utility.yul\":5785:5786   */\n      0x04\n        /* \"#utility.yul\":5778:5793   */\n      mstore\n        /* \"#utility.yul\":5812:5816   */\n      0x24\n        /* \"#utility.yul\":5809:5810   */\n      0x00\n        /* \"#utility.yul\":5802:5817   */\n      revert\n        /* \"#utility.yul\":5829:6149   */\n    tag_30:\n        /* \"#utility.yul\":5873:5879   */\n      0x00\n        /* \"#utility.yul\":5910:5911   */\n      0x02\n        /* \"#utility.yul\":5904:5908   */\n      dup3\n        /* \"#utility.yul\":5900:5912   */\n      div\n        /* \"#utility.yul\":5890:5912   */\n      swap1\n      pop\n        /* \"#utility.yul\":5957:5958   */\n      0x01\n        /* \"#utility.yul\":5951:5955   */\n      dup3\n        /* \"#utility.yul\":5947:5959   */\n      and\n        /* \"#utility.yul\":5978:5996   */\n      dup1\n        /* \"#utility.yul\":5968:6049   */\n      tag_139\n      jumpi\n        /* \"#utility.yul\":6034:6038   */\n      0x7f\n        /* \"#utility.yul\":6026:6032   */\n      dup3\n        /* \"#utility.yul\":6022:6039   */\n      and\n        /* \"#utility.yul\":6012:6039   */\n      swap2\n      pop\n        /* \"#utility.yul\":5968:6049   */\n    tag_139:\n        /* \"#utility.yul\":6096:6098   */\n      0x20\n        /* \"#utility.yul\":6088:6094   */\n      dup3\n        /* \"#utility.yul\":6085:6099   */\n      lt\n        /* \"#utility.yul\":6065:6083   */\n      dup2\n        /* \"#utility.yul\":6062:6100   */\n      sub\n        /* \"#utility.yul\":6059:6143   */\n      tag_140\n      jumpi\n        /* \"#utility.yul\":6115:6133   */\n      tag_141\n      tag_58\n      jump\t// in\n    tag_141:\n        /* \"#utility.yul\":6059:6143   */\n    tag_140:\n        /* \"#utility.yul\":5880:6149   */\n      pop\n        /* \"#utility.yul\":5829:6149   */\n      swap2\n      swap1\n      pop\n      jump\t// out\n        /* \"#utility.yul\":6155:6296   */\n    tag_59:\n        /* \"#utility.yul\":6204:6208   */\n      0x00\n        /* \"#utility.yul\":6227:6230   */\n      dup2\n        /* \"#utility.yul\":6219:6230   */\n      swap1\n      pop\n        /* \"#utility.yul\":6250:6253   */\n      dup2\n        /* \"#utility.yul\":6247:6248   */\n      0x00\n        /* \"#utility.yul\":6240:6254   */\n      mstore\n        /* \"#utility.yul\":6284:6288   */\n      0x20\n        /* \"#utility.yul\":6281:6282   */\n      0x00\n        /* \"#utility.yul\":6271:6289   */\n      keccak256\n        /* \"#utility.yul\":6263:6289   */\n      swap1\n      pop\n        /* \"#utility.yul\":6155:6296   */\n      swap2\n      swap1\n      pop\n      jump\t// out\n        /* \"#utility.yul\":6302:6395   */\n    tag_60:\n        /* \"#utility.yul\":6339:6345   */\n      0x00\n        /* \"#utility.yul\":6386:6388   */\n      0x20\n        /* \"#utility.yul\":6381:6383   */\n      0x1f\n        /* \"#utility.yul\":6374:6379   */\n      dup4\n        /* \"#utility.yul\":6370:6384   */\n      add\n        /* \"#utility.yul\":6366:6389   */\n      div\n        /* \"#utility.yul\":6356:6389   */\n      swap1\n      pop\n        /* \"#utility.yul\":6302:6395   */\n      swap2\n      swap1\n      pop\n      jump\t// out\n        /* \"#utility.yul\":6401:6508   */\n    tag_61:\n        /* \"#utility.yul\":6445:6453   */\n      0x00\n        /* \"#utility.yul\":6495:6500   */\n      dup3\n        /* \"#utility.yul\":6489:6493   */\n      dup3\n        /* \"#utility.yul\":6485:6501   */\n      shl\n        /* \"#utility.yul\":6464:6501   */\n      swap1\n      pop\n        /* \"#utility.yul\":6401:6508   */\n      swap3\n      swap2\n      pop\n      pop\n      jump\t// out\n        /* \"#utility.yul\":6514:6907   */\n    tag_62:\n        /* \"#utility.yul\":6583:6589   */\n      0x00\n        /* \"#utility.yul\":6633:6634   */\n      0x08\n        /* \"#utility.yul\":6621:6631   */\n      dup4\n        /* \"#utility.yul\":6617:6635   */\n      mul\n        /* \"#utility.yul\":6656:6753   */\n      tag_146\n        /* \"#utility.yul\":6686:6752   */\n      0xffffffffffffffffffffffffffffffffffffffffffffffffffffffffffffffff\n        /* \"#utility.yul\":6675:6684   */\n      dup3\n        /* \"#utility.yul\":6656:6753   */\n      tag_61\n      jump\t// in\n    tag_146:\n        /* \"#utility.yul\":6774:6813   */\n      tag_147\n        /* \"#utility.yul\":6804:6812   */\n      dup7\n        /* \"#utility.yul\":6793:6802   */\n      dup4\n        /* \"#utility.yul\":6774:6813   */\n      tag_61\n      jump\t// in\n    tag_147:\n        /* \"#utility.yul\":6762:6813   */\n      swap6\n      pop\n        /* \"#utility.yul\":6846:6850   */\n      dup1\n        /* \"#utility.yul\":6842:6851   */\n      not\n        /* \"#utility.yul\":6835:6840   */\n      dup5\n        /* \"#utility.yul\":6831:6852   */\n      and\n        /* \"#utility.yul\":6822:6852   */\n      swap4\n      pop\n        /* \"#utility.yul\":6895:6899   */\n      dup1\n        /* \"#utility.yul\":6885:6893   */\n      dup7\n        /* \"#utility.yul\":6881:6900   */\n      and\n        /* \"#utility.yul\":6874:6879   */\n      dup5\n        /* \"#utility.yul\":6871:6901   */\n      or\n        /* \"#utility.yul\":6861:6901   */\n      swap3\n      pop\n        /* \"#utility.yul\":6590:6907   */\n      pop\n      pop\n        /* \"#utility.yul\":6514:6907   */\n      swap4\n      swap3\n      pop\n      pop\n      pop\n      jump\t// out\n        /* \"#utility.yul\":6913:6973   */\n    tag_63:\n        /* \"#utility.yul\":6941:6944   */\n      0x00\n        /* \"#utility.yul\":6962:6967   */\n      dup2\n        /* \"#utility.yul\":6955:6967   */\n      swap1\n      pop\n        /* \"#utility.yul\":6913:6973   */\n      swap2\n      swap1\n      pop\n      jump\t// out\n        /* \"#utility.yul\":6979:7121   */\n    tag_64:\n        /* \"#utility.yul\":7029:7038   */\n      0x00\n        /* \"#utility.yul\":7062:7115   */\n      tag_150\n        /* \"#utility.yul\":7080:7114   */\n      tag_151\n        /* \"#utility.yul\":7089:7113   */\n      tag_152\n        /* \"#utility.yul\":7107:7112   */\n      dup5\n        /* \"#utility.yul\":7089:7113   */\n      tag_55\n      jump\t// in\n    tag_152:\n        /* \"#utility.yul\":7080:7114   */\n      tag_63\n      jump\t// in\n    tag_151:\n        /* \"#utility.yul\":7062:7115   */\n      tag_55\n      jump\t// in\n    tag_150:\n        /* \"#utility.yul\":7049:7115   */\n      swap1\n      pop\n        /* \"#utility.yul\":6979:7121   */\n      swap2\n      swap1\n      pop\n      jump\t// out\n        /* \"#utility.yul\":7127:7202   */\n    tag_65:\n        /* \"#utility.yul\":7170:7173   */\n      0x00\n        /* \"#utility.yul\":7191:7196   */\n      dup2\n        /* \"#utility.yul\":7184:7196   */\n      swap1\n      pop\n        /* \"#utility.yul\":7127:7202   */\n      swap2\n      swap1\n      pop\n      jump\t// out\n        /* \"#utility.yul\":7208:7477   */\n    tag_66:\n        /* \"#utility.yul\":7318:7357   */\n      tag_155\n        /* \"#utility.yul\":7349:7356   */\n      dup4\n        /* \"#utility.yul\":7318:7357   */\n      tag_64\n      jump\t// in\n    tag_155:\n        /* \"#utility.yul\":7379:7470   */\n      tag_156\n        /* \"#utility.yul\":7428:7469   */\n      tag_157\n        /* \"#utility.yul\":7452:7468   */\n      dup3\n        /* \"#utility.yul\":7428:7469   */\n      tag_65\n      jump\t// in\n    tag_157:\n        /* \"#utility.yul\":7420:7426   */\n      dup5\n        /* \"#utility.yul\":7413:7417   */\n      dup5\n        /* \"#utility.yul\":7407:7418   */\n      sload\n        /* \"#utility.yul\":7379:7470   */\n      tag_62\n      jump\t// in\n    tag_156:\n        /* \"#utility.yul\":7373:7377   */\n      dup3\n        /* \"#utility.yul\":7366:7471   */\n      sstore\n        /* \"#utility.yul\":7284:7477   */\n      pop\n        /* \"#utility.yul\":7208:7477   */\n      pop\n      pop\n      pop\n      jump\t// out\n        /* \"#utility.yul\":7483:7556   */\n    tag_67:\n        /* \"#utility.yul\":7528:7531   */\n      0x00\n        /* \"#utility.yul\":7549:7550   */\n      0x00\n        /* \"#utility.yul\":7542:7550   */\n      swap1\n      pop\n        /* \"#utility.yul\":7483:7556   */\n      swap1\n      jump\t// out\n        /* \"#utility.yul\":7562:7751   */\n    tag_68:\n        /* \"#utility.yul\":7639:7671   */\n      tag_160\n      tag_67\n      jump\t// in\n    tag_160:\n        /* \"#utility.yul\":7680:7745   */\n      tag_161\n        /* \"#utility.yul\":7738:7744   */\n      dup2\n        /* \"#utility.yul\":7730:7736   */\n      dup5\n        /* \"#utility.yul\":7724:7728   */\n      dup5\n        /* \"#utility.yul\":7680:7745   */\n      tag_66\n      jump\t// in\n    tag_161:\n        /* \"#utility.yul\":7615:7751   */\n      pop\n        /* \"#utility.yul\":7562:7751   */\n      pop\n      pop\n      jump\t// out\n        /* \"#utility.yul\":7757:7943   */\n    tag_69:\n        /* \"#utility.yul\":7817:7937   */\n    tag_163:\n        /* \"#utility.yul\":7834:7837   */\n      dup2\n        /* \"#utility.yul\":7827:7832   */\n      dup2\n        /* \"#utility.yul\":7824:7838   */\n      lt\n        /* \"#utility.yul\":7817:7937   */\n      iszero\n      tag_165\n      jumpi\n        /* \"#utility.yul\":7888:7927   */\n      tag_166\n        /* \"#utility.yul\":7925:7926   */\n      0x00\n        /* \"#utility.yul\":7918:7923   */\n      dup3\n        /* \"#utility.yul\":7888:7927   */\n      tag_68\n      jump\t// in\n    tag_166:\n        /* \"#utility.yul\":7861:7862   */\n      0x01\n        /* \"#utility.yul\":7854:7859   */\n      dup2\n        /* \"#utility.yul\":7850:7863   */\n      add\n        /* \"#utility.yul\":7841:7863   */\n      swap1\n      pop\n        /* \"#utility.yul\":7817:7937   */\n      jump(tag_163)\n    tag_165:\n        /* \"#utility.yul\":7757:7943   */\n      pop\n      pop\n      jump\t// out\n        /* \"#utility.yul\":7949:8492   */\n    tag_70:\n        /* \"#utility.yul\":8050:8052   */\n      0x1f\n        /* \"#utility.yul\":8045:8048   */\n      dup3\n        /* \"#utility.yul\":8042:8053   */\n      gt\n        /* \"#utility.yul\":8039:8485   */\n      iszero\n      tag_168\n      jumpi\n        /* \"#utility.yul\":8084:8122   */\n      tag_169\n        /* \"#utility.yul\":8116:8121   */\n      dup2\n        /* \"#utility.yul\":8084:8122   */\n      tag_59\n      jump\t// in\n    tag_169:\n        /* \"#utility.yul\":8168:8197   */\n      tag_170\n        /* \"#utility.yul\":8186:8196   */\n      dup5\n        /* \"#utility.yul\":8168:8197   */\n      tag_60\n      jump\t// in\n    tag_170:\n        /* \"#utility.yul\":8158:8166   */\n      dup2\n        /* \"#utility.yul\":8154:8198   */\n      add\n        /* \"#utility.yul\":8351:8353   */\n      0x20\n        /* \"#utility.yul\":8339:8349   */\n      dup6\n        /* \"#utility.yul\":8336:8354   */\n      lt\n        /* \"#utility.yul\":8333:8382   */\n      iszero\n      tag_171\n      jumpi\n        /* \"#utility.yul\":8372:8380   */\n      dup2\n        /* \"#utility.yul\":8357:8380   */\n      swap1\n      pop\n        /* \"#utility.yul\":8333:8382   */\n    tag_171:\n        /* \"#utility.yul\":8395:8475   */\n      tag_172\n        /* \"#utility.yul\":8451:8473   */\n      tag_173\n        /* \"#utility.yul\":8469:8472   */\n      dup6\n        /* \"#utility.yul\":8451:8473   */\n      tag_60\n      jump\t// in\n    tag_173:\n        /* \"#utility.yul\":8441:8449   */\n      dup4\n        /* \"#utility.yul\":8437:8474   */\n      add\n        /* \"#utility.yul\":8424:8435   */\n      dup3\n        /* \"#utility.yul\":8395:8475   */\n      tag_69\n      jump\t// in\n    tag_172:\n        /* \"#utility.yul\":8054:8485   */\n      pop\n      pop\n        /* \"#utility.yul\":8039:8485   */\n    tag_168:\n        /* \"#utility.yul\":7949:8492   */\n      pop\n      pop\n      pop\n      jump\t// out\n        /* \"#utility.yul\":8498:8615   */\n    tag_71:\n        /* \"#utility.yul\":8552:8560   */\n      0x00\n        /* \"#utility.yul\":8602:8607   */\n      dup3\n        /* \"#utility.yul\":8596:8600   */\n      dup3\n        /* \"#utility.yul\":8592:8608   */\n      shr\n        /* \"#utility.yul\":8571:8608   */\n      swap1\n      pop\n        /* \"#utility.yul\":8498:8615   */\n      swap3\n      swap2\n      pop\n      pop\n      jump\t// out\n        /* \"#utility.yul\":8621:8790   */\n    tag_72:\n        /* \"#utility.yul\":8665:8671   */\n      0x00\n        /* \"#utility.yul\":8698:8749   */\n      tag_176\n        /* \"#utility.yul\":8746:8747   */\n      0x00\n        /* \"#utility.yul\":8742:8748   */\n      not\n        /* \"#utility.yul\":8734:8739   */\n      dup5\n        /* \"#utility.yul\":8731:8732   */\n      0x08\n        /* \"#utility.yul\":8727:8740   */\n      mul\n        /* \"#utility.yul\":8698:8749   */\n      tag_71\n      jump\t// in\n    tag_176:\n        /* \"#utility.yul\":8694:8750   */\n      not\n        /* \"#utility.yul\":8779:8783   */\n      dup1\n        /* \"#utility.yul\":8773:8777   */\n      dup4\n        /* \"#utility.yul\":8769:8784   */\n      and\n        /* \"#utility.yul\":8759:8784   */\n      swap2\n      pop\n        /* \"#utility.yul\":8672:8790   */\n      pop\n        /* \"#utility.yul\":8621:8790   */\n      swap3\n      swap2\n      pop\n      pop\n      jump\t// out\n        /* \"#utility.yul\":8795:9090   */\n    tag_73:\n        /* \"#utility.yul\":8871:8875   */\n      0x00\n        /* \"#utility.yul\":9017:9046   */\n      tag_178\n        /* \"#utility.yul\":9042:9045   */\n      dup4\n        /* \"#utility.yul\":9036:9040   */\n      dup4\n        /* \"#utility.yul\":9017:9046   */\n      tag_72\n      jump\t// in\n    tag_178:\n        /* \"#utility.yul\":9009:9046   */\n      swap2\n      pop\n        /* \"#utility.yul\":9079:9082   */\n      dup3\n        /* \"#utility.yul\":9076:9077   */\n      0x02\n        /* \"#utility.yul\":9072:9083   */\n      mul\n        /* \"#utility.yul\":9066:9070   */\n      dup3\n        /* \"#utility.yul\":9063:9084   */\n      or\n        /* \"#utility.yul\":9055:9084   */\n      swap1\n      pop\n        /* \"#utility.yul\":8795:9090   */\n      swap3\n      swap2\n      pop\n      pop\n      jump\t// out\n        /* \"#utility.yul\":9095:10490   */\n    tag_28:\n        /* \"#utility.yul\":9212:9249   */\n      tag_180\n        /* \"#utility.yul\":9245:9248   */\n      dup3\n        /* \"#utility.yul\":9212:9249   */\n      tag_48\n      jump\t// in\n    tag_180:\n        /* \"#utility.yul\":9314:9332   */\n      0xffffffffffffffff\n        /* \"#utility.yul\":9306:9312   */\n      dup2\n        /* \"#utility.yul\":9303:9333   */\n      gt\n        /* \"#utility.yul\":9300:9356   */\n      iszero\n      tag_181\n      jumpi\n        /* \"#utility.yul\":9336:9354   */\n      tag_182\n      tag_41\n      jump\t// in\n    tag_182:\n        /* \"#utility.yul\":9300:9356   */\n    tag_181:\n        /* \"#utility.yul\":9380:9418   */\n      tag_183\n        /* \"#utility.yul\":9412:9416   */\n      dup3\n        /* \"#utility.yul\":9406:9417   */\n      sload\n        /* \"#utility.yul\":9380:9418   */\n      tag_30\n      jump\t// in\n    tag_183:\n        /* \"#utility.yul\":9465:9532   */\n      tag_184\n        /* \"#utility.yul\":9525:9531   */\n      dup3\n        /* \"#utility.yul\":9517:9523   */\n      dup3\n        /* \"#utility.yul\":9511:9515   */\n      dup6\n        /* \"#utility.yul\":9465:9532   */\n      tag_70\n      jump\t// in\n    tag_184:\n        /* \"#utility.yul\":9559:9560   */\n      0x00\n        /* \"#utility.yul\":9583:9587   */\n      0x20\n        /* \"#utility.yul\":9570:9587   */\n      swap1\n      pop\n        /* \"#utility.yul\":9615:9617   */\n      0x1f\n        /* \"#utility.yul\":9607:9613   */\n      dup4\n        /* \"#utility.yul\":9604:9618   */\n      gt\n        /* \"#utility.yul\":9632:9633   */\n      0x01\n        /* \"#utility.yul\":9627:10245   */\n      dup2\n      eq\n      tag_186\n      jumpi\n        /* \"#utility.yul\":10289:10290   */\n      0x00\n        /* \"#utility.yul\":10306:10312   */\n      dup5\n        /* \"#utility.yul\":10303:10380   */\n      iszero\n      tag_187\n      jumpi\n        /* \"#utility.yul\":10355:10364   */\n      dup3\n        /* \"#utility.yul\":10350:10353   */\n      dup8\n        /* \"#utility.yul\":10346:10365   */\n      add\n        /* \"#utility.yul\":10340:10366   */\n      mload\n        /* \"#utility.yul\":10331:10366   */\n      swap1\n      pop\n        /* \"#utility.yul\":10303:10380   */\n    tag_187:\n        /* \"#utility.yul\":10406:10473   */\n      tag_188\n        /* \"#utility.yul\":10466:10472   */\n      dup6\n        /* \"#utility.yul\":10459:10464   */\n      dup3\n        /* \"#utility.yul\":10406:10473   */\n      tag_73\n      jump\t// in\n    tag_188:\n        /* \"#utility.yul\":10400:10404   */\n      dup7\n        /* \"#utility.yul\":10393:10474   */\n      sstore\n        /* \"#utility.yul\":10262:10484   */\n      pop\n        /* \"#utility.yul\":9597:10484   */\n      jump(tag_185)\n        /* \"#utility.yul\":9627:10245   */\n    tag_186:\n        /* \"#utility.yul\":9679:9683   */\n      0x1f\n        /* \"#utility.yul\":9675:9684   */\n      not\n        /* \"#utility.yul\":9667:9673   */\n      dup5\n        /* \"#utility.yul\":9663:9685   */\n      and\n        /* \"#utility.yul\":9713:9750   */\n      tag_189\n        /* \"#utility.yul\":9745:9749   */\n      dup7\n        /* \"#utility.yul\":9713:9750   */\n      tag_59\n      jump\t// in\n    tag_189:\n        /* \"#utility.yul\":9772:9773   */\n      0x00\n        /* \"#utility.yul\":9786:9994   */\n    tag_190:\n        /* \"#utility.yul\":9800:9807   */\n      dup3\n        /* \"#utility.yul\":9797:9798   */\n      dup2\n        /* \"#utility.yul\":9794:9808   */\n      lt\n        /* \"#utility.yul\":9786:9994   */\n      iszero\n      tag_192\n      jumpi\n        /* \"#utility.yul\":9879:9888   */\n      dup5\n        /* \"#utility.yul\":9874:9877   */\n      dup10\n        /* \"#utility.yul\":9870:9889   */\n      add\n        /* \"#utility.yul\":9864:9890   */\n      mload\n        /* \"#utility.yul\":9856:9862   */\n      dup3\n        /* \"#utility.yul\":9849:9891   */\n      sstore\n        /* \"#utility.yul\":9930:9931   */\n      0x01\n        /* \"#utility.yul\":9922:9928   */\n      dup3\n        /* \"#utility.yul\":9918:9932   */\n      add\n        /* \"#utility.yul\":9908:9932   */\n      swap2\n      pop\n        /* \"#utility.yul\":9977:9979   */\n      0x20\n        /* \"#utility.yul\":9966:9975   */\n      dup6\n        /* \"#utility.yul\":9962:9980   */\n      add\n        /* \"#utility.yul\":9949:9980   */\n      swap5\n      pop\n        /* \"#utility.yul\":9823:9827   */\n      0x20\n        /* \"#utility.yul\":9820:9821   */\n      dup2\n        /* \"#utility.yul\":9816:9828   */\n      add\n        /* \"#utility.yul\":9811:9828   */\n      swap1\n      pop\n        /* \"#utility.yul\":9786:9994   */\n      jump(tag_190)\n    tag_192:\n        /* \"#utility.yul\":10022:10028   */\n      dup7\n        /* \"#utility.yul\":10013:10020   */\n      dup4\n        /* \"#utility.yul\":10010:10029   */\n      lt\n        /* \"#utility.yul\":10007:10186   */\n      iszero\n      tag_193\n      jumpi\n        /* \"#utility.yul\":10080:10089   */\n      dup5\n        /* \"#utility.yul\":10075:10078   */\n      dup10\n        /* \"#utility.yul\":10071:10090   */\n      add\n        /* \"#utility.yul\":10065:10091   */\n      mload\n        /* \"#utility.yul\":10123:10171   */\n      tag_194\n        /* \"#utility.yul\":10165:10169   */\n      0x1f\n        /* \"#utility.yul\":10157:10163   */\n      dup10\n        /* \"#utility.yul\":10153:10170   */\n      and\n        /* \"#utility.yul\":10142:10151   */\n      dup3\n        /* \"#utility.yul\":10123:10171   */\n      tag_72\n      jump\t// in\n    tag_194:\n        /* \"#utility.yul\":10115:10121   */\n      dup4\n        /* \"#utility.yul\":10108:10172   */\n      sstore\n        /* \"#utility.yul\":10030:10186   */\n      pop\n        /* \"#utility.yul\":10007:10186   */\n    tag_193:\n        /* \"#utility.yul\":10232:10233   */\n      0x01\n        /* \"#utility.yul\":10228:10229   */\n      0x02\n        /* \"#utility.yul\":10220:10226   */\n      dup9\n        /* \"#utility.yul\":10216:10230   */\n      mul\n        /* \"#utility.yul\":10212:10234   */\n      add\n        /* \"#utility.yul\":10206:10210   */\n      dup9\n        /* \"#utility.yul\":10199:10235   */\n      sstore\n        /* \"#utility.yul\":9634:10245   */\n      pop\n      pop\n      pop\n        /* \"#utility.yul\":9597:10484   */\n    tag_185:\n      pop\n        /* \"#utility.yul\":9187:10490   */\n      pop\n      pop\n      pop\n        /* \"#utility.yul\":9095:10490   */\n      pop\n      pop\n      jump\t// out\n\n    auxdata: 0xa26469706673582212204695d57562c0dfe7a6db09eaba6acbcd2a3e40abe2f8f40e75d15ddfa789900e64736f6c634300081f0033\n}\n",
				"bytecode": {
					"linkReferences": {},
					"object": "6080604052348015600e575f5ffd5b503360015f6101000a81548173ffffffffffffffffffffffffffffffffffffffff021916908373ffffffffffffffffffffffffffffffffffffffff16021790555061080b8061005c5f395ff3fe608060405234801561000f575f5ffd5b506004361061004a575f3560e01c80630cc4e8d81461004e57806367e8805f1461006a5780638da5cb5b14610088578063f35f6447146100a6575b5f5ffd5b61006860048036038101906100639190610345565b6100c4565b005b610072610142565b60405161007f91906103ec565b60405180910390f35b6100906101ce565b60405161009d919061044b565b60405180910390f35b6100ae6101f3565b6040516100bb919061047c565b60405180910390f35b3373ffffffffffffffffffffffffffffffffffffffff1660015f9054906101000a900473ffffffffffffffffffffffffffffffffffffffff1673ffffffffffffffffffffffffffffffffffffffff160361013f575f5f815480929190610129906104c2565b9190505550806002908161013d9190610706565b505b50565b6002805461014f90610536565b80601f016020809104026020016040519081016040528092919081815260200182805461017b90610536565b80156101c65780601f1061019d576101008083540402835291602001916101c6565b820191905f5260205f20905b8154815290600101906020018083116101a957829003601f168201915b505050505081565b60015f9054906101000a900473ffffffffffffffffffffffffffffffffffffffff1681565b5f5481565b5f604051905090565b5f5ffd5b5f5ffd5b5f5ffd5b5f5ffd5b5f601f19601f8301169050919050565b7f4e487b71000000000000000000000000000000000000000000000000000000005f52604160045260245ffd5b61025782610211565b810181811067ffffffffffffffff8211171561027657610275610221565b5b80604052505050565b5f6102886101f8565b9050610294828261024e565b919050565b5f67ffffffffffffffff8211156102b3576102b2610221565b5b6102bc82610211565b9050602081019050919050565b828183375f83830152505050565b5f6102e96102e484610299565b61027f565b9050828152602081018484840111156103055761030461020d565b5b6103108482856102c9565b509392505050565b5f82601f83011261032c5761032b610209565b5b813561033c8482602086016102d7565b91505092915050565b5f6020828403121561035a57610359610201565b5b5f82013567ffffffffffffffff81111561037757610376610205565b5b61038384828501610318565b91505092915050565b5f81519050919050565b5f82825260208201905092915050565b8281835e5f83830152505050565b5f6103be8261038c565b6103c88185610396565b93506103d88185602086016103a6565b6103e181610211565b840191505092915050565b5f6020820190508181035f83015261040481846103b4565b905092915050565b5f73ffffffffffffffffffffffffffffffffffffffff82169050919050565b5f6104358261040c565b9050919050565b6104458161042b565b82525050565b5f60208201905061045e5f83018461043c565b92915050565b5f819050919050565b61047681610464565b82525050565b5f60208201905061048f5f83018461046d565b92915050565b7f4e487b71000000000000000000000000000000000000000000000000000000005f52601160045260245ffd5b5f6104cc82610464565b91507fffffffffffffffffffffffffffffffffffffffffffffffffffffffffffffffff82036104fe576104fd610495565b5b600182019050919050565b7f4e487b71000000000000000000000000000000000000000000000000000000005f52602260045260245ffd5b5f600282049050600182168061054d57607f821691505b6020821081036105605761055f610509565b5b50919050565b5f819050815f5260205f209050919050565b5f6020601f8301049050919050565b5f82821b905092915050565b5f600883026105c27fffffffffffffffffffffffffffffffffffffffffffffffffffffffffffffffff82610587565b6105cc8683610587565b95508019841693508086168417925050509392505050565b5f819050919050565b5f6106076106026105fd84610464565b6105e4565b610464565b9050919050565b5f819050919050565b610620836105ed565b61063461062c8261060e565b848454610593565b825550505050565b5f5f905090565b61064b61063c565b610656818484610617565b505050565b5b818110156106795761066e5f82610643565b60018101905061065c565b5050565b601f8211156106be5761068f81610566565b61069884610578565b810160208510156106a7578190505b6106bb6106b385610578565b83018261065b565b50505b505050565b5f82821c905092915050565b5f6106de5f19846008026106c3565b1980831691505092915050565b5f6106f683836106cf565b9150826002028217905092915050565b61070f8261038c565b67ffffffffffffffff81111561072857610727610221565b5b6107328254610536565b61073d82828561067d565b5f60209050601f83116001811461076e575f841561075c578287015190505b61076685826106eb565b8655506107cd565b601f19841661077c86610566565b5f5b828110156107a35784890151825560018201915060208501945060208101905061077e565b868310156107c057848901516107bc601f8916826106cf565b8355505b6001600288020188555050505b50505050505056fea26469706673582212204695d57562c0dfe7a6db09eaba6acbcd2a3e40abe2f8f40e75d15ddfa789900e64736f6c634300081f0033",
					"opcodes": "PUSH1 0x80 PUSH1 0x40 MSTORE CALLVALUE DUP1 ISZERO PUSH1 0xE JUMPI PUSH0 PUSH0 REVERT JUMPDEST POP CALLER PUSH1 0x1 PUSH0 PUSH2 0x100 EXP DUP2 SLOAD DUP2 PUSH20 0xFFFFFFFFFFFFFFFFFFFFFFFFFFFFFFFFFFFFFFFF MUL NOT AND SWAP1 DUP4 PUSH20 0xFFFFFFFFFFFFFFFFFFFFFFFFFFFFFFFFFFFFFFFF AND MUL OR SWAP1 SSTORE POP PUSH2 0x80B DUP1 PUSH2 0x5C PUSH0 CODECOPY PUSH0 RETURN INVALID PUSH1 0x80 PUSH1 0x40 MSTORE CALLVALUE DUP1 ISZERO PUSH2 0xF JUMPI PUSH0 PUSH0 REVERT JUMPDEST POP PUSH1 0x4 CALLDATASIZE LT PUSH2 0x4A JUMPI PUSH0 CALLDATALOAD PUSH1 0xE0 SHR DUP1 PUSH4 0xCC4E8D8 EQ PUSH2 0x4E JUMPI DUP1 PUSH4 0x67E8805F EQ PUSH2 0x6A JUMPI DUP1 PUSH4 0x8DA5CB5B EQ PUSH2 0x88 JUMPI DUP1 PUSH4 0xF35F6447 EQ PUSH2 0xA6 JUMPI JUMPDEST PUSH0 PUSH0 REVERT JUMPDEST PUSH2 0x68 PUSH1 0x4 DUP1 CALLDATASIZE SUB DUP2 ADD SWAP1 PUSH2 0x63 SWAP2 SWAP1 PUSH2 0x345 JUMP JUMPDEST PUSH2 0xC4 JUMP JUMPDEST STOP JUMPDEST PUSH2 0x72 PUSH2 0x142 JUMP JUMPDEST PUSH1 0x40 MLOAD PUSH2 0x7F SWAP2 SWAP1 PUSH2 0x3EC JUMP JUMPDEST PUSH1 0x40 MLOAD DUP1 SWAP2 SUB SWAP1 RETURN JUMPDEST PUSH2 0x90 PUSH2 0x1CE JUMP JUMPDEST PUSH1 0x40 MLOAD PUSH2 0x9D SWAP2 SWAP1 PUSH2 0x44B JUMP JUMPDEST PUSH1 0x40 MLOAD DUP1 SWAP2 SUB SWAP1 RETURN JUMPDEST PUSH2 0xAE PUSH2 0x1F3 JUMP JUMPDEST PUSH1 0x40 MLOAD PUSH2 0xBB SWAP2 SWAP1 PUSH2 0x47C JUMP JUMPDEST PUSH1 0x40 MLOAD DUP1 SWAP2 SUB SWAP1 RETURN JUMPDEST CALLER PUSH20 0xFFFFFFFFFFFFFFFFFFFFFFFFFFFFFFFFFFFFFFFF AND PUSH1 0x1 PUSH0 SWAP1 SLOAD SWAP1 PUSH2 0x100 EXP SWAP1 DIV PUSH20 0xFFFFFFFFFFFFFFFFFFFFFFFFFFFFFFFFFFFFFFFF AND PUSH20 0xFFFFFFFFFFFFFFFFFFFFFFFFFFFFFFFFFFFFFFFF AND SUB PUSH2 0x13F JUMPI PUSH0 PUSH0 DUP2 SLOAD DUP1 SWAP3 SWAP2 SWAP1 PUSH2 0x129 SWAP1 PUSH2 0x4C2 JUMP JUMPDEST SWAP2 SWAP1 POP SSTORE POP DUP1 PUSH1 0x2 SWAP1 DUP2 PUSH2 0x13D SWAP2 SWAP1 PUSH2 0x706 JUMP JUMPDEST POP JUMPDEST POP JUMP JUMPDEST PUSH1 0x2 DUP1 SLOAD PUSH2 0x14F SWAP1 PUSH2 0x536 JUMP JUMPDEST DUP1 PUSH1 0x1F ADD PUSH1 0x20 DUP1 SWAP2 DIV MUL PUSH1 0x20 ADD PUSH1 0x40 MLOAD SWAP1 DUP2 ADD PUSH1 0x40 MSTORE DUP1 SWAP3 SWAP2 SWAP1 DUP2 DUP2 MSTORE PUSH1 0x20 ADD DUP3 DUP1 SLOAD PUSH2 0x17B SWAP1 PUSH2 0x536 JUMP JUMPDEST DUP1 ISZERO PUSH2 0x1C6 JUMPI DUP1 PUSH1 0x1F LT PUSH2 0x19D JUMPI PUSH2 0x100 DUP1 DUP4 SLOAD DIV MUL DUP4 MSTORE SWAP2 PUSH1 0x20 ADD SWAP2 PUSH2 0x1C6 JUMP JUMPDEST DUP3 ADD SWAP2 SWAP1 PUSH0 MSTORE PUSH1 0x20 PUSH0 KECCAK256 SWAP1 JUMPDEST DUP2 SLOAD DUP2 MSTORE SWAP1 PUSH1 0x1 ADD SWAP1 PUSH1 0x20 ADD DUP1 DUP4 GT PUSH2 0x1A9 JUMPI DUP3 SWAP1 SUB PUSH1 0x1F AND DUP3 ADD SWAP2 JUMPDEST POP POP POP POP POP DUP2 JUMP JUMPDEST PUSH1 0x1 PUSH0 SWAP1 SLOAD SWAP1 PUSH2 0x100 EXP SWAP1 DIV PUSH20 0xFFFFFFFFFFFFFFFFFFFFFFFFFFFFFFFFFFFFFFFF AND DUP2 JUMP JUMPDEST PUSH0 SLOAD DUP2 JUMP JUMPDEST PUSH0 PUSH1 0x40 MLOAD SWAP1 POP SWAP1 JUMP JUMPDEST PUSH0 PUSH0 REVERT JUMPDEST PUSH0 PUSH0 REVERT JUMPDEST PUSH0 PUSH0 REVERT JUMPDEST PUSH0 PUSH0 REVERT JUMPDEST PUSH0 PUSH1 0x1F NOT PUSH1 0x1F DUP4 ADD AND SWAP1 POP SWAP2 SWAP1 POP JUMP JUMPDEST PUSH32 0x4E487B7100000000000000000000000000000000000000000000000000000000 PUSH0 MSTORE PUSH1 0x41 PUSH1 0x4 MSTORE PUSH1 0x24 PUSH0 REVERT JUMPDEST PUSH2 0x257 DUP3 PUSH2 0x211 JUMP JUMPDEST DUP2 ADD DUP2 DUP2 LT PUSH8 0xFFFFFFFFFFFFFFFF DUP3 GT OR ISZERO PUSH2 0x276 JUMPI PUSH2 0x275 PUSH2 0x221 JUMP JUMPDEST JUMPDEST DUP1 PUSH1 0x40 MSTORE POP POP POP JUMP JUMPDEST PUSH0 PUSH2 0x288 PUSH2 0x1F8 JUMP JUMPDEST SWAP1 POP PUSH2 0x294 DUP3 DUP3 PUSH2 0x24E JUMP JUMPDEST SWAP2 SWAP1 POP JUMP JUMPDEST PUSH0 PUSH8 0xFFFFFFFFFFFFFFFF DUP3 GT ISZERO PUSH2 0x2B3 JUMPI PUSH2 0x2B2 PUSH2 0x221 JUMP JUMPDEST JUMPDEST PUSH2 0x2BC DUP3 PUSH2 0x211 JUMP JUMPDEST SWAP1 POP PUSH1 0x20 DUP2 ADD SWAP1 POP SWAP2 SWAP1 POP JUMP JUMPDEST DUP3 DUP2 DUP4 CALLDATACOPY PUSH0 DUP4 DUP4 ADD MSTORE POP POP POP JUMP JUMPDEST PUSH0 PUSH2 0x2E9 PUSH2 0x2E4 DUP5 PUSH2 0x299 JUMP JUMPDEST PUSH2 0x27F JUMP JUMPDEST SWAP1 POP DUP3 DUP2 MSTORE PUSH1 0x20 DUP2 ADD DUP5 DUP5 DUP5 ADD GT ISZERO PUSH2 0x305 JUMPI PUSH2 0x304 PUSH2 0x20D JUMP JUMPDEST JUMPDEST PUSH2 0x310 DUP5 DUP3 DUP6 PUSH2 0x2C9 JUMP JUMPDEST POP SWAP4 SWAP3 POP POP POP JUMP JUMPDEST PUSH0 DUP3 PUSH1 0x1F DUP4 ADD SLT PUSH2 0x32C JUMPI PUSH2 0x32B PUSH2 0x209 JUMP JUMPDEST JUMPDEST DUP2 CALLDATALOAD PUSH2 0x33C DUP5 DUP3 PUSH1 0x20 DUP7 ADD PUSH2 0x2D7 JUMP JUMPDEST SWAP2 POP POP SWAP3 SWAP2 POP POP JUMP JUMPDEST PUSH0 PUSH1 0x20 DUP3 DUP5 SUB SLT ISZERO PUSH2 0x35A JUMPI PUSH2 0x359 PUSH2 0x201 JUMP JUMPDEST JUMPDEST PUSH0 DUP3 ADD CALLDATALOAD PUSH8 0xFFFFFFFFFFFFFFFF DUP2 GT ISZERO PUSH2 0x377 JUMPI PUSH2 0x376 PUSH2 0x205 JUMP JUMPDEST JUMPDEST PUSH2 0x383 DUP5 DUP3 DUP6 ADD PUSH2 0x318 JUMP JUMPDEST SWAP2 POP POP SWAP3 SWAP2 POP POP JUMP JUMPDEST PUSH0 DUP2 MLOAD SWAP1 POP SWAP2 SWAP1 POP JUMP JUMPDEST PUSH0 DUP3 DUP3 MSTORE PUSH1 0x20 DUP3 ADD SWAP1 POP SWAP3 SWAP2 POP POP JUMP JUMPDEST DUP3 DUP2 DUP4 MCOPY PUSH0 DUP4 DUP4 ADD MSTORE POP POP POP JUMP JUMPDEST PUSH0 PUSH2 0x3BE DUP3 PUSH2 0x38C JUMP JUMPDEST PUSH2 0x3C8 DUP2 DUP6 PUSH2 0x396 JUMP JUMPDEST SWAP4 POP PUSH2 0x3D8 DUP2 DUP6 PUSH1 0x20 DUP7 ADD PUSH2 0x3A6 JUMP JUMPDEST PUSH2 0x3E1 DUP2 PUSH2 0x211 JUMP JUMPDEST DUP5 ADD SWAP2 POP POP SWAP3 SWAP2 POP POP JUMP JUMPDEST PUSH0 PUSH1 0x20 DUP3 ADD SWAP1 POP DUP2 DUP2 SUB PUSH0 DUP4 ADD MSTORE PUSH2 0x404 DUP2 DUP5 PUSH2 0x3B4 JUMP JUMPDEST SWAP1 POP SWAP3 SWAP2 POP POP JUMP JUMPDEST PUSH0 PUSH20 0xFFFFFFFFFFFFFFFFFFFFFFFFFFFFFFFFFFFFFFFF DUP3 AND SWAP1 POP SWAP2 SWAP1 POP JUMP JUMPDEST PUSH0 PUSH2 0x435 DUP3 PUSH2 0x40C JUMP JUMPDEST SWAP1 POP SWAP2 SWAP1 POP JUMP JUMPDEST PUSH2 0x445 DUP2 PUSH2 0x42B JUMP JUMPDEST DUP3 MSTORE POP POP JUMP JUMPDEST PUSH0 PUSH1 0x20 DUP3 ADD SWAP1 POP PUSH2 0x45E PUSH0 DUP4 ADD DUP5 PUSH2 0x43C JUMP JUMPDEST SWAP3 SWAP2 POP POP JUMP JUMPDEST PUSH0 DUP2 SWAP1 POP SWAP2 SWAP1 POP JUMP JUMPDEST PUSH2 0x476 DUP2 PUSH2 0x464 JUMP JUMPDEST DUP3 MSTORE POP POP JUMP JUMPDEST PUSH0 PUSH1 0x20 DUP3 ADD SWAP1 POP PUSH2 0x48F PUSH0 DUP4 ADD DUP5 PUSH2 0x46D JUMP JUMPDEST SWAP3 SWAP2 POP POP JUMP JUMPDEST PUSH32 0x4E487B7100000000000000000000000000000000000000000000000000000000 PUSH0 MSTORE PUSH1 0x11 PUSH1 0x4 MSTORE PUSH1 0x24 PUSH0 REVERT JUMPDEST PUSH0 PUSH2 0x4CC DUP3 PUSH2 0x464 JUMP JUMPDEST SWAP2 POP PUSH32 0xFFFFFFFFFFFFFFFFFFFFFFFFFFFFFFFFFFFFFFFFFFFFFFFFFFFFFFFFFFFFFFFF DUP3 SUB PUSH2 0x4FE JUMPI PUSH2 0x4FD PUSH2 0x495 JUMP JUMPDEST JUMPDEST PUSH1 0x1 DUP3 ADD SWAP1 POP SWAP2 SWAP1 POP JUMP JUMPDEST PUSH32 0x4E487B7100000000000000000000000000000000000000000000000000000000 PUSH0 MSTORE PUSH1 0x22 PUSH1 0x4 MSTORE PUSH1 0x24 PUSH0 REVERT JUMPDEST PUSH0 PUSH1 0x2 DUP3 DIV SWAP1 POP PUSH1 0x1 DUP3 AND DUP1 PUSH2 0x54D JUMPI PUSH1 0x7F DUP3 AND SWAP2 POP JUMPDEST PUSH1 0x20 DUP3 LT DUP2 SUB PUSH2 0x560 JUMPI PUSH2 0x55F PUSH2 0x509 JUMP JUMPDEST JUMPDEST POP SWAP2 SWAP1 POP JUMP JUMPDEST PUSH0 DUP2 SWAP1 POP DUP2 PUSH0 MSTORE PUSH1 0x20 PUSH0 KECCAK256 SWAP1 POP SWAP2 SWAP1 POP JUMP JUMPDEST PUSH0 PUSH1 0x20 PUSH1 0x1F DUP4 ADD DIV SWAP1 POP SWAP2 SWAP1 POP JUMP JUMPDEST PUSH0 DUP3 DUP3 SHL SWAP1 POP SWAP3 SWAP2 POP POP JUMP JUMPDEST PUSH0 PUSH1 0x8 DUP4 MUL PUSH2 0x5C2 PUSH32 0xFFFFFFFFFFFFFFFFFFFFFFFFFFFFFFFFFFFFFFFFFFFFFFFFFFFFFFFFFFFFFFFF DUP3 PUSH2 0x587 JUMP JUMPDEST PUSH2 0x5CC DUP7 DUP4 PUSH2 0x587 JUMP JUMPDEST SWAP6 POP DUP1 NOT DUP5 AND SWAP4 POP DUP1 DUP7 AND DUP5 OR SWAP3 POP POP POP SWAP4 SWAP3 POP POP POP JUMP JUMPDEST PUSH0 DUP2 SWAP1 POP SWAP2 SWAP1 POP JUMP JUMPDEST PUSH0 PUSH2 0x607 PUSH2 0x602 PUSH2 0x5FD DUP5 PUSH2 0x464 JUMP JUMPDEST PUSH2 0x5E4 JUMP JUMPDEST PUSH2 0x464 JUMP JUMPDEST SWAP1 POP SWAP2 SWAP1 POP JUMP JUMPDEST PUSH0 DUP2 SWAP1 POP SWAP2 SWAP1 POP JUMP JUMPDEST PUSH2 0x620 DUP4 PUSH2 0x5ED JUMP JUMPDEST PUSH2 0x634 PUSH2 0x62C DUP3 PUSH2 0x60E JUMP JUMPDEST DUP5 DUP5 SLOAD PUSH2 0x593 JUMP JUMPDEST DUP3 SSTORE POP POP POP POP JUMP JUMPDEST PUSH0 PUSH0 SWAP1 POP SWAP1 JUMP JUMPDEST PUSH2 0x64B PUSH2 0x63C JUMP JUMPDEST PUSH2 0x656 DUP2 DUP5 DUP5 PUSH2 0x617 JUMP JUMPDEST POP POP POP JUMP JUMPDEST JUMPDEST DUP2 DUP2 LT ISZERO PUSH2 0x679 JUMPI PUSH2 0x66E PUSH0 DUP3 PUSH2 0x643 JUMP JUMPDEST PUSH1 0x1 DUP2 ADD SWAP1 POP PUSH2 0x65C JUMP JUMPDEST POP POP JUMP JUMPDEST PUSH1 0x1F DUP3 GT ISZERO PUSH2 0x6BE JUMPI PUSH2 0x68F DUP2 PUSH2 0x566 JUMP JUMPDEST PUSH2 0x698 DUP5 PUSH2 0x578 JUMP JUMPDEST DUP2 ADD PUSH1 0x20 DUP6 LT ISZERO PUSH2 0x6A7 JUMPI DUP2 SWAP1 POP JUMPDEST PUSH2 0x6BB PUSH2 0x6B3 DUP6 PUSH2 0x578 JUMP JUMPDEST DUP4 ADD DUP3 PUSH2 0x65B JUMP JUMPDEST POP POP JUMPDEST POP POP POP JUMP JUMPDEST PUSH0 DUP3 DUP3 SHR SWAP1 POP SWAP3 SWAP2 POP POP JUMP JUMPDEST PUSH0 PUSH2 0x6DE PUSH0 NOT DUP5 PUSH1 0x8 MUL PUSH2 0x6C3 JUMP JUMPDEST NOT DUP1 DUP4 AND SWAP2 POP POP SWAP3 SWAP2 POP POP JUMP JUMPDEST PUSH0 PUSH2 0x6F6 DUP4 DUP4 PUSH2 0x6CF JUMP JUMPDEST SWAP2 POP DUP3 PUSH1 0x2 MUL DUP3 OR SWAP1 POP SWAP3 SWAP2 POP POP JUMP JUMPDEST PUSH2 0x70F DUP3 PUSH2 0x38C JUMP JUMPDEST PUSH8 0xFFFFFFFFFFFFFFFF DUP2 GT ISZERO PUSH2 0x728 JUMPI PUSH2 0x727 PUSH2 0x221 JUMP JUMPDEST JUMPDEST PUSH2 0x732 DUP3 SLOAD PUSH2 0x536 JUMP JUMPDEST PUSH2 0x73D DUP3 DUP3 DUP6 PUSH2 0x67D JUMP JUMPDEST PUSH0 PUSH1 0x20 SWAP1 POP PUSH1 0x1F DUP4 GT PUSH1 0x1 DUP2 EQ PUSH2 0x76E JUMPI PUSH0 DUP5 ISZERO PUSH2 0x75C JUMPI DUP3 DUP8 ADD MLOAD SWAP1 POP JUMPDEST PUSH2 0x766 DUP6 DUP3 PUSH2 0x6EB JUMP JUMPDEST DUP7 SSTORE POP PUSH2 0x7CD JUMP JUMPDEST PUSH1 0x1F NOT DUP5 AND PUSH2 0x77C DUP7 PUSH2 0x566 JUMP JUMPDEST PUSH0 JUMPDEST DUP3 DUP2 LT ISZERO PUSH2 0x7A3 JUMPI DUP5 DUP10 ADD MLOAD DUP3 SSTORE PUSH1 0x1 DUP3 ADD SWAP2 POP PUSH1 0x20 DUP6 ADD SWAP5 POP PUSH1 0x20 DUP2 ADD SWAP1 POP PUSH2 0x77E JUMP JUMPDEST DUP7 DUP4 LT ISZERO PUSH2 0x7C0 JUMPI DUP5 DUP10 ADD MLOAD PUSH2 0x7BC PUSH1 0x1F DUP10 AND DUP3 PUSH2 0x6CF JUMP JUMPDEST DUP4 SSTORE POP JUMPDEST PUSH1 0x1 PUSH1 0x2 DUP9 MUL ADD DUP9 SSTORE POP POP POP JUMPDEST POP POP POP POP POP POP JUMP INVALID LOG2 PUSH5 0x6970667358 0x22 SLT KECCAK256 CHAINID SWAP6 0xD5 PUSH22 0x62C0DFE7A6DB09EABA6ACBCD2A3E40ABE2F8F40E75D1 TSTORE 0xDF 0xA7 DUP10 SWAP1 0xE PUSH5 0x736F6C6343 STOP ADDMOD 0x1F STOP CALLER "
				},
				"gasEstimates": {
					"creation": {
						"codeDepositCost": "411800",
						"executionCost": "24712",
						"totalCost": "436512"
					},
					"external": {
						"changeCount()": "2468",
						"getMessage(string)": "infinite",
						"owner()": "2530",
						"theMessage()": "infinite"
					}
				},
				"methodIdentifiers": {
					"changeCount()": "f35f6447",
					"getMessage(string)": "0cc4e8d8",
					"owner()": "8da5cb5b",
					"theMessage()": "67e8805f"
				}
			},
			"storageLayout": {
				"storage": [
					{
						"astId": 3,
						"contract": "The Blockchain Messenger/TheBlockchainMessenger.sol:TheBlockchainMessenger",
						"label": "changeCount",
						"offset": 0,
						"slot": "0",
						"type": "t_uint256"
					},
					{
						"astId": 5,
						"contract": "The Blockchain Messenger/TheBlockchainMessenger.sol:TheBlockchainMessenger",
						"label": "owner",
						"offset": 0,
						"slot": "1",
						"type": "t_address"
					},
					{
						"astId": 7,
						"contract": "The Blockchain Messenger/TheBlockchainMessenger.sol:TheBlockchainMessenger",
						"label": "theMessage",
						"offset": 0,
						"slot": "2",
						"type": "t_string_storage"
					}
				],
				"types": {
					"t_address": {
						"encoding": "inplace",
						"label": "address",
						"numberOfBytes": "20"
					},
					"t_string_storage": {
						"encoding": "bytes",
						"label": "string",
						"numberOfBytes": "32"
					},
					"t_uint256": {
						"encoding": "inplace",
						"label": "uint256",
						"numberOfBytes": "32"
					}
				}
			},
			"userdoc": {
				"kind": "user",
				"methods": {},
				"version": 1
			}
		}
	}
}