{
	"FundMe/FundMe.sol": {
		"FundMe": {
			"abi": [
				{
					"inputs": [],
					"stateMutability": "nonpayable",
					"type": "constructor"
				},
				{
					"stateMutability": "payable",
					"type": "fallback"
				},
				{
					"inputs": [
						{
							"internalType": "address",
							"name": "",
							"type": "address"
						}
					],
					"name": "addressToAmountFunded",
					"outputs": [
						{
							"internalType": "uint256",
							"name": "",
							"type": "uint256"
						}
					],
					"stateMutability": "view",
					"type": "function"
				},
				{
					"inputs": [],
					"name": "fund",
					"outputs": [],
					"stateMutability": "payable",
					"type": "function"
				},
				{
					"inputs": [
						{
							"internalType": "uint256",
							"name": "",
							"type": "uint256"
						}
					],
					"name": "funders",
					"outputs": [
						{
							"internalType": "address",
							"name": "",
							"type": "address"
						}
					],
					"stateMutability": "view",
					"type": "function"
				},
				{
					"inputs": [],
					"name": "minimumUsd",
					"outputs": [
						{
							"internalType": "uint256",
							"name": "",
							"type": "uint256"
						}
					],
					"stateMutability": "view",
					"type": "function"
				},
				{
					"inputs": [],
					"name": "owned",
					"outputs": [
						{
							"internalType": "address",
							"name": "",
							"type": "address"
						}
					],
					"stateMutability": "view",
					"type": "function"
				},
				{
					"inputs": [],
					"name": "withdraw",
					"outputs": [],
					"stateMutability": "nonpayable",
					"type": "function"
				},
				{
					"stateMutability": "payable",
					"type": "receive"
				}
			],
			"devdoc": {
				"kind": "dev",
				"methods": {},
				"version": 1
			},
			"evm": {
				"assembly": "    /* \"FundMe/FundMe.sol\":233:2033  contract FundMe {... */\n  mstore(0x40, 0x80)\n    /* \"FundMe/FundMe.sol\":364:368  5e18 */\n  0x4563918244f40000\n    /* \"FundMe/FundMe.sol\":336:368  uint256 public minimumUsd = 5e18 */\n  0x00\n  sstore\n    /* \"FundMe/FundMe.sol\":503:554  constructor() {... */\n  callvalue\n  dup1\n  iszero\n  tag_1\n  jumpi\n  revert(0x00, 0x00)\ntag_1:\n  pop\n    /* \"FundMe/FundMe.sol\":536:546  msg.sender */\n  caller\n    /* \"FundMe/FundMe.sol\":528:533  owned */\n  0x03\n  0x00\n    /* \"FundMe/FundMe.sol\":528:546  owned = msg.sender */\n  0x0100\n  exp\n  dup2\n  sload\n  dup2\n  0xffffffffffffffffffffffffffffffffffffffff\n  mul\n  not\n  and\n  swap1\n  dup4\n  0xffffffffffffffffffffffffffffffffffffffff\n  and\n  mul\n  or\n  swap1\n  sstore\n  pop\n    /* \"FundMe/FundMe.sol\":233:2033  contract FundMe {... */\n  dataSize(sub_0)\n  dup1\n  dataOffset(sub_0)\n  0x00\n  codecopy\n  0x00\n  return\nstop\n\nsub_0: assembly {\n        /* \"FundMe/FundMe.sol\":233:2033  contract FundMe {... */\n      mstore(0x40, 0x80)\n      jumpi(tag_1, lt(calldatasize, 0x04))\n      shr(0xe0, calldataload(0x00))\n      dup1\n      0x098de820\n      eq\n      tag_3\n      jumpi\n      dup1\n      0x3ccfd60b\n      eq\n      tag_4\n      jumpi\n      dup1\n      0x3e47d6f3\n      eq\n      tag_5\n      jumpi\n      dup1\n      0xb60d4288\n      eq\n      tag_6\n      jumpi\n      dup1\n      0xdc0d3dff\n      eq\n      tag_7\n      jumpi\n      dup1\n      0xdf32754b\n      eq\n      tag_8\n      jumpi\n      jump(tag_2)\n    tag_1:\n      jumpi(tag_2, calldatasize)\n        /* \"FundMe/FundMe.sol\":1951:1957  fund() */\n      tag_11\n        /* \"FundMe/FundMe.sol\":1951:1955  fund */\n      tag_12\n        /* \"FundMe/FundMe.sol\":1951:1957  fund() */\n      jump\t// in\n    tag_11:\n        /* \"FundMe/FundMe.sol\":233:2033  contract FundMe {... */\n      stop\n    tag_2:\n        /* \"FundMe/FundMe.sol\":2014:2020  fund() */\n      tag_15\n        /* \"FundMe/FundMe.sol\":2014:2018  fund */\n      tag_12\n        /* \"FundMe/FundMe.sol\":2014:2020  fund() */\n      jump\t// in\n    tag_15:\n        /* \"FundMe/FundMe.sol\":233:2033  contract FundMe {... */\n      stop\n        /* \"FundMe/FundMe.sol\":336:368  uint256 public minimumUsd = 5e18 */\n    tag_3:\n      callvalue\n      dup1\n      iszero\n      tag_16\n      jumpi\n      revert(0x00, 0x00)\n    tag_16:\n      pop\n      tag_17\n      tag_18\n      jump\t// in\n    tag_17:\n      mload(0x40)\n      tag_19\n      swap2\n      swap1\n      tag_20\n      jump\t// in\n    tag_19:\n      mload(0x40)\n      dup1\n      swap2\n      sub\n      swap1\n      return\n        /* \"FundMe/FundMe.sol\":809:1622  function withdraw () public onlyOwner {... */\n    tag_4:\n      callvalue\n      dup1\n      iszero\n      tag_21\n      jumpi\n      revert(0x00, 0x00)\n    tag_21:\n      pop\n      tag_22\n      tag_23\n      jump\t// in\n    tag_22:\n      stop\n        /* \"FundMe/FundMe.sol\":408:465  mapping (address => uint256) public addressToAmountFunded */\n    tag_5:\n      callvalue\n      dup1\n      iszero\n      tag_24\n      jumpi\n      revert(0x00, 0x00)\n    tag_24:\n      pop\n      tag_25\n      0x04\n      dup1\n      calldatasize\n      sub\n      dup2\n      add\n      swap1\n      tag_26\n      swap2\n      swap1\n      tag_27\n      jump\t// in\n    tag_26:\n      tag_28\n      jump\t// in\n    tag_25:\n      mload(0x40)\n      tag_29\n      swap2\n      swap1\n      tag_20\n      jump\t// in\n    tag_29:\n      mload(0x40)\n      dup1\n      swap2\n      sub\n      swap1\n      return\n        /* \"FundMe/FundMe.sol\":562:801  function fund() public payable {... */\n    tag_6:\n      tag_30\n      tag_12\n      jump\t// in\n    tag_30:\n      stop\n        /* \"FundMe/FundMe.sol\":377:401  address[] public funders */\n    tag_7:\n      callvalue\n      dup1\n      iszero\n      tag_31\n      jumpi\n      revert(0x00, 0x00)\n    tag_31:\n      pop\n      tag_32\n      0x04\n      dup1\n      calldatasize\n      sub\n      dup2\n      add\n      swap1\n      tag_33\n      swap2\n      swap1\n      tag_34\n      jump\t// in\n    tag_33:\n      tag_35\n      jump\t// in\n    tag_32:\n      mload(0x40)\n      tag_36\n      swap2\n      swap1\n      tag_37\n      jump\t// in\n    tag_36:\n      mload(0x40)\n      dup1\n      swap2\n      sub\n      swap1\n      return\n        /* \"FundMe/FundMe.sol\":474:494  address public owned */\n    tag_8:\n      callvalue\n      dup1\n      iszero\n      tag_38\n      jumpi\n      revert(0x00, 0x00)\n    tag_38:\n      pop\n      tag_39\n      tag_40\n      jump\t// in\n    tag_39:\n      mload(0x40)\n      tag_41\n      swap2\n      swap1\n      tag_37\n      jump\t// in\n    tag_41:\n      mload(0x40)\n      dup1\n      swap2\n      sub\n      swap1\n      return\n        /* \"FundMe/FundMe.sol\":562:801  function fund() public payable {... */\n    tag_12:\n        /* \"FundMe/FundMe.sol\":646:656  minimumUsd */\n      sload(0x00)\n        /* \"FundMe/FundMe.sol\":613:642  msg.value.getConversionRate() */\n      tag_43\n        /* \"FundMe/FundMe.sol\":613:622  msg.value */\n      callvalue\n        /* \"FundMe/FundMe.sol\":613:640  msg.value.getConversionRate */\n      tag_44\n        /* \"FundMe/FundMe.sol\":613:642  msg.value.getConversionRate() */\n      jump\t// in\n    tag_43:\n        /* \"FundMe/FundMe.sol\":613:656  msg.value.getConversionRate() >= minimumUsd */\n      lt\n      iszero\n        /* \"FundMe/FundMe.sol\":604:684  require( msg.value.getConversionRate() >= minimumUsd, \"Did not send enough ETH\") */\n      tag_45\n      jumpi\n      mload(0x40)\n      0x08c379a000000000000000000000000000000000000000000000000000000000\n      dup2\n      mstore\n      0x04\n      add\n      tag_46\n      swap1\n      tag_47\n      jump\t// in\n    tag_46:\n      mload(0x40)\n      dup1\n      swap2\n      sub\n      swap1\n      revert\n    tag_45:\n        /* \"FundMe/FundMe.sol\":711:718  funders */\n      0x01\n        /* \"FundMe/FundMe.sol\":724:734  msg.sender */\n      caller\n        /* \"FundMe/FundMe.sol\":711:735  funders.push(msg.sender) */\n      swap1\n      dup1\n      0x01\n      dup2\n      sload\n      add\n      dup1\n      dup3\n      sstore\n      dup1\n      swap2\n      pop\n      pop\n      0x01\n      swap1\n      sub\n      swap1\n      0x00\n      mstore\n      keccak256(0x00, 0x20)\n      add\n      0x00\n      swap1\n      swap2\n      swap1\n      swap2\n      swap1\n      swap2\n      0x0100\n      exp\n      dup2\n      sload\n      dup2\n      0xffffffffffffffffffffffffffffffffffffffff\n      mul\n      not\n      and\n      swap1\n      dup4\n      0xffffffffffffffffffffffffffffffffffffffff\n      and\n      mul\n      or\n      swap1\n      sstore\n      pop\n        /* \"FundMe/FundMe.sol\":784:793  msg.value */\n      callvalue\n        /* \"FundMe/FundMe.sol\":746:767  addressToAmountFunded */\n      0x02\n        /* \"FundMe/FundMe.sol\":746:779  addressToAmountFunded[msg.sender] */\n      0x00\n        /* \"FundMe/FundMe.sol\":768:778  msg.sender */\n      caller\n        /* \"FundMe/FundMe.sol\":746:779  addressToAmountFunded[msg.sender] */\n      0xffffffffffffffffffffffffffffffffffffffff\n      and\n      0xffffffffffffffffffffffffffffffffffffffff\n      and\n      dup2\n      mstore\n      0x20\n      add\n      swap1\n      dup2\n      mstore\n      0x20\n      add\n      0x00\n      keccak256\n      0x00\n        /* \"FundMe/FundMe.sol\":746:793  addressToAmountFunded[msg.sender] +=  msg.value */\n      dup3\n      dup3\n      sload\n      tag_49\n      swap2\n      swap1\n      tag_50\n      jump\t// in\n    tag_49:\n      swap3\n      pop\n      pop\n      dup2\n      swap1\n      sstore\n      pop\n        /* \"FundMe/FundMe.sol\":562:801  function fund() public payable {... */\n      jump\t// out\n        /* \"FundMe/FundMe.sol\":336:368  uint256 public minimumUsd = 5e18 */\n    tag_18:\n      sload(0x00)\n      dup2\n      jump\t// out\n        /* \"FundMe/FundMe.sol\":809:1622  function withdraw () public onlyOwner {... */\n    tag_23:\n        /* \"FundMe/FundMe.sol\":1684:1689  owned */\n      0x03\n      0x00\n      swap1\n      sload\n      swap1\n      0x0100\n      exp\n      swap1\n      div\n      0xffffffffffffffffffffffffffffffffffffffff\n      and\n        /* \"FundMe/FundMe.sol\":1670:1689  msg.sender == owned */\n      0xffffffffffffffffffffffffffffffffffffffff\n      and\n        /* \"FundMe/FundMe.sol\":1670:1680  msg.sender */\n      caller\n        /* \"FundMe/FundMe.sol\":1670:1689  msg.sender == owned */\n      0xffffffffffffffffffffffffffffffffffffffff\n      and\n      eq\n        /* \"FundMe/FundMe.sol\":1662:1708  require(msg.sender == owned, \"Must be Owner!\") */\n      tag_52\n      jumpi\n      mload(0x40)\n      0x08c379a000000000000000000000000000000000000000000000000000000000\n      dup2\n      mstore\n      0x04\n      add\n      tag_53\n      swap1\n      tag_54\n      jump\t// in\n    tag_53:\n      mload(0x40)\n      dup1\n      swap2\n      sub\n      swap1\n      revert\n    tag_52:\n        /* \"FundMe/FundMe.sol\":862:881  uint256 funderIndex */\n      0x00\n        /* \"FundMe/FundMe.sol\":884:885  0 */\n      0x00\n        /* \"FundMe/FundMe.sol\":862:885  uint256 funderIndex = 0 */\n      swap1\n      pop\n        /* \"FundMe/FundMe.sol\":858:1042  for(uint256 funderIndex = 0; funderIndex < funders.length; funderIndex) {... */\n    tag_56:\n        /* \"FundMe/FundMe.sol\":901:908  funders */\n      0x01\n        /* \"FundMe/FundMe.sol\":901:915  funders.length */\n      dup1\n      sload\n      swap1\n      pop\n        /* \"FundMe/FundMe.sol\":887:898  funderIndex */\n      dup2\n        /* \"FundMe/FundMe.sol\":887:915  funderIndex < funders.length */\n      lt\n        /* \"FundMe/FundMe.sol\":858:1042  for(uint256 funderIndex = 0; funderIndex < funders.length; funderIndex) {... */\n      iszero\n      tag_57\n      jumpi\n        /* \"FundMe/FundMe.sol\":945:959  address funder */\n      0x00\n        /* \"FundMe/FundMe.sol\":962:969  funders */\n      0x01\n        /* \"FundMe/FundMe.sol\":970:981  funderIndex */\n      dup3\n        /* \"FundMe/FundMe.sol\":962:982  funders[funderIndex] */\n      dup2\n      sload\n      dup2\n      lt\n      tag_59\n      jumpi\n      tag_60\n      tag_61\n      jump\t// in\n    tag_60:\n    tag_59:\n      swap1\n      0x00\n      mstore\n      keccak256(0x00, 0x20)\n      add\n      0x00\n      swap1\n      sload\n      swap1\n      0x0100\n      exp\n      swap1\n      div\n      0xffffffffffffffffffffffffffffffffffffffff\n      and\n        /* \"FundMe/FundMe.sol\":945:982  address funder = funders[funderIndex] */\n      swap1\n      pop\n        /* \"FundMe/FundMe.sol\":1029:1030  0 */\n      0x00\n        /* \"FundMe/FundMe.sol\":997:1018  addressToAmountFunded */\n      0x02\n        /* \"FundMe/FundMe.sol\":997:1026  addressToAmountFunded[funder] */\n      0x00\n        /* \"FundMe/FundMe.sol\":1019:1025  funder */\n      dup4\n        /* \"FundMe/FundMe.sol\":997:1026  addressToAmountFunded[funder] */\n      0xffffffffffffffffffffffffffffffffffffffff\n      and\n      0xffffffffffffffffffffffffffffffffffffffff\n      and\n      dup2\n      mstore\n      0x20\n      add\n      swap1\n      dup2\n      mstore\n      0x20\n      add\n      0x00\n      keccak256\n        /* \"FundMe/FundMe.sol\":997:1030  addressToAmountFunded[funder] = 0 */\n      dup2\n      swap1\n      sstore\n      pop\n        /* \"FundMe/FundMe.sol\":930:1042  {... */\n      pop\n        /* \"FundMe/FundMe.sol\":858:1042  for(uint256 funderIndex = 0; funderIndex < funders.length; funderIndex) {... */\n      jump(tag_56)\n    tag_57:\n      pop\n        /* \"FundMe/FundMe.sol\":1078:1079  0 */\n      0x00\n        /* \"FundMe/FundMe.sol\":1064:1080  new address[](0) */\n      0xffffffffffffffff\n      dup2\n      gt\n      iszero\n      tag_63\n      jumpi\n      tag_64\n      tag_65\n      jump\t// in\n    tag_64:\n    tag_63:\n      mload(0x40)\n      swap1\n      dup1\n      dup3\n      mstore\n      dup1\n      0x20\n      mul\n      0x20\n      add\n      dup3\n      add\n      0x40\n      mstore\n      dup1\n      iszero\n      tag_66\n      jumpi\n      dup2\n      0x20\n      add\n      0x20\n      dup3\n      mul\n      dup1\n      calldatasize\n      dup4\n      calldatacopy\n      dup1\n      dup3\n      add\n      swap2\n      pop\n      pop\n      swap1\n      pop\n    tag_66:\n      pop\n        /* \"FundMe/FundMe.sol\":1054:1061  funders */\n      0x01\n        /* \"FundMe/FundMe.sol\":1054:1080  funders = new address[](0) */\n      swap1\n      dup1\n      mload\n      swap1\n      0x20\n      add\n      swap1\n      tag_67\n      swap3\n      swap2\n      swap1\n      tag_68\n      jump\t// in\n    tag_67:\n      pop\n        /* \"FundMe/FundMe.sol\":1488:1504  bool callSuccess */\n      0x00\n        /* \"FundMe/FundMe.sol\":1518:1528  msg.sender */\n      caller\n        /* \"FundMe/FundMe.sol\":1510:1534  payable(msg.sender).call */\n      0xffffffffffffffffffffffffffffffffffffffff\n      and\n        /* \"FundMe/FundMe.sol\":1542:1563  address(this).balance */\n      selfbalance\n        /* \"FundMe/FundMe.sol\":1510:1568  payable(msg.sender).call{value: address(this).balance}(\"\") */\n      mload(0x40)\n      tag_69\n      swap1\n      tag_70\n      jump\t// in\n    tag_69:\n      0x00\n      mload(0x40)\n      dup1\n      dup4\n      sub\n      dup2\n      dup6\n      dup8\n      gas\n      call\n      swap3\n      pop\n      pop\n      pop\n      returndatasize\n      dup1\n      0x00\n      dup2\n      eq\n      tag_73\n      jumpi\n      mload(0x40)\n      swap2\n      pop\n      and(add(returndatasize, 0x3f), not(0x1f))\n      dup3\n      add\n      0x40\n      mstore\n      returndatasize\n      dup3\n      mstore\n      returndatasize\n      0x00\n      0x20\n      dup5\n      add\n      returndatacopy\n      jump(tag_72)\n    tag_73:\n      0x60\n      swap2\n      pop\n    tag_72:\n      pop\n        /* \"FundMe/FundMe.sol\":1487:1568  (bool callSuccess, ) = payable(msg.sender).call{value: address(this).balance}(\"\") */\n      pop\n      swap1\n      pop\n        /* \"FundMe/FundMe.sol\":1587:1598  callSuccess */\n      dup1\n        /* \"FundMe/FundMe.sol\":1579:1614  require(callSuccess, \"Send failed\") */\n      tag_74\n      jumpi\n      mload(0x40)\n      0x08c379a000000000000000000000000000000000000000000000000000000000\n      dup2\n      mstore\n      0x04\n      add\n      tag_75\n      swap1\n      tag_76\n      jump\t// in\n    tag_75:\n      mload(0x40)\n      dup1\n      swap2\n      sub\n      swap1\n      revert\n    tag_74:\n        /* \"FundMe/FundMe.sol\":847:1622  {... */\n      pop\n        /* \"FundMe/FundMe.sol\":809:1622  function withdraw () public onlyOwner {... */\n      jump\t// out\n        /* \"FundMe/FundMe.sol\":408:465  mapping (address => uint256) public addressToAmountFunded */\n    tag_28:\n      mstore(0x20, 0x02)\n      dup1\n      0x00\n      mstore\n      keccak256(0x00, 0x40)\n      0x00\n      swap2\n      pop\n      swap1\n      pop\n      sload\n      dup2\n      jump\t// out\n        /* \"FundMe/FundMe.sol\":377:401  address[] public funders */\n    tag_35:\n      0x01\n      dup2\n      dup2\n      sload\n      dup2\n      lt\n      tag_77\n      jumpi\n      0x00\n      dup1\n      revert\n    tag_77:\n      swap1\n      0x00\n      mstore\n      keccak256(0x00, 0x20)\n      add\n      0x00\n      swap2\n      pop\n      sload\n      swap1\n      0x0100\n      exp\n      swap1\n      div\n      0xffffffffffffffffffffffffffffffffffffffff\n      and\n      dup2\n      jump\t// out\n        /* \"FundMe/FundMe.sol\":474:494  address public owned */\n    tag_40:\n      0x03\n      0x00\n      swap1\n      sload\n      swap1\n      0x0100\n      exp\n      swap1\n      div\n      0xffffffffffffffffffffffffffffffffffffffff\n      and\n      dup2\n      jump\t// out\n        /* \"FundMe/PriceConvertor.sol\":537:760  function getConversionRate(uint256 ethAmount) internal view returns (uint256) {... */\n    tag_44:\n        /* \"FundMe/PriceConvertor.sol\":606:613  uint256 */\n      0x00\n        /* \"FundMe/PriceConvertor.sol\":626:642  uint256 ethPrice */\n      0x00\n        /* \"FundMe/PriceConvertor.sol\":645:655  getPrice() */\n      tag_80\n        /* \"FundMe/PriceConvertor.sol\":645:653  getPrice */\n      tag_81\n        /* \"FundMe/PriceConvertor.sol\":645:655  getPrice() */\n      jump\t// in\n    tag_80:\n        /* \"FundMe/PriceConvertor.sol\":626:655  uint256 ethPrice = getPrice() */\n      swap1\n      pop\n        /* \"FundMe/PriceConvertor.sol\":666:688  uint256 ethAmountInUsd */\n      0x00\n        /* \"FundMe/PriceConvertor.sol\":716:720  1e18 */\n      0x0de0b6b3a7640000\n        /* \"FundMe/PriceConvertor.sol\":703:712  ethAmount */\n      dup5\n        /* \"FundMe/PriceConvertor.sol\":692:700  ethPrice */\n      dup4\n        /* \"FundMe/PriceConvertor.sol\":692:712  ethPrice * ethAmount */\n      tag_82\n      swap2\n      swap1\n      tag_83\n      jump\t// in\n    tag_82:\n        /* \"FundMe/PriceConvertor.sol\":691:720  (ethPrice * ethAmount) / 1e18 */\n      tag_84\n      swap2\n      swap1\n      tag_85\n      jump\t// in\n    tag_84:\n        /* \"FundMe/PriceConvertor.sol\":666:720  uint256 ethAmountInUsd = (ethPrice * ethAmount) / 1e18 */\n      swap1\n      pop\n        /* \"FundMe/PriceConvertor.sol\":738:752  ethAmountInUsd */\n      dup1\n        /* \"FundMe/PriceConvertor.sol\":731:752  return ethAmountInUsd */\n      swap3\n      pop\n      pop\n      pop\n        /* \"FundMe/PriceConvertor.sol\":537:760  function getConversionRate(uint256 ethAmount) internal view returns (uint256) {... */\n      swap2\n      swap1\n      pop\n      jump\t// out\n        /* \"FundMe/PriceConvertor.sol\":206:529  function getPrice() internal view returns(uint256) {... */\n    tag_81:\n        /* \"FundMe/PriceConvertor.sol\":248:255  uint256 */\n      0x00\n        /* \"FundMe/PriceConvertor.sol\":268:299  AggregatorV3Interface priceFeed */\n      0x00\n        /* \"FundMe/PriceConvertor.sol\":324:366  0x694AA1769357215DE4FAC081bf1f309aDC325306 */\n      0x694aa1769357215de4fac081bf1f309adc325306\n        /* \"FundMe/PriceConvertor.sol\":268:367  AggregatorV3Interface priceFeed = AggregatorV3Interface(0x694AA1769357215DE4FAC081bf1f309aDC325306) */\n      swap1\n      pop\n        /* \"FundMe/PriceConvertor.sol\":404:416  int256 price */\n      0x00\n        /* \"FundMe/PriceConvertor.sol\":423:432  priceFeed */\n      dup2\n        /* \"FundMe/PriceConvertor.sol\":423:448  priceFeed.latestRoundData */\n      0xffffffffffffffffffffffffffffffffffffffff\n      and\n      0xfeaf968c\n        /* \"FundMe/PriceConvertor.sol\":423:450  priceFeed.latestRoundData() */\n      mload(0x40)\n      dup2\n      0xffffffff\n      and\n      0xe0\n      shl\n      dup2\n      mstore\n      0x04\n      add\n      0xa0\n      mload(0x40)\n      dup1\n      dup4\n      sub\n      dup2\n      dup7\n      gas\n      staticcall\n      iszero\n      dup1\n      iszero\n      tag_88\n      jumpi\n      returndatacopy(0x00, 0x00, returndatasize)\n      revert(0x00, returndatasize)\n    tag_88:\n      pop\n      pop\n      pop\n      pop\n      mload(0x40)\n      returndatasize\n      not(0x1f)\n      0x1f\n      dup3\n      add\n      and\n      dup3\n      add\n      dup1\n      0x40\n      mstore\n      pop\n      dup2\n      add\n      swap1\n      tag_89\n      swap2\n      swap1\n      tag_90\n      jump\t// in\n    tag_89:\n        /* \"FundMe/PriceConvertor.sol\":402:450  (,int256 price,,,) = priceFeed.latestRoundData() */\n      pop\n      pop\n      pop\n      swap2\n      pop\n      pop\n        /* \"FundMe/PriceConvertor.sol\":516:520  1e10 */\n      0x02540be400\n        /* \"FundMe/PriceConvertor.sol\":508:513  price */\n      dup2\n        /* \"FundMe/PriceConvertor.sol\":508:520  price * 1e10 */\n      tag_91\n      swap2\n      swap1\n      tag_92\n      jump\t// in\n    tag_91:\n        /* \"FundMe/PriceConvertor.sol\":493:521  return uint256(price * 1e10) */\n      swap3\n      pop\n      pop\n      pop\n        /* \"FundMe/PriceConvertor.sol\":206:529  function getPrice() internal view returns(uint256) {... */\n      swap1\n      jump\t// out\n    tag_68:\n      dup3\n      dup1\n      sload\n      dup3\n      dup3\n      sstore\n      swap1\n      0x00\n      mstore\n      keccak256(0x00, 0x20)\n      swap1\n      dup2\n      add\n      swap3\n      dup3\n      iszero\n      tag_93\n      jumpi\n      swap2\n      0x20\n      mul\n      dup3\n      add\n    tag_94:\n      dup3\n      dup2\n      gt\n      iszero\n      tag_95\n      jumpi\n      dup3\n      mload\n      dup3\n      exp(0x0100, 0x00)\n      dup2\n      sload\n      dup2\n      0xffffffffffffffffffffffffffffffffffffffff\n      mul\n      not\n      and\n      swap1\n      dup4\n      0xffffffffffffffffffffffffffffffffffffffff\n      and\n      mul\n      or\n      swap1\n      sstore\n      pop\n      swap2\n      0x20\n      add\n      swap2\n      swap1\n      0x01\n      add\n      swap1\n      jump(tag_94)\n    tag_95:\n    tag_93:\n      pop\n      swap1\n      pop\n      tag_96\n      swap2\n      swap1\n      tag_97\n      jump\t// in\n    tag_96:\n      pop\n      swap1\n      jump\t// out\n    tag_97:\n    tag_98:\n      dup1\n      dup3\n      gt\n      iszero\n      tag_99\n      jumpi\n      0x00\n      dup2\n      0x00\n      swap1\n      sstore\n      pop\n      0x01\n      add\n      jump(tag_98)\n    tag_99:\n      pop\n      swap1\n      jump\t// out\n        /* \"#utility.yul\":7:84   */\n    tag_100:\n        /* \"#utility.yul\":44:51   */\n      0x00\n        /* \"#utility.yul\":73:78   */\n      dup2\n        /* \"#utility.yul\":62:78   */\n      swap1\n      pop\n        /* \"#utility.yul\":7:84   */\n      swap2\n      swap1\n      pop\n      jump\t// out\n        /* \"#utility.yul\":90:208   */\n    tag_101:\n        /* \"#utility.yul\":177:201   */\n      tag_134\n        /* \"#utility.yul\":195:200   */\n      dup2\n        /* \"#utility.yul\":177:201   */\n      tag_100\n      jump\t// in\n    tag_134:\n        /* \"#utility.yul\":172:175   */\n      dup3\n        /* \"#utility.yul\":165:202   */\n      mstore\n        /* \"#utility.yul\":90:208   */\n      pop\n      pop\n      jump\t// out\n        /* \"#utility.yul\":214:436   */\n    tag_20:\n        /* \"#utility.yul\":307:311   */\n      0x00\n        /* \"#utility.yul\":345:347   */\n      0x20\n        /* \"#utility.yul\":334:343   */\n      dup3\n        /* \"#utility.yul\":330:348   */\n      add\n        /* \"#utility.yul\":322:348   */\n      swap1\n      pop\n        /* \"#utility.yul\":358:429   */\n      tag_136\n        /* \"#utility.yul\":426:427   */\n      0x00\n        /* \"#utility.yul\":415:424   */\n      dup4\n        /* \"#utility.yul\":411:428   */\n      add\n        /* \"#utility.yul\":402:408   */\n      dup5\n        /* \"#utility.yul\":358:429   */\n      tag_101\n      jump\t// in\n    tag_136:\n        /* \"#utility.yul\":214:436   */\n      swap3\n      swap2\n      pop\n      pop\n      jump\t// out\n        /* \"#utility.yul\":523:640   */\n    tag_103:\n        /* \"#utility.yul\":632:633   */\n      0x00\n        /* \"#utility.yul\":629:630   */\n      0x00\n        /* \"#utility.yul\":622:634   */\n      revert\n        /* \"#utility.yul\":769:895   */\n    tag_105:\n        /* \"#utility.yul\":806:813   */\n      0x00\n        /* \"#utility.yul\":846:888   */\n      0xffffffffffffffffffffffffffffffffffffffff\n        /* \"#utility.yul\":839:844   */\n      dup3\n        /* \"#utility.yul\":835:889   */\n      and\n        /* \"#utility.yul\":824:889   */\n      swap1\n      pop\n        /* \"#utility.yul\":769:895   */\n      swap2\n      swap1\n      pop\n      jump\t// out\n        /* \"#utility.yul\":901:997   */\n    tag_106:\n        /* \"#utility.yul\":938:945   */\n      0x00\n        /* \"#utility.yul\":967:991   */\n      tag_142\n        /* \"#utility.yul\":985:990   */\n      dup3\n        /* \"#utility.yul\":967:991   */\n      tag_105\n      jump\t// in\n    tag_142:\n        /* \"#utility.yul\":956:991   */\n      swap1\n      pop\n        /* \"#utility.yul\":901:997   */\n      swap2\n      swap1\n      pop\n      jump\t// out\n        /* \"#utility.yul\":1003:1125   */\n    tag_107:\n        /* \"#utility.yul\":1076:1100   */\n      tag_144\n        /* \"#utility.yul\":1094:1099   */\n      dup2\n        /* \"#utility.yul\":1076:1100   */\n      tag_106\n      jump\t// in\n    tag_144:\n        /* \"#utility.yul\":1069:1074   */\n      dup2\n        /* \"#utility.yul\":1066:1101   */\n      eq\n        /* \"#utility.yul\":1056:1119   */\n      tag_145\n      jumpi\n        /* \"#utility.yul\":1115:1116   */\n      0x00\n        /* \"#utility.yul\":1112:1113   */\n      0x00\n        /* \"#utility.yul\":1105:1117   */\n      revert\n        /* \"#utility.yul\":1056:1119   */\n    tag_145:\n        /* \"#utility.yul\":1003:1125   */\n      pop\n      jump\t// out\n        /* \"#utility.yul\":1131:1270   */\n    tag_108:\n        /* \"#utility.yul\":1177:1182   */\n      0x00\n        /* \"#utility.yul\":1215:1221   */\n      dup2\n        /* \"#utility.yul\":1202:1222   */\n      calldataload\n        /* \"#utility.yul\":1193:1222   */\n      swap1\n      pop\n        /* \"#utility.yul\":1231:1264   */\n      tag_147\n        /* \"#utility.yul\":1258:1263   */\n      dup2\n        /* \"#utility.yul\":1231:1264   */\n      tag_107\n      jump\t// in\n    tag_147:\n        /* \"#utility.yul\":1131:1270   */\n      swap3\n      swap2\n      pop\n      pop\n      jump\t// out\n        /* \"#utility.yul\":1276:1605   */\n    tag_27:\n        /* \"#utility.yul\":1335:1341   */\n      0x00\n        /* \"#utility.yul\":1384:1386   */\n      0x20\n        /* \"#utility.yul\":1372:1381   */\n      dup3\n        /* \"#utility.yul\":1363:1370   */\n      dup5\n        /* \"#utility.yul\":1359:1382   */\n      sub\n        /* \"#utility.yul\":1355:1387   */\n      slt\n        /* \"#utility.yul\":1352:1471   */\n      iszero\n      tag_149\n      jumpi\n        /* \"#utility.yul\":1390:1469   */\n      tag_150\n      tag_103\n      jump\t// in\n    tag_150:\n        /* \"#utility.yul\":1352:1471   */\n    tag_149:\n        /* \"#utility.yul\":1510:1511   */\n      0x00\n        /* \"#utility.yul\":1535:1588   */\n      tag_151\n        /* \"#utility.yul\":1580:1587   */\n      dup5\n        /* \"#utility.yul\":1571:1577   */\n      dup3\n        /* \"#utility.yul\":1560:1569   */\n      dup6\n        /* \"#utility.yul\":1556:1578   */\n      add\n        /* \"#utility.yul\":1535:1588   */\n      tag_108\n      jump\t// in\n    tag_151:\n        /* \"#utility.yul\":1525:1588   */\n      swap2\n      pop\n        /* \"#utility.yul\":1481:1598   */\n      pop\n        /* \"#utility.yul\":1276:1605   */\n      swap3\n      swap2\n      pop\n      pop\n      jump\t// out\n        /* \"#utility.yul\":1611:1733   */\n    tag_109:\n        /* \"#utility.yul\":1684:1708   */\n      tag_153\n        /* \"#utility.yul\":1702:1707   */\n      dup2\n        /* \"#utility.yul\":1684:1708   */\n      tag_100\n      jump\t// in\n    tag_153:\n        /* \"#utility.yul\":1677:1682   */\n      dup2\n        /* \"#utility.yul\":1674:1709   */\n      eq\n        /* \"#utility.yul\":1664:1727   */\n      tag_154\n      jumpi\n        /* \"#utility.yul\":1723:1724   */\n      0x00\n        /* \"#utility.yul\":1720:1721   */\n      0x00\n        /* \"#utility.yul\":1713:1725   */\n      revert\n        /* \"#utility.yul\":1664:1727   */\n    tag_154:\n        /* \"#utility.yul\":1611:1733   */\n      pop\n      jump\t// out\n        /* \"#utility.yul\":1739:1878   */\n    tag_110:\n        /* \"#utility.yul\":1785:1790   */\n      0x00\n        /* \"#utility.yul\":1823:1829   */\n      dup2\n        /* \"#utility.yul\":1810:1830   */\n      calldataload\n        /* \"#utility.yul\":1801:1830   */\n      swap1\n      pop\n        /* \"#utility.yul\":1839:1872   */\n      tag_156\n        /* \"#utility.yul\":1866:1871   */\n      dup2\n        /* \"#utility.yul\":1839:1872   */\n      tag_109\n      jump\t// in\n    tag_156:\n        /* \"#utility.yul\":1739:1878   */\n      swap3\n      swap2\n      pop\n      pop\n      jump\t// out\n        /* \"#utility.yul\":1884:2213   */\n    tag_34:\n        /* \"#utility.yul\":1943:1949   */\n      0x00\n        /* \"#utility.yul\":1992:1994   */\n      0x20\n        /* \"#utility.yul\":1980:1989   */\n      dup3\n        /* \"#utility.yul\":1971:1978   */\n      dup5\n        /* \"#utility.yul\":1967:1990   */\n      sub\n        /* \"#utility.yul\":1963:1995   */\n      slt\n        /* \"#utility.yul\":1960:2079   */\n      iszero\n      tag_158\n      jumpi\n        /* \"#utility.yul\":1998:2077   */\n      tag_159\n      tag_103\n      jump\t// in\n    tag_159:\n        /* \"#utility.yul\":1960:2079   */\n    tag_158:\n        /* \"#utility.yul\":2118:2119   */\n      0x00\n        /* \"#utility.yul\":2143:2196   */\n      tag_160\n        /* \"#utility.yul\":2188:2195   */\n      dup5\n        /* \"#utility.yul\":2179:2185   */\n      dup3\n        /* \"#utility.yul\":2168:2177   */\n      dup6\n        /* \"#utility.yul\":2164:2186   */\n      add\n        /* \"#utility.yul\":2143:2196   */\n      tag_110\n      jump\t// in\n    tag_160:\n        /* \"#utility.yul\":2133:2196   */\n      swap2\n      pop\n        /* \"#utility.yul\":2089:2206   */\n      pop\n        /* \"#utility.yul\":1884:2213   */\n      swap3\n      swap2\n      pop\n      pop\n      jump\t// out\n        /* \"#utility.yul\":2219:2337   */\n    tag_111:\n        /* \"#utility.yul\":2306:2330   */\n      tag_162\n        /* \"#utility.yul\":2324:2329   */\n      dup2\n        /* \"#utility.yul\":2306:2330   */\n      tag_106\n      jump\t// in\n    tag_162:\n        /* \"#utility.yul\":2301:2304   */\n      dup3\n        /* \"#utility.yul\":2294:2331   */\n      mstore\n        /* \"#utility.yul\":2219:2337   */\n      pop\n      pop\n      jump\t// out\n        /* \"#utility.yul\":2343:2565   */\n    tag_37:\n        /* \"#utility.yul\":2436:2440   */\n      0x00\n        /* \"#utility.yul\":2474:2476   */\n      0x20\n        /* \"#utility.yul\":2463:2472   */\n      dup3\n        /* \"#utility.yul\":2459:2477   */\n      add\n        /* \"#utility.yul\":2451:2477   */\n      swap1\n      pop\n        /* \"#utility.yul\":2487:2558   */\n      tag_164\n        /* \"#utility.yul\":2555:2556   */\n      0x00\n        /* \"#utility.yul\":2544:2553   */\n      dup4\n        /* \"#utility.yul\":2540:2557   */\n      add\n        /* \"#utility.yul\":2531:2537   */\n      dup5\n        /* \"#utility.yul\":2487:2558   */\n      tag_111\n      jump\t// in\n    tag_164:\n        /* \"#utility.yul\":2343:2565   */\n      swap3\n      swap2\n      pop\n      pop\n      jump\t// out\n        /* \"#utility.yul\":2571:2740   */\n    tag_112:\n        /* \"#utility.yul\":2655:2666   */\n      0x00\n        /* \"#utility.yul\":2689:2695   */\n      dup3\n        /* \"#utility.yul\":2684:2687   */\n      dup3\n        /* \"#utility.yul\":2677:2696   */\n      mstore\n        /* \"#utility.yul\":2729:2733   */\n      0x20\n        /* \"#utility.yul\":2724:2727   */\n      dup3\n        /* \"#utility.yul\":2720:2734   */\n      add\n        /* \"#utility.yul\":2705:2734   */\n      swap1\n      pop\n        /* \"#utility.yul\":2571:2740   */\n      swap3\n      swap2\n      pop\n      pop\n      jump\t// out\n        /* \"#utility.yul\":2746:2919   */\n    tag_113:\n        /* \"#utility.yul\":2886:2911   */\n      0x446964206e6f742073656e6420656e6f75676820455448000000000000000000\n        /* \"#utility.yul\":2882:2883   */\n      0x00\n        /* \"#utility.yul\":2874:2880   */\n      dup3\n        /* \"#utility.yul\":2870:2884   */\n      add\n        /* \"#utility.yul\":2863:2912   */\n      mstore\n        /* \"#utility.yul\":2746:2919   */\n      pop\n      jump\t// out\n        /* \"#utility.yul\":2925:3291   */\n    tag_114:\n        /* \"#utility.yul\":3067:3070   */\n      0x00\n        /* \"#utility.yul\":3088:3155   */\n      tag_168\n        /* \"#utility.yul\":3152:3154   */\n      0x17\n        /* \"#utility.yul\":3147:3150   */\n      dup4\n        /* \"#utility.yul\":3088:3155   */\n      tag_112\n      jump\t// in\n    tag_168:\n        /* \"#utility.yul\":3081:3155   */\n      swap2\n      pop\n        /* \"#utility.yul\":3164:3257   */\n      tag_169\n        /* \"#utility.yul\":3253:3256   */\n      dup3\n        /* \"#utility.yul\":3164:3257   */\n      tag_113\n      jump\t// in\n    tag_169:\n        /* \"#utility.yul\":3282:3284   */\n      0x20\n        /* \"#utility.yul\":3277:3280   */\n      dup3\n        /* \"#utility.yul\":3273:3285   */\n      add\n        /* \"#utility.yul\":3266:3285   */\n      swap1\n      pop\n        /* \"#utility.yul\":2925:3291   */\n      swap2\n      swap1\n      pop\n      jump\t// out\n        /* \"#utility.yul\":3297:3716   */\n    tag_47:\n        /* \"#utility.yul\":3463:3467   */\n      0x00\n        /* \"#utility.yul\":3501:3503   */\n      0x20\n        /* \"#utility.yul\":3490:3499   */\n      dup3\n        /* \"#utility.yul\":3486:3504   */\n      add\n        /* \"#utility.yul\":3478:3504   */\n      swap1\n      pop\n        /* \"#utility.yul\":3550:3559   */\n      dup2\n        /* \"#utility.yul\":3544:3548   */\n      dup2\n        /* \"#utility.yul\":3540:3560   */\n      sub\n        /* \"#utility.yul\":3536:3537   */\n      0x00\n        /* \"#utility.yul\":3525:3534   */\n      dup4\n        /* \"#utility.yul\":3521:3538   */\n      add\n        /* \"#utility.yul\":3514:3561   */\n      mstore\n        /* \"#utility.yul\":3578:3709   */\n      tag_171\n        /* \"#utility.yul\":3704:3708   */\n      dup2\n        /* \"#utility.yul\":3578:3709   */\n      tag_114\n      jump\t// in\n    tag_171:\n        /* \"#utility.yul\":3570:3709   */\n      swap1\n      pop\n        /* \"#utility.yul\":3297:3716   */\n      swap2\n      swap1\n      pop\n      jump\t// out\n        /* \"#utility.yul\":3722:3902   */\n    tag_115:\n        /* \"#utility.yul\":3770:3847   */\n      0x4e487b7100000000000000000000000000000000000000000000000000000000\n        /* \"#utility.yul\":3767:3768   */\n      0x00\n        /* \"#utility.yul\":3760:3848   */\n      mstore\n        /* \"#utility.yul\":3867:3871   */\n      0x11\n        /* \"#utility.yul\":3864:3865   */\n      0x04\n        /* \"#utility.yul\":3857:3872   */\n      mstore\n        /* \"#utility.yul\":3891:3895   */\n      0x24\n        /* \"#utility.yul\":3888:3889   */\n      0x00\n        /* \"#utility.yul\":3881:3896   */\n      revert\n        /* \"#utility.yul\":3908:4099   */\n    tag_50:\n        /* \"#utility.yul\":3948:3951   */\n      0x00\n        /* \"#utility.yul\":3967:3987   */\n      tag_174\n        /* \"#utility.yul\":3985:3986   */\n      dup3\n        /* \"#utility.yul\":3967:3987   */\n      tag_100\n      jump\t// in\n    tag_174:\n        /* \"#utility.yul\":3962:3987   */\n      swap2\n      pop\n        /* \"#utility.yul\":4001:4021   */\n      tag_175\n        /* \"#utility.yul\":4019:4020   */\n      dup4\n        /* \"#utility.yul\":4001:4021   */\n      tag_100\n      jump\t// in\n    tag_175:\n        /* \"#utility.yul\":3996:4021   */\n      swap3\n      pop\n        /* \"#utility.yul\":4044:4045   */\n      dup3\n        /* \"#utility.yul\":4041:4042   */\n      dup3\n        /* \"#utility.yul\":4037:4046   */\n      add\n        /* \"#utility.yul\":4030:4046   */\n      swap1\n      pop\n        /* \"#utility.yul\":4065:4068   */\n      dup1\n        /* \"#utility.yul\":4062:4063   */\n      dup3\n        /* \"#utility.yul\":4059:4069   */\n      gt\n        /* \"#utility.yul\":4056:4092   */\n      iszero\n      tag_176\n      jumpi\n        /* \"#utility.yul\":4072:4090   */\n      tag_177\n      tag_115\n      jump\t// in\n    tag_177:\n        /* \"#utility.yul\":4056:4092   */\n    tag_176:\n        /* \"#utility.yul\":3908:4099   */\n      swap3\n      swap2\n      pop\n      pop\n      jump\t// out\n        /* \"#utility.yul\":4105:4269   */\n    tag_116:\n        /* \"#utility.yul\":4245:4261   */\n      0x4d757374206265204f776e657221000000000000000000000000000000000000\n        /* \"#utility.yul\":4241:4242   */\n      0x00\n        /* \"#utility.yul\":4233:4239   */\n      dup3\n        /* \"#utility.yul\":4229:4243   */\n      add\n        /* \"#utility.yul\":4222:4262   */\n      mstore\n        /* \"#utility.yul\":4105:4269   */\n      pop\n      jump\t// out\n        /* \"#utility.yul\":4275:4641   */\n    tag_117:\n        /* \"#utility.yul\":4417:4420   */\n      0x00\n        /* \"#utility.yul\":4438:4505   */\n      tag_180\n        /* \"#utility.yul\":4502:4504   */\n      0x0e\n        /* \"#utility.yul\":4497:4500   */\n      dup4\n        /* \"#utility.yul\":4438:4505   */\n      tag_112\n      jump\t// in\n    tag_180:\n        /* \"#utility.yul\":4431:4505   */\n      swap2\n      pop\n        /* \"#utility.yul\":4514:4607   */\n      tag_181\n        /* \"#utility.yul\":4603:4606   */\n      dup3\n        /* \"#utility.yul\":4514:4607   */\n      tag_116\n      jump\t// in\n    tag_181:\n        /* \"#utility.yul\":4632:4634   */\n      0x20\n        /* \"#utility.yul\":4627:4630   */\n      dup3\n        /* \"#utility.yul\":4623:4635   */\n      add\n        /* \"#utility.yul\":4616:4635   */\n      swap1\n      pop\n        /* \"#utility.yul\":4275:4641   */\n      swap2\n      swap1\n      pop\n      jump\t// out\n        /* \"#utility.yul\":4647:5066   */\n    tag_54:\n        /* \"#utility.yul\":4813:4817   */\n      0x00\n        /* \"#utility.yul\":4851:4853   */\n      0x20\n        /* \"#utility.yul\":4840:4849   */\n      dup3\n        /* \"#utility.yul\":4836:4854   */\n      add\n        /* \"#utility.yul\":4828:4854   */\n      swap1\n      pop\n        /* \"#utility.yul\":4900:4909   */\n      dup2\n        /* \"#utility.yul\":4894:4898   */\n      dup2\n        /* \"#utility.yul\":4890:4910   */\n      sub\n        /* \"#utility.yul\":4886:4887   */\n      0x00\n        /* \"#utility.yul\":4875:4884   */\n      dup4\n        /* \"#utility.yul\":4871:4888   */\n      add\n        /* \"#utility.yul\":4864:4911   */\n      mstore\n        /* \"#utility.yul\":4928:5059   */\n      tag_183\n        /* \"#utility.yul\":5054:5058   */\n      dup2\n        /* \"#utility.yul\":4928:5059   */\n      tag_117\n      jump\t// in\n    tag_183:\n        /* \"#utility.yul\":4920:5059   */\n      swap1\n      pop\n        /* \"#utility.yul\":4647:5066   */\n      swap2\n      swap1\n      pop\n      jump\t// out\n        /* \"#utility.yul\":5072:5252   */\n    tag_61:\n        /* \"#utility.yul\":5120:5197   */\n      0x4e487b7100000000000000000000000000000000000000000000000000000000\n        /* \"#utility.yul\":5117:5118   */\n      0x00\n        /* \"#utility.yul\":5110:5198   */\n      mstore\n        /* \"#utility.yul\":5217:5221   */\n      0x32\n        /* \"#utility.yul\":5214:5215   */\n      0x04\n        /* \"#utility.yul\":5207:5222   */\n      mstore\n        /* \"#utility.yul\":5241:5245   */\n      0x24\n        /* \"#utility.yul\":5238:5239   */\n      0x00\n        /* \"#utility.yul\":5231:5246   */\n      revert\n        /* \"#utility.yul\":5258:5438   */\n    tag_65:\n        /* \"#utility.yul\":5306:5383   */\n      0x4e487b7100000000000000000000000000000000000000000000000000000000\n        /* \"#utility.yul\":5303:5304   */\n      0x00\n        /* \"#utility.yul\":5296:5384   */\n      mstore\n        /* \"#utility.yul\":5403:5407   */\n      0x41\n        /* \"#utility.yul\":5400:5401   */\n      0x04\n        /* \"#utility.yul\":5393:5408   */\n      mstore\n        /* \"#utility.yul\":5427:5431   */\n      0x24\n        /* \"#utility.yul\":5424:5425   */\n      0x00\n        /* \"#utility.yul\":5417:5432   */\n      revert\n        /* \"#utility.yul\":5444:5591   */\n    tag_118:\n        /* \"#utility.yul\":5545:5556   */\n      0x00\n        /* \"#utility.yul\":5582:5585   */\n      dup2\n        /* \"#utility.yul\":5567:5585   */\n      swap1\n      pop\n        /* \"#utility.yul\":5444:5591   */\n      swap3\n      swap2\n      pop\n      pop\n      jump\t// out\n        /* \"#utility.yul\":5597:5711   */\n    tag_119:\n      pop\n      jump\t// out\n        /* \"#utility.yul\":5717:6115   */\n    tag_120:\n        /* \"#utility.yul\":5876:5879   */\n      0x00\n        /* \"#utility.yul\":5897:5980   */\n      tag_189\n        /* \"#utility.yul\":5978:5979   */\n      0x00\n        /* \"#utility.yul\":5973:5976   */\n      dup4\n        /* \"#utility.yul\":5897:5980   */\n      tag_118\n      jump\t// in\n    tag_189:\n        /* \"#utility.yul\":5890:5980   */\n      swap2\n      pop\n        /* \"#utility.yul\":5989:6082   */\n      tag_190\n        /* \"#utility.yul\":6078:6081   */\n      dup3\n        /* \"#utility.yul\":5989:6082   */\n      tag_119\n      jump\t// in\n    tag_190:\n        /* \"#utility.yul\":6107:6108   */\n      0x00\n        /* \"#utility.yul\":6102:6105   */\n      dup3\n        /* \"#utility.yul\":6098:6109   */\n      add\n        /* \"#utility.yul\":6091:6109   */\n      swap1\n      pop\n        /* \"#utility.yul\":5717:6115   */\n      swap2\n      swap1\n      pop\n      jump\t// out\n        /* \"#utility.yul\":6121:6500   */\n    tag_70:\n        /* \"#utility.yul\":6305:6308   */\n      0x00\n        /* \"#utility.yul\":6327:6474   */\n      tag_192\n        /* \"#utility.yul\":6470:6473   */\n      dup3\n        /* \"#utility.yul\":6327:6474   */\n      tag_120\n      jump\t// in\n    tag_192:\n        /* \"#utility.yul\":6320:6474   */\n      swap2\n      pop\n        /* \"#utility.yul\":6491:6494   */\n      dup2\n        /* \"#utility.yul\":6484:6494   */\n      swap1\n      pop\n        /* \"#utility.yul\":6121:6500   */\n      swap2\n      swap1\n      pop\n      jump\t// out\n        /* \"#utility.yul\":6506:6667   */\n    tag_121:\n        /* \"#utility.yul\":6646:6659   */\n      0x53656e64206661696c6564000000000000000000000000000000000000000000\n        /* \"#utility.yul\":6642:6643   */\n      0x00\n        /* \"#utility.yul\":6634:6640   */\n      dup3\n        /* \"#utility.yul\":6630:6644   */\n      add\n        /* \"#utility.yul\":6623:6660   */\n      mstore\n        /* \"#utility.yul\":6506:6667   */\n      pop\n      jump\t// out\n        /* \"#utility.yul\":6673:7039   */\n    tag_122:\n        /* \"#utility.yul\":6815:6818   */\n      0x00\n        /* \"#utility.yul\":6836:6903   */\n      tag_195\n        /* \"#utility.yul\":6900:6902   */\n      0x0b\n        /* \"#utility.yul\":6895:6898   */\n      dup4\n        /* \"#utility.yul\":6836:6903   */\n      tag_112\n      jump\t// in\n    tag_195:\n        /* \"#utility.yul\":6829:6903   */\n      swap2\n      pop\n        /* \"#utility.yul\":6912:7005   */\n      tag_196\n        /* \"#utility.yul\":7001:7004   */\n      dup3\n        /* \"#utility.yul\":6912:7005   */\n      tag_121\n      jump\t// in\n    tag_196:\n        /* \"#utility.yul\":7030:7032   */\n      0x20\n        /* \"#utility.yul\":7025:7028   */\n      dup3\n        /* \"#utility.yul\":7021:7033   */\n      add\n        /* \"#utility.yul\":7014:7033   */\n      swap1\n      pop\n        /* \"#utility.yul\":6673:7039   */\n      swap2\n      swap1\n      pop\n      jump\t// out\n        /* \"#utility.yul\":7045:7464   */\n    tag_76:\n        /* \"#utility.yul\":7211:7215   */\n      0x00\n        /* \"#utility.yul\":7249:7251   */\n      0x20\n        /* \"#utility.yul\":7238:7247   */\n      dup3\n        /* \"#utility.yul\":7234:7252   */\n      add\n        /* \"#utility.yul\":7226:7252   */\n      swap1\n      pop\n        /* \"#utility.yul\":7298:7307   */\n      dup2\n        /* \"#utility.yul\":7292:7296   */\n      dup2\n        /* \"#utility.yul\":7288:7308   */\n      sub\n        /* \"#utility.yul\":7284:7285   */\n      0x00\n        /* \"#utility.yul\":7273:7282   */\n      dup4\n        /* \"#utility.yul\":7269:7286   */\n      add\n        /* \"#utility.yul\":7262:7309   */\n      mstore\n        /* \"#utility.yul\":7326:7457   */\n      tag_198\n        /* \"#utility.yul\":7452:7456   */\n      dup2\n        /* \"#utility.yul\":7326:7457   */\n      tag_122\n      jump\t// in\n    tag_198:\n        /* \"#utility.yul\":7318:7457   */\n      swap1\n      pop\n        /* \"#utility.yul\":7045:7464   */\n      swap2\n      swap1\n      pop\n      jump\t// out\n        /* \"#utility.yul\":7470:7880   */\n    tag_83:\n        /* \"#utility.yul\":7510:7517   */\n      0x00\n        /* \"#utility.yul\":7533:7553   */\n      tag_200\n        /* \"#utility.yul\":7551:7552   */\n      dup3\n        /* \"#utility.yul\":7533:7553   */\n      tag_100\n      jump\t// in\n    tag_200:\n        /* \"#utility.yul\":7528:7553   */\n      swap2\n      pop\n        /* \"#utility.yul\":7567:7587   */\n      tag_201\n        /* \"#utility.yul\":7585:7586   */\n      dup4\n        /* \"#utility.yul\":7567:7587   */\n      tag_100\n      jump\t// in\n    tag_201:\n        /* \"#utility.yul\":7562:7587   */\n      swap3\n      pop\n        /* \"#utility.yul\":7622:7623   */\n      dup3\n        /* \"#utility.yul\":7619:7620   */\n      dup3\n        /* \"#utility.yul\":7615:7624   */\n      mul\n        /* \"#utility.yul\":7644:7674   */\n      tag_202\n        /* \"#utility.yul\":7662:7673   */\n      dup2\n        /* \"#utility.yul\":7644:7674   */\n      tag_100\n      jump\t// in\n    tag_202:\n        /* \"#utility.yul\":7633:7674   */\n      swap2\n      pop\n        /* \"#utility.yul\":7823:7824   */\n      dup3\n        /* \"#utility.yul\":7814:7821   */\n      dup3\n        /* \"#utility.yul\":7810:7825   */\n      div\n        /* \"#utility.yul\":7807:7808   */\n      dup5\n        /* \"#utility.yul\":7804:7826   */\n      eq\n        /* \"#utility.yul\":7784:7785   */\n      dup4\n        /* \"#utility.yul\":7777:7786   */\n      iszero\n        /* \"#utility.yul\":7757:7840   */\n      or\n        /* \"#utility.yul\":7734:7873   */\n      tag_203\n      jumpi\n        /* \"#utility.yul\":7853:7871   */\n      tag_204\n      tag_115\n      jump\t// in\n    tag_204:\n        /* \"#utility.yul\":7734:7873   */\n    tag_203:\n        /* \"#utility.yul\":7518:7880   */\n      pop\n        /* \"#utility.yul\":7470:7880   */\n      swap3\n      swap2\n      pop\n      pop\n      jump\t// out\n        /* \"#utility.yul\":7886:8066   */\n    tag_123:\n        /* \"#utility.yul\":7934:8011   */\n      0x4e487b7100000000000000000000000000000000000000000000000000000000\n        /* \"#utility.yul\":7931:7932   */\n      0x00\n        /* \"#utility.yul\":7924:8012   */\n      mstore\n        /* \"#utility.yul\":8031:8035   */\n      0x12\n        /* \"#utility.yul\":8028:8029   */\n      0x04\n        /* \"#utility.yul\":8021:8036   */\n      mstore\n        /* \"#utility.yul\":8055:8059   */\n      0x24\n        /* \"#utility.yul\":8052:8053   */\n      0x00\n        /* \"#utility.yul\":8045:8060   */\n      revert\n        /* \"#utility.yul\":8072:8257   */\n    tag_85:\n        /* \"#utility.yul\":8112:8113   */\n      0x00\n        /* \"#utility.yul\":8129:8149   */\n      tag_207\n        /* \"#utility.yul\":8147:8148   */\n      dup3\n        /* \"#utility.yul\":8129:8149   */\n      tag_100\n      jump\t// in\n    tag_207:\n        /* \"#utility.yul\":8124:8149   */\n      swap2\n      pop\n        /* \"#utility.yul\":8163:8183   */\n      tag_208\n        /* \"#utility.yul\":8181:8182   */\n      dup4\n        /* \"#utility.yul\":8163:8183   */\n      tag_100\n      jump\t// in\n    tag_208:\n        /* \"#utility.yul\":8158:8183   */\n      swap3\n      pop\n        /* \"#utility.yul\":8202:8203   */\n      dup3\n        /* \"#utility.yul\":8192:8227   */\n      tag_209\n      jumpi\n        /* \"#utility.yul\":8207:8225   */\n      tag_210\n      tag_123\n      jump\t// in\n    tag_210:\n        /* \"#utility.yul\":8192:8227   */\n    tag_209:\n        /* \"#utility.yul\":8249:8250   */\n      dup3\n        /* \"#utility.yul\":8246:8247   */\n      dup3\n        /* \"#utility.yul\":8242:8251   */\n      div\n        /* \"#utility.yul\":8237:8251   */\n      swap1\n      pop\n        /* \"#utility.yul\":8072:8257   */\n      swap3\n      swap2\n      pop\n      pop\n      jump\t// out\n        /* \"#utility.yul\":8263:8368   */\n    tag_124:\n        /* \"#utility.yul\":8299:8306   */\n      0x00\n        /* \"#utility.yul\":8339:8361   */\n      0xffffffffffffffffffff\n        /* \"#utility.yul\":8332:8337   */\n      dup3\n        /* \"#utility.yul\":8328:8362   */\n      and\n        /* \"#utility.yul\":8317:8362   */\n      swap1\n      pop\n        /* \"#utility.yul\":8263:8368   */\n      swap2\n      swap1\n      pop\n      jump\t// out\n        /* \"#utility.yul\":8374:8494   */\n    tag_125:\n        /* \"#utility.yul\":8446:8469   */\n      tag_213\n        /* \"#utility.yul\":8463:8468   */\n      dup2\n        /* \"#utility.yul\":8446:8469   */\n      tag_124\n      jump\t// in\n    tag_213:\n        /* \"#utility.yul\":8439:8444   */\n      dup2\n        /* \"#utility.yul\":8436:8470   */\n      eq\n        /* \"#utility.yul\":8426:8488   */\n      tag_214\n      jumpi\n        /* \"#utility.yul\":8484:8485   */\n      0x00\n        /* \"#utility.yul\":8481:8482   */\n      0x00\n        /* \"#utility.yul\":8474:8486   */\n      revert\n        /* \"#utility.yul\":8426:8488   */\n    tag_214:\n        /* \"#utility.yul\":8374:8494   */\n      pop\n      jump\t// out\n        /* \"#utility.yul\":8500:8641   */\n    tag_126:\n        /* \"#utility.yul\":8556:8561   */\n      0x00\n        /* \"#utility.yul\":8587:8593   */\n      dup2\n        /* \"#utility.yul\":8581:8594   */\n      mload\n        /* \"#utility.yul\":8572:8594   */\n      swap1\n      pop\n        /* \"#utility.yul\":8603:8635   */\n      tag_216\n        /* \"#utility.yul\":8629:8634   */\n      dup2\n        /* \"#utility.yul\":8603:8635   */\n      tag_125\n      jump\t// in\n    tag_216:\n        /* \"#utility.yul\":8500:8641   */\n      swap3\n      swap2\n      pop\n      pop\n      jump\t// out\n        /* \"#utility.yul\":8647:8723   */\n    tag_127:\n        /* \"#utility.yul\":8683:8690   */\n      0x00\n        /* \"#utility.yul\":8712:8717   */\n      dup2\n        /* \"#utility.yul\":8701:8717   */\n      swap1\n      pop\n        /* \"#utility.yul\":8647:8723   */\n      swap2\n      swap1\n      pop\n      jump\t// out\n        /* \"#utility.yul\":8729:8849   */\n    tag_128:\n        /* \"#utility.yul\":8801:8824   */\n      tag_219\n        /* \"#utility.yul\":8818:8823   */\n      dup2\n        /* \"#utility.yul\":8801:8824   */\n      tag_127\n      jump\t// in\n    tag_219:\n        /* \"#utility.yul\":8794:8799   */\n      dup2\n        /* \"#utility.yul\":8791:8825   */\n      eq\n        /* \"#utility.yul\":8781:8843   */\n      tag_220\n      jumpi\n        /* \"#utility.yul\":8839:8840   */\n      0x00\n        /* \"#utility.yul\":8836:8837   */\n      0x00\n        /* \"#utility.yul\":8829:8841   */\n      revert\n        /* \"#utility.yul\":8781:8843   */\n    tag_220:\n        /* \"#utility.yul\":8729:8849   */\n      pop\n      jump\t// out\n        /* \"#utility.yul\":8855:8996   */\n    tag_129:\n        /* \"#utility.yul\":8911:8916   */\n      0x00\n        /* \"#utility.yul\":8942:8948   */\n      dup2\n        /* \"#utility.yul\":8936:8949   */\n      mload\n        /* \"#utility.yul\":8927:8949   */\n      swap1\n      pop\n        /* \"#utility.yul\":8958:8990   */\n      tag_222\n        /* \"#utility.yul\":8984:8989   */\n      dup2\n        /* \"#utility.yul\":8958:8990   */\n      tag_128\n      jump\t// in\n    tag_222:\n        /* \"#utility.yul\":8855:8996   */\n      swap3\n      swap2\n      pop\n      pop\n      jump\t// out\n        /* \"#utility.yul\":9002:9145   */\n    tag_130:\n        /* \"#utility.yul\":9059:9064   */\n      0x00\n        /* \"#utility.yul\":9090:9096   */\n      dup2\n        /* \"#utility.yul\":9084:9097   */\n      mload\n        /* \"#utility.yul\":9075:9097   */\n      swap1\n      pop\n        /* \"#utility.yul\":9106:9139   */\n      tag_224\n        /* \"#utility.yul\":9133:9138   */\n      dup2\n        /* \"#utility.yul\":9106:9139   */\n      tag_109\n      jump\t// in\n    tag_224:\n        /* \"#utility.yul\":9002:9145   */\n      swap3\n      swap2\n      pop\n      pop\n      jump\t// out\n        /* \"#utility.yul\":9151:10122   */\n    tag_90:\n        /* \"#utility.yul\":9254:9260   */\n      0x00\n        /* \"#utility.yul\":9262:9268   */\n      0x00\n        /* \"#utility.yul\":9270:9276   */\n      0x00\n        /* \"#utility.yul\":9278:9284   */\n      0x00\n        /* \"#utility.yul\":9286:9292   */\n      0x00\n        /* \"#utility.yul\":9335:9338   */\n      0xa0\n        /* \"#utility.yul\":9323:9332   */\n      dup7\n        /* \"#utility.yul\":9314:9321   */\n      dup9\n        /* \"#utility.yul\":9310:9333   */\n      sub\n        /* \"#utility.yul\":9306:9339   */\n      slt\n        /* \"#utility.yul\":9303:9423   */\n      iszero\n      tag_226\n      jumpi\n        /* \"#utility.yul\":9342:9421   */\n      tag_227\n      tag_103\n      jump\t// in\n    tag_227:\n        /* \"#utility.yul\":9303:9423   */\n    tag_226:\n        /* \"#utility.yul\":9462:9463   */\n      0x00\n        /* \"#utility.yul\":9487:9550   */\n      tag_228\n        /* \"#utility.yul\":9542:9549   */\n      dup9\n        /* \"#utility.yul\":9533:9539   */\n      dup3\n        /* \"#utility.yul\":9522:9531   */\n      dup10\n        /* \"#utility.yul\":9518:9540   */\n      add\n        /* \"#utility.yul\":9487:9550   */\n      tag_126\n      jump\t// in\n    tag_228:\n        /* \"#utility.yul\":9477:9550   */\n      swap6\n      pop\n        /* \"#utility.yul\":9433:9560   */\n      pop\n        /* \"#utility.yul\":9599:9601   */\n      0x20\n        /* \"#utility.yul\":9625:9688   */\n      tag_229\n        /* \"#utility.yul\":9680:9687   */\n      dup9\n        /* \"#utility.yul\":9671:9677   */\n      dup3\n        /* \"#utility.yul\":9660:9669   */\n      dup10\n        /* \"#utility.yul\":9656:9678   */\n      add\n        /* \"#utility.yul\":9625:9688   */\n      tag_129\n      jump\t// in\n    tag_229:\n        /* \"#utility.yul\":9615:9688   */\n      swap5\n      pop\n        /* \"#utility.yul\":9570:9698   */\n      pop\n        /* \"#utility.yul\":9737:9739   */\n      0x40\n        /* \"#utility.yul\":9763:9827   */\n      tag_230\n        /* \"#utility.yul\":9819:9826   */\n      dup9\n        /* \"#utility.yul\":9810:9816   */\n      dup3\n        /* \"#utility.yul\":9799:9808   */\n      dup10\n        /* \"#utility.yul\":9795:9817   */\n      add\n        /* \"#utility.yul\":9763:9827   */\n      tag_130\n      jump\t// in\n    tag_230:\n        /* \"#utility.yul\":9753:9827   */\n      swap4\n      pop\n        /* \"#utility.yul\":9708:9837   */\n      pop\n        /* \"#utility.yul\":9876:9878   */\n      0x60\n        /* \"#utility.yul\":9902:9966   */\n      tag_231\n        /* \"#utility.yul\":9958:9965   */\n      dup9\n        /* \"#utility.yul\":9949:9955   */\n      dup3\n        /* \"#utility.yul\":9938:9947   */\n      dup10\n        /* \"#utility.yul\":9934:9956   */\n      add\n        /* \"#utility.yul\":9902:9966   */\n      tag_130\n      jump\t// in\n    tag_231:\n        /* \"#utility.yul\":9892:9966   */\n      swap3\n      pop\n        /* \"#utility.yul\":9847:9976   */\n      pop\n        /* \"#utility.yul\":10015:10018   */\n      0x80\n        /* \"#utility.yul\":10042:10105   */\n      tag_232\n        /* \"#utility.yul\":10097:10104   */\n      dup9\n        /* \"#utility.yul\":10088:10094   */\n      dup3\n        /* \"#utility.yul\":10077:10086   */\n      dup10\n        /* \"#utility.yul\":10073:10095   */\n      add\n        /* \"#utility.yul\":10042:10105   */\n      tag_126\n      jump\t// in\n    tag_232:\n        /* \"#utility.yul\":10032:10105   */\n      swap2\n      pop\n        /* \"#utility.yul\":9986:10115   */\n      pop\n        /* \"#utility.yul\":9151:10122   */\n      swap3\n      swap6\n      pop\n      swap3\n      swap6\n      swap1\n      swap4\n      pop\n      jump\t// out\n        /* \"#utility.yul\":10128:10684   */\n    tag_92:\n        /* \"#utility.yul\":10167:10174   */\n      0x00\n        /* \"#utility.yul\":10190:10209   */\n      tag_234\n        /* \"#utility.yul\":10207:10208   */\n      dup3\n        /* \"#utility.yul\":10190:10209   */\n      tag_127\n      jump\t// in\n    tag_234:\n        /* \"#utility.yul\":10185:10209   */\n      swap2\n      pop\n        /* \"#utility.yul\":10223:10242   */\n      tag_235\n        /* \"#utility.yul\":10240:10241   */\n      dup4\n        /* \"#utility.yul\":10223:10242   */\n      tag_127\n      jump\t// in\n    tag_235:\n        /* \"#utility.yul\":10218:10242   */\n      swap3\n      pop\n        /* \"#utility.yul\":10277:10278   */\n      dup3\n        /* \"#utility.yul\":10274:10275   */\n      dup3\n        /* \"#utility.yul\":10270:10279   */\n      mul\n        /* \"#utility.yul\":10299:10328   */\n      tag_236\n        /* \"#utility.yul\":10316:10327   */\n      dup2\n        /* \"#utility.yul\":10299:10328   */\n      tag_127\n      jump\t// in\n    tag_236:\n        /* \"#utility.yul\":10288:10328   */\n      swap2\n      pop\n        /* \"#utility.yul\":10386:10452   */\n      0x8000000000000000000000000000000000000000000000000000000000000000\n        /* \"#utility.yul\":10383:10384   */\n      dup5\n        /* \"#utility.yul\":10380:10453   */\n      eq\n        /* \"#utility.yul\":10376:10377   */\n      0x00\n        /* \"#utility.yul\":10373:10374   */\n      dup5\n        /* \"#utility.yul\":10369:10378   */\n      slt\n        /* \"#utility.yul\":10365:10454   */\n      and\n        /* \"#utility.yul\":10362:10477   */\n      iszero\n      tag_237\n      jumpi\n        /* \"#utility.yul\":10457:10475   */\n      tag_238\n      tag_115\n      jump\t// in\n    tag_238:\n        /* \"#utility.yul\":10362:10477   */\n    tag_237:\n        /* \"#utility.yul\":10627:10628   */\n      dup3\n        /* \"#utility.yul\":10618:10625   */\n      dup3\n        /* \"#utility.yul\":10613:10629   */\n      sdiv\n        /* \"#utility.yul\":10610:10611   */\n      dup5\n        /* \"#utility.yul\":10607:10630   */\n      eq\n        /* \"#utility.yul\":10587:10588   */\n      dup4\n        /* \"#utility.yul\":10580:10589   */\n      iszero\n        /* \"#utility.yul\":10560:10644   */\n      or\n        /* \"#utility.yul\":10537:10677   */\n      tag_239\n      jumpi\n        /* \"#utility.yul\":10657:10675   */\n      tag_240\n      tag_115\n      jump\t// in\n    tag_240:\n        /* \"#utility.yul\":10537:10677   */\n    tag_239:\n        /* \"#utility.yul\":10175:10684   */\n      pop\n        /* \"#utility.yul\":10128:10684   */\n      swap3\n      swap2\n      pop\n      pop\n      jump\t// out\n\n    auxdata: 0xa2646970667358221220d4b8082209e2bb9f96dedd4c741ce41bc74bac251a7bb917adec9c5dcfbcfba364736f6c634300081f0033\n}\n",
				"bytecode": {
					"linkReferences": {},
					"object": "6080604052674563918244f400005f553480156019575f5ffd5b503360035f6101000a81548173ffffffffffffffffffffffffffffffffffffffff021916908373ffffffffffffffffffffffffffffffffffffffff160217905550610c4b806100675f395ff3fe608060405260043610610058575f3560e01c8063098de820146100715780633ccfd60b1461009b5780633e47d6f3146100b1578063b60d4288146100ed578063dc0d3dff146100f7578063df32754b1461013357610067565b366100675761006561015d565b005b61006f61015d565b005b34801561007c575f5ffd5b5061008561025e565b60405161009291906106a2565b60405180910390f35b3480156100a6575f5ffd5b506100af610263565b005b3480156100bc575f5ffd5b506100d760048036038101906100d29190610719565b610496565b6040516100e491906106a2565b60405180910390f35b6100f561015d565b005b348015610102575f5ffd5b5061011d6004803603810190610118919061076e565b6104ab565b60405161012a91906107a8565b60405180910390f35b34801561013e575f5ffd5b506101476104e6565b60405161015491906107a8565b60405180910390f35b5f546101683461050b565b10156101a9576040517f08c379a00000000000000000000000000000000000000000000000000000000081526004016101a09061081b565b60405180910390fd5b600133908060018154018082558091505060019003905f5260205f20015f9091909190916101000a81548173ffffffffffffffffffffffffffffffffffffffff021916908373ffffffffffffffffffffffffffffffffffffffff1602179055503460025f3373ffffffffffffffffffffffffffffffffffffffff1673ffffffffffffffffffffffffffffffffffffffff1681526020019081526020015f205f8282546102559190610866565b92505081905550565b5f5481565b60035f9054906101000a900473ffffffffffffffffffffffffffffffffffffffff1673ffffffffffffffffffffffffffffffffffffffff163373ffffffffffffffffffffffffffffffffffffffff16146102f2576040517f08c379a00000000000000000000000000000000000000000000000000000000081526004016102e9906108e3565b60405180910390fd5b5f5f90505b60018054905081101561038b575f6001828154811061031957610318610901565b5b905f5260205f20015f9054906101000a900473ffffffffffffffffffffffffffffffffffffffff1690505f60025f8373ffffffffffffffffffffffffffffffffffffffff1673ffffffffffffffffffffffffffffffffffffffff1681526020019081526020015f2081905550506102f7565b505f67ffffffffffffffff8111156103a6576103a561092e565b5b6040519080825280602002602001820160405280156103d45781602001602082028036833780820191505090505b50600190805190602001906103ea9291906105e8565b505f3373ffffffffffffffffffffffffffffffffffffffff164760405161041090610988565b5f6040518083038185875af1925050503d805f811461044a576040519150601f19603f3d011682016040523d82523d5f602084013e61044f565b606091505b5050905080610493576040517f08c379a000000000000000000000000000000000000000000000000000000000815260040161048a906109e6565b60405180910390fd5b50565b6002602052805f5260405f205f915090505481565b600181815481106104ba575f80fd5b905f5260205f20015f915054906101000a900473ffffffffffffffffffffffffffffffffffffffff1681565b60035f9054906101000a900473ffffffffffffffffffffffffffffffffffffffff1681565b5f5f610515610543565b90505f670de0b6b3a7640000848361052d9190610a04565b6105379190610a72565b90508092505050919050565b5f5f73694aa1769357215de4fac081bf1f309adc32530690505f8173ffffffffffffffffffffffffffffffffffffffff1663feaf968c6040518163ffffffff1660e01b815260040160a060405180830381865afa1580156105a6573d5f5f3e3d5ffd5b505050506040513d601f19601f820116820180604052508101906105ca9190610b28565b5050509150506402540be400816105e19190610b9f565b9250505090565b828054828255905f5260205f2090810192821561065e579160200282015b8281111561065d578251825f6101000a81548173ffffffffffffffffffffffffffffffffffffffff021916908373ffffffffffffffffffffffffffffffffffffffff16021790555091602001919060010190610606565b5b50905061066b919061066f565b5090565b5b80821115610686575f815f905550600101610670565b5090565b5f819050919050565b61069c8161068a565b82525050565b5f6020820190506106b55f830184610693565b92915050565b5f5ffd5b5f73ffffffffffffffffffffffffffffffffffffffff82169050919050565b5f6106e8826106bf565b9050919050565b6106f8816106de565b8114610702575f5ffd5b50565b5f81359050610713816106ef565b92915050565b5f6020828403121561072e5761072d6106bb565b5b5f61073b84828501610705565b91505092915050565b61074d8161068a565b8114610757575f5ffd5b50565b5f8135905061076881610744565b92915050565b5f60208284031215610783576107826106bb565b5b5f6107908482850161075a565b91505092915050565b6107a2816106de565b82525050565b5f6020820190506107bb5f830184610799565b92915050565b5f82825260208201905092915050565b7f446964206e6f742073656e6420656e6f756768204554480000000000000000005f82015250565b5f6108056017836107c1565b9150610810826107d1565b602082019050919050565b5f6020820190508181035f830152610832816107f9565b9050919050565b7f4e487b71000000000000000000000000000000000000000000000000000000005f52601160045260245ffd5b5f6108708261068a565b915061087b8361068a565b925082820190508082111561089357610892610839565b5b92915050565b7f4d757374206265204f776e6572210000000000000000000000000000000000005f82015250565b5f6108cd600e836107c1565b91506108d882610899565b602082019050919050565b5f6020820190508181035f8301526108fa816108c1565b9050919050565b7f4e487b71000000000000000000000000000000000000000000000000000000005f52603260045260245ffd5b7f4e487b71000000000000000000000000000000000000000000000000000000005f52604160045260245ffd5b5f81905092915050565b50565b5f6109735f8361095b565b915061097e82610965565b5f82019050919050565b5f61099282610968565b9150819050919050565b7f53656e64206661696c65640000000000000000000000000000000000000000005f82015250565b5f6109d0600b836107c1565b91506109db8261099c565b602082019050919050565b5f6020820190508181035f8301526109fd816109c4565b9050919050565b5f610a0e8261068a565b9150610a198361068a565b9250828202610a278161068a565b91508282048414831517610a3e57610a3d610839565b5b5092915050565b7f4e487b71000000000000000000000000000000000000000000000000000000005f52601260045260245ffd5b5f610a7c8261068a565b9150610a878361068a565b925082610a9757610a96610a45565b5b828204905092915050565b5f69ffffffffffffffffffff82169050919050565b610ac081610aa2565b8114610aca575f5ffd5b50565b5f81519050610adb81610ab7565b92915050565b5f819050919050565b610af381610ae1565b8114610afd575f5ffd5b50565b5f81519050610b0e81610aea565b92915050565b5f81519050610b2281610744565b92915050565b5f5f5f5f5f60a08688031215610b4157610b406106bb565b5b5f610b4e88828901610acd565b9550506020610b5f88828901610b00565b9450506040610b7088828901610b14565b9350506060610b8188828901610b14565b9250506080610b9288828901610acd565b9150509295509295909350565b5f610ba982610ae1565b9150610bb483610ae1565b9250828202610bc281610ae1565b91507f800000000000000000000000000000000000000000000000000000000000000084145f84121615610bf957610bf8610839565b5b8282058414831517610c0e57610c0d610839565b5b509291505056fea2646970667358221220d4b8082209e2bb9f96dedd4c741ce41bc74bac251a7bb917adec9c5dcfbcfba364736f6c634300081f0033",
					"opcodes": "PUSH1 0x80 PUSH1 0x40 MSTORE PUSH8 0x4563918244F40000 PUSH0 SSTORE CALLVALUE DUP1 ISZERO PUSH1 0x19 JUMPI PUSH0 PUSH0 REVERT JUMPDEST POP CALLER PUSH1 0x3 PUSH0 PUSH2 0x100 EXP DUP2 SLOAD DUP2 PUSH20 0xFFFFFFFFFFFFFFFFFFFFFFFFFFFFFFFFFFFFFFFF MUL NOT AND SWAP1 DUP4 PUSH20 0xFFFFFFFFFFFFFFFFFFFFFFFFFFFFFFFFFFFFFFFF AND MUL OR SWAP1 SSTORE POP PUSH2 0xC4B DUP1 PUSH2 0x67 PUSH0 CODECOPY PUSH0 RETURN INVALID PUSH1 0x80 PUSH1 0x40 MSTORE PUSH1 0x4 CALLDATASIZE LT PUSH2 0x58 JUMPI PUSH0 CALLDATALOAD PUSH1 0xE0 SHR DUP1 PUSH4 0x98DE820 EQ PUSH2 0x71 JUMPI DUP1 PUSH4 0x3CCFD60B EQ PUSH2 0x9B JUMPI DUP1 PUSH4 0x3E47D6F3 EQ PUSH2 0xB1 JUMPI DUP1 PUSH4 0xB60D4288 EQ PUSH2 0xED JUMPI DUP1 PUSH4 0xDC0D3DFF EQ PUSH2 0xF7 JUMPI DUP1 PUSH4 0xDF32754B EQ PUSH2 0x133 JUMPI PUSH2 0x67 JUMP JUMPDEST CALLDATASIZE PUSH2 0x67 JUMPI PUSH2 0x65 PUSH2 0x15D JUMP JUMPDEST STOP JUMPDEST PUSH2 0x6F PUSH2 0x15D JUMP JUMPDEST STOP JUMPDEST CALLVALUE DUP1 ISZERO PUSH2 0x7C JUMPI PUSH0 PUSH0 REVERT JUMPDEST POP PUSH2 0x85 PUSH2 0x25E JUMP JUMPDEST PUSH1 0x40 MLOAD PUSH2 0x92 SWAP2 SWAP1 PUSH2 0x6A2 JUMP JUMPDEST PUSH1 0x40 MLOAD DUP1 SWAP2 SUB SWAP1 RETURN JUMPDEST CALLVALUE DUP1 ISZERO PUSH2 0xA6 JUMPI PUSH0 PUSH0 REVERT JUMPDEST POP PUSH2 0xAF PUSH2 0x263 JUMP JUMPDEST STOP JUMPDEST CALLVALUE DUP1 ISZERO PUSH2 0xBC JUMPI PUSH0 PUSH0 REVERT JUMPDEST POP PUSH2 0xD7 PUSH1 0x4 DUP1 CALLDATASIZE SUB DUP2 ADD SWAP1 PUSH2 0xD2 SWAP2 SWAP1 PUSH2 0x719 JUMP JUMPDEST PUSH2 0x496 JUMP JUMPDEST PUSH1 0x40 MLOAD PUSH2 0xE4 SWAP2 SWAP1 PUSH2 0x6A2 JUMP JUMPDEST PUSH1 0x40 MLOAD DUP1 SWAP2 SUB SWAP1 RETURN JUMPDEST PUSH2 0xF5 PUSH2 0x15D JUMP JUMPDEST STOP JUMPDEST CALLVALUE DUP1 ISZERO PUSH2 0x102 JUMPI PUSH0 PUSH0 REVERT JUMPDEST POP PUSH2 0x11D PUSH1 0x4 DUP1 CALLDATASIZE SUB DUP2 ADD SWAP1 PUSH2 0x118 SWAP2 SWAP1 PUSH2 0x76E JUMP JUMPDEST PUSH2 0x4AB JUMP JUMPDEST PUSH1 0x40 MLOAD PUSH2 0x12A SWAP2 SWAP1 PUSH2 0x7A8 JUMP JUMPDEST PUSH1 0x40 MLOAD DUP1 SWAP2 SUB SWAP1 RETURN JUMPDEST CALLVALUE DUP1 ISZERO PUSH2 0x13E JUMPI PUSH0 PUSH0 REVERT JUMPDEST POP PUSH2 0x147 PUSH2 0x4E6 JUMP JUMPDEST PUSH1 0x40 MLOAD PUSH2 0x154 SWAP2 SWAP1 PUSH2 0x7A8 JUMP JUMPDEST PUSH1 0x40 MLOAD DUP1 SWAP2 SUB SWAP1 RETURN JUMPDEST PUSH0 SLOAD PUSH2 0x168 CALLVALUE PUSH2 0x50B JUMP JUMPDEST LT ISZERO PUSH2 0x1A9 JUMPI PUSH1 0x40 MLOAD PUSH32 0x8C379A000000000000000000000000000000000000000000000000000000000 DUP2 MSTORE PUSH1 0x4 ADD PUSH2 0x1A0 SWAP1 PUSH2 0x81B JUMP JUMPDEST PUSH1 0x40 MLOAD DUP1 SWAP2 SUB SWAP1 REVERT JUMPDEST PUSH1 0x1 CALLER SWAP1 DUP1 PUSH1 0x1 DUP2 SLOAD ADD DUP1 DUP3 SSTORE DUP1 SWAP2 POP POP PUSH1 0x1 SWAP1 SUB SWAP1 PUSH0 MSTORE PUSH1 0x20 PUSH0 KECCAK256 ADD PUSH0 SWAP1 SWAP2 SWAP1 SWAP2 SWAP1 SWAP2 PUSH2 0x100 EXP DUP2 SLOAD DUP2 PUSH20 0xFFFFFFFFFFFFFFFFFFFFFFFFFFFFFFFFFFFFFFFF MUL NOT AND SWAP1 DUP4 PUSH20 0xFFFFFFFFFFFFFFFFFFFFFFFFFFFFFFFFFFFFFFFF AND MUL OR SWAP1 SSTORE POP CALLVALUE PUSH1 0x2 PUSH0 CALLER PUSH20 0xFFFFFFFFFFFFFFFFFFFFFFFFFFFFFFFFFFFFFFFF AND PUSH20 0xFFFFFFFFFFFFFFFFFFFFFFFFFFFFFFFFFFFFFFFF AND DUP2 MSTORE PUSH1 0x20 ADD SWAP1 DUP2 MSTORE PUSH1 0x20 ADD PUSH0 KECCAK256 PUSH0 DUP3 DUP3 SLOAD PUSH2 0x255 SWAP2 SWAP1 PUSH2 0x866 JUMP JUMPDEST SWAP3 POP POP DUP2 SWAP1 SSTORE POP JUMP JUMPDEST PUSH0 SLOAD DUP2 JUMP JUMPDEST PUSH1 0x3 PUSH0 SWAP1 SLOAD SWAP1 PUSH2 0x100 EXP SWAP1 DIV PUSH20 0xFFFFFFFFFFFFFFFFFFFFFFFFFFFFFFFFFFFFFFFF AND PUSH20 0xFFFFFFFFFFFFFFFFFFFFFFFFFFFFFFFFFFFFFFFF AND CALLER PUSH20 0xFFFFFFFFFFFFFFFFFFFFFFFFFFFFFFFFFFFFFFFF AND EQ PUSH2 0x2F2 JUMPI PUSH1 0x40 MLOAD PUSH32 0x8C379A000000000000000000000000000000000000000000000000000000000 DUP2 MSTORE PUSH1 0x4 ADD PUSH2 0x2E9 SWAP1 PUSH2 0x8E3 JUMP JUMPDEST PUSH1 0x40 MLOAD DUP1 SWAP2 SUB SWAP1 REVERT JUMPDEST PUSH0 PUSH0 SWAP1 POP JUMPDEST PUSH1 0x1 DUP1 SLOAD SWAP1 POP DUP2 LT ISZERO PUSH2 0x38B JUMPI PUSH0 PUSH1 0x1 DUP3 DUP2 SLOAD DUP2 LT PUSH2 0x319 JUMPI PUSH2 0x318 PUSH2 0x901 JUMP JUMPDEST JUMPDEST SWAP1 PUSH0 MSTORE PUSH1 0x20 PUSH0 KECCAK256 ADD PUSH0 SWAP1 SLOAD SWAP1 PUSH2 0x100 EXP SWAP1 DIV PUSH20 0xFFFFFFFFFFFFFFFFFFFFFFFFFFFFFFFFFFFFFFFF AND SWAP1 POP PUSH0 PUSH1 0x2 PUSH0 DUP4 PUSH20 0xFFFFFFFFFFFFFFFFFFFFFFFFFFFFFFFFFFFFFFFF AND PUSH20 0xFFFFFFFFFFFFFFFFFFFFFFFFFFFFFFFFFFFFFFFF AND DUP2 MSTORE PUSH1 0x20 ADD SWAP1 DUP2 MSTORE PUSH1 0x20 ADD PUSH0 KECCAK256 DUP2 SWAP1 SSTORE POP POP PUSH2 0x2F7 JUMP JUMPDEST POP PUSH0 PUSH8 0xFFFFFFFFFFFFFFFF DUP2 GT ISZERO PUSH2 0x3A6 JUMPI PUSH2 0x3A5 PUSH2 0x92E JUMP JUMPDEST JUMPDEST PUSH1 0x40 MLOAD SWAP1 DUP1 DUP3 MSTORE DUP1 PUSH1 0x20 MUL PUSH1 0x20 ADD DUP3 ADD PUSH1 0x40 MSTORE DUP1 ISZERO PUSH2 0x3D4 JUMPI DUP2 PUSH1 0x20 ADD PUSH1 0x20 DUP3 MUL DUP1 CALLDATASIZE DUP4 CALLDATACOPY DUP1 DUP3 ADD SWAP2 POP POP SWAP1 POP JUMPDEST POP PUSH1 0x1 SWAP1 DUP1 MLOAD SWAP1 PUSH1 0x20 ADD SWAP1 PUSH2 0x3EA SWAP3 SWAP2 SWAP1 PUSH2 0x5E8 JUMP JUMPDEST POP PUSH0 CALLER PUSH20 0xFFFFFFFFFFFFFFFFFFFFFFFFFFFFFFFFFFFFFFFF AND SELFBALANCE PUSH1 0x40 MLOAD PUSH2 0x410 SWAP1 PUSH2 0x988 JUMP JUMPDEST PUSH0 PUSH1 0x40 MLOAD DUP1 DUP4 SUB DUP2 DUP6 DUP8 GAS CALL SWAP3 POP POP POP RETURNDATASIZE DUP1 PUSH0 DUP2 EQ PUSH2 0x44A JUMPI PUSH1 0x40 MLOAD SWAP2 POP PUSH1 0x1F NOT PUSH1 0x3F RETURNDATASIZE ADD AND DUP3 ADD PUSH1 0x40 MSTORE RETURNDATASIZE DUP3 MSTORE RETURNDATASIZE PUSH0 PUSH1 0x20 DUP5 ADD RETURNDATACOPY PUSH2 0x44F JUMP JUMPDEST PUSH1 0x60 SWAP2 POP JUMPDEST POP POP SWAP1 POP DUP1 PUSH2 0x493 JUMPI PUSH1 0x40 MLOAD PUSH32 0x8C379A000000000000000000000000000000000000000000000000000000000 DUP2 MSTORE PUSH1 0x4 ADD PUSH2 0x48A SWAP1 PUSH2 0x9E6 JUMP JUMPDEST PUSH1 0x40 MLOAD DUP1 SWAP2 SUB SWAP1 REVERT JUMPDEST POP JUMP JUMPDEST PUSH1 0x2 PUSH1 0x20 MSTORE DUP1 PUSH0 MSTORE PUSH1 0x40 PUSH0 KECCAK256 PUSH0 SWAP2 POP SWAP1 POP SLOAD DUP2 JUMP JUMPDEST PUSH1 0x1 DUP2 DUP2 SLOAD DUP2 LT PUSH2 0x4BA JUMPI PUSH0 DUP1 REVERT JUMPDEST SWAP1 PUSH0 MSTORE PUSH1 0x20 PUSH0 KECCAK256 ADD PUSH0 SWAP2 POP SLOAD SWAP1 PUSH2 0x100 EXP SWAP1 DIV PUSH20 0xFFFFFFFFFFFFFFFFFFFFFFFFFFFFFFFFFFFFFFFF AND DUP2 JUMP JUMPDEST PUSH1 0x3 PUSH0 SWAP1 SLOAD SWAP1 PUSH2 0x100 EXP SWAP1 DIV PUSH20 0xFFFFFFFFFFFFFFFFFFFFFFFFFFFFFFFFFFFFFFFF AND DUP2 JUMP JUMPDEST PUSH0 PUSH0 PUSH2 0x515 PUSH2 0x543 JUMP JUMPDEST SWAP1 POP PUSH0 PUSH8 0xDE0B6B3A7640000 DUP5 DUP4 PUSH2 0x52D SWAP2 SWAP1 PUSH2 0xA04 JUMP JUMPDEST PUSH2 0x537 SWAP2 SWAP1 PUSH2 0xA72 JUMP JUMPDEST SWAP1 POP DUP1 SWAP3 POP POP POP SWAP2 SWAP1 POP JUMP JUMPDEST PUSH0 PUSH0 PUSH20 0x694AA1769357215DE4FAC081BF1F309ADC325306 SWAP1 POP PUSH0 DUP2 PUSH20 0xFFFFFFFFFFFFFFFFFFFFFFFFFFFFFFFFFFFFFFFF AND PUSH4 0xFEAF968C PUSH1 0x40 MLOAD DUP2 PUSH4 0xFFFFFFFF AND PUSH1 0xE0 SHL DUP2 MSTORE PUSH1 0x4 ADD PUSH1 0xA0 PUSH1 0x40 MLOAD DUP1 DUP4 SUB DUP2 DUP7 GAS STATICCALL ISZERO DUP1 ISZERO PUSH2 0x5A6 JUMPI RETURNDATASIZE PUSH0 PUSH0 RETURNDATACOPY RETURNDATASIZE PUSH0 REVERT JUMPDEST POP POP POP POP PUSH1 0x40 MLOAD RETURNDATASIZE PUSH1 0x1F NOT PUSH1 0x1F DUP3 ADD AND DUP3 ADD DUP1 PUSH1 0x40 MSTORE POP DUP2 ADD SWAP1 PUSH2 0x5CA SWAP2 SWAP1 PUSH2 0xB28 JUMP JUMPDEST POP POP POP SWAP2 POP POP PUSH5 0x2540BE400 DUP2 PUSH2 0x5E1 SWAP2 SWAP1 PUSH2 0xB9F JUMP JUMPDEST SWAP3 POP POP POP SWAP1 JUMP JUMPDEST DUP3 DUP1 SLOAD DUP3 DUP3 SSTORE SWAP1 PUSH0 MSTORE PUSH1 0x20 PUSH0 KECCAK256 SWAP1 DUP2 ADD SWAP3 DUP3 ISZERO PUSH2 0x65E JUMPI SWAP2 PUSH1 0x20 MUL DUP3 ADD JUMPDEST DUP3 DUP2 GT ISZERO PUSH2 0x65D JUMPI DUP3 MLOAD DUP3 PUSH0 PUSH2 0x100 EXP DUP2 SLOAD DUP2 PUSH20 0xFFFFFFFFFFFFFFFFFFFFFFFFFFFFFFFFFFFFFFFF MUL NOT AND SWAP1 DUP4 PUSH20 0xFFFFFFFFFFFFFFFFFFFFFFFFFFFFFFFFFFFFFFFF AND MUL OR SWAP1 SSTORE POP SWAP2 PUSH1 0x20 ADD SWAP2 SWAP1 PUSH1 0x1 ADD SWAP1 PUSH2 0x606 JUMP JUMPDEST JUMPDEST POP SWAP1 POP PUSH2 0x66B SWAP2 SWAP1 PUSH2 0x66F JUMP JUMPDEST POP SWAP1 JUMP JUMPDEST JUMPDEST DUP1 DUP3 GT ISZERO PUSH2 0x686 JUMPI PUSH0 DUP2 PUSH0 SWAP1 SSTORE POP PUSH1 0x1 ADD PUSH2 0x670 JUMP JUMPDEST POP SWAP1 JUMP JUMPDEST PUSH0 DUP2 SWAP1 POP SWAP2 SWAP1 POP JUMP JUMPDEST PUSH2 0x69C DUP2 PUSH2 0x68A JUMP JUMPDEST DUP3 MSTORE POP POP JUMP JUMPDEST PUSH0 PUSH1 0x20 DUP3 ADD SWAP1 POP PUSH2 0x6B5 PUSH0 DUP4 ADD DUP5 PUSH2 0x693 JUMP JUMPDEST SWAP3 SWAP2 POP POP JUMP JUMPDEST PUSH0 PUSH0 REVERT JUMPDEST PUSH0 PUSH20 0xFFFFFFFFFFFFFFFFFFFFFFFFFFFFFFFFFFFFFFFF DUP3 AND SWAP1 POP SWAP2 SWAP1 POP JUMP JUMPDEST PUSH0 PUSH2 0x6E8 DUP3 PUSH2 0x6BF JUMP JUMPDEST SWAP1 POP SWAP2 SWAP1 POP JUMP JUMPDEST PUSH2 0x6F8 DUP2 PUSH2 0x6DE JUMP JUMPDEST DUP2 EQ PUSH2 0x702 JUMPI PUSH0 PUSH0 REVERT JUMPDEST POP JUMP JUMPDEST PUSH0 DUP2 CALLDATALOAD SWAP1 POP PUSH2 0x713 DUP2 PUSH2 0x6EF JUMP JUMPDEST SWAP3 SWAP2 POP POP JUMP JUMPDEST PUSH0 PUSH1 0x20 DUP3 DUP5 SUB SLT ISZERO PUSH2 0x72E JUMPI PUSH2 0x72D PUSH2 0x6BB JUMP JUMPDEST JUMPDEST PUSH0 PUSH2 0x73B DUP5 DUP3 DUP6 ADD PUSH2 0x705 JUMP JUMPDEST SWAP2 POP POP SWAP3 SWAP2 POP POP JUMP JUMPDEST PUSH2 0x74D DUP2 PUSH2 0x68A JUMP JUMPDEST DUP2 EQ PUSH2 0x757 JUMPI PUSH0 PUSH0 REVERT JUMPDEST POP JUMP JUMPDEST PUSH0 DUP2 CALLDATALOAD SWAP1 POP PUSH2 0x768 DUP2 PUSH2 0x744 JUMP JUMPDEST SWAP3 SWAP2 POP POP JUMP JUMPDEST PUSH0 PUSH1 0x20 DUP3 DUP5 SUB SLT ISZERO PUSH2 0x783 JUMPI PUSH2 0x782 PUSH2 0x6BB JUMP JUMPDEST JUMPDEST PUSH0 PUSH2 0x790 DUP5 DUP3 DUP6 ADD PUSH2 0x75A JUMP JUMPDEST SWAP2 POP POP SWAP3 SWAP2 POP POP JUMP JUMPDEST PUSH2 0x7A2 DUP2 PUSH2 0x6DE JUMP JUMPDEST DUP3 MSTORE POP POP JUMP JUMPDEST PUSH0 PUSH1 0x20 DUP3 ADD SWAP1 POP PUSH2 0x7BB PUSH0 DUP4 ADD DUP5 PUSH2 0x799 JUMP JUMPDEST SWAP3 SWAP2 POP POP JUMP JUMPDEST PUSH0 DUP3 DUP3 MSTORE PUSH1 0x20 DUP3 ADD SWAP1 POP SWAP3 SWAP2 POP POP JUMP JUMPDEST PUSH32 0x446964206E6F742073656E6420656E6F75676820455448000000000000000000 PUSH0 DUP3 ADD MSTORE POP JUMP JUMPDEST PUSH0 PUSH2 0x805 PUSH1 0x17 DUP4 PUSH2 0x7C1 JUMP JUMPDEST SWAP2 POP PUSH2 0x810 DUP3 PUSH2 0x7D1 JUMP JUMPDEST PUSH1 0x20 DUP3 ADD SWAP1 POP SWAP2 SWAP1 POP JUMP JUMPDEST PUSH0 PUSH1 0x20 DUP3 ADD SWAP1 POP DUP2 DUP2 SUB PUSH0 DUP4 ADD MSTORE PUSH2 0x832 DUP2 PUSH2 0x7F9 JUMP JUMPDEST SWAP1 POP SWAP2 SWAP1 POP JUMP JUMPDEST PUSH32 0x4E487B7100000000000000000000000000000000000000000000000000000000 PUSH0 MSTORE PUSH1 0x11 PUSH1 0x4 MSTORE PUSH1 0x24 PUSH0 REVERT JUMPDEST PUSH0 PUSH2 0x870 DUP3 PUSH2 0x68A JUMP JUMPDEST SWAP2 POP PUSH2 0x87B DUP4 PUSH2 0x68A JUMP JUMPDEST SWAP3 POP DUP3 DUP3 ADD SWAP1 POP DUP1 DUP3 GT ISZERO PUSH2 0x893 JUMPI PUSH2 0x892 PUSH2 0x839 JUMP JUMPDEST JUMPDEST SWAP3 SWAP2 POP POP JUMP JUMPDEST PUSH32 0x4D757374206265204F776E657221000000000000000000000000000000000000 PUSH0 DUP3 ADD MSTORE POP JUMP JUMPDEST PUSH0 PUSH2 0x8CD PUSH1 0xE DUP4 PUSH2 0x7C1 JUMP JUMPDEST SWAP2 POP PUSH2 0x8D8 DUP3 PUSH2 0x899 JUMP JUMPDEST PUSH1 0x20 DUP3 ADD SWAP1 POP SWAP2 SWAP1 POP JUMP JUMPDEST PUSH0 PUSH1 0x20 DUP3 ADD SWAP1 POP DUP2 DUP2 SUB PUSH0 DUP4 ADD MSTORE PUSH2 0x8FA DUP2 PUSH2 0x8C1 JUMP JUMPDEST SWAP1 POP SWAP2 SWAP1 POP JUMP JUMPDEST PUSH32 0x4E487B7100000000000000000000000000000000000000000000000000000000 PUSH0 MSTORE PUSH1 0x32 PUSH1 0x4 MSTORE PUSH1 0x24 PUSH0 REVERT JUMPDEST PUSH32 0x4E487B7100000000000000000000000000000000000000000000000000000000 PUSH0 MSTORE PUSH1 0x41 PUSH1 0x4 MSTORE PUSH1 0x24 PUSH0 REVERT JUMPDEST PUSH0 DUP2 SWAP1 POP SWAP3 SWAP2 POP POP JUMP JUMPDEST POP JUMP JUMPDEST PUSH0 PUSH2 0x973 PUSH0 DUP4 PUSH2 0x95B JUMP JUMPDEST SWAP2 POP PUSH2 0x97E DUP3 PUSH2 0x965 JUMP JUMPDEST PUSH0 DUP3 ADD SWAP1 POP SWAP2 SWAP1 POP JUMP JUMPDEST PUSH0 PUSH2 0x992 DUP3 PUSH2 0x968 JUMP JUMPDEST SWAP2 POP DUP2 SWAP1 POP SWAP2 SWAP1 POP JUMP JUMPDEST PUSH32 0x53656E64206661696C6564000000000000000000000000000000000000000000 PUSH0 DUP3 ADD MSTORE POP JUMP JUMPDEST PUSH0 PUSH2 0x9D0 PUSH1 0xB DUP4 PUSH2 0x7C1 JUMP JUMPDEST SWAP2 POP PUSH2 0x9DB DUP3 PUSH2 0x99C JUMP JUMPDEST PUSH1 0x20 DUP3 ADD SWAP1 POP SWAP2 SWAP1 POP JUMP JUMPDEST PUSH0 PUSH1 0x20 DUP3 ADD SWAP1 POP DUP2 DUP2 SUB PUSH0 DUP4 ADD MSTORE PUSH2 0x9FD DUP2 PUSH2 0x9C4 JUMP JUMPDEST SWAP1 POP SWAP2 SWAP1 POP JUMP JUMPDEST PUSH0 PUSH2 0xA0E DUP3 PUSH2 0x68A JUMP JUMPDEST SWAP2 POP PUSH2 0xA19 DUP4 PUSH2 0x68A JUMP JUMPDEST SWAP3 POP DUP3 DUP3 MUL PUSH2 0xA27 DUP2 PUSH2 0x68A JUMP JUMPDEST SWAP2 POP DUP3 DUP3 DIV DUP5 EQ DUP4 ISZERO OR PUSH2 0xA3E JUMPI PUSH2 0xA3D PUSH2 0x839 JUMP JUMPDEST JUMPDEST POP SWAP3 SWAP2 POP POP JUMP JUMPDEST PUSH32 0x4E487B7100000000000000000000000000000000000000000000000000000000 PUSH0 MSTORE PUSH1 0x12 PUSH1 0x4 MSTORE PUSH1 0x24 PUSH0 REVERT JUMPDEST PUSH0 PUSH2 0xA7C DUP3 PUSH2 0x68A JUMP JUMPDEST SWAP2 POP PUSH2 0xA87 DUP4 PUSH2 0x68A JUMP JUMPDEST SWAP3 POP DUP3 PUSH2 0xA97 JUMPI PUSH2 0xA96 PUSH2 0xA45 JUMP JUMPDEST JUMPDEST DUP3 DUP3 DIV SWAP1 POP SWAP3 SWAP2 POP POP JUMP JUMPDEST PUSH0 PUSH10 0xFFFFFFFFFFFFFFFFFFFF DUP3 AND SWAP1 POP SWAP2 SWAP1 POP JUMP JUMPDEST PUSH2 0xAC0 DUP2 PUSH2 0xAA2 JUMP JUMPDEST DUP2 EQ PUSH2 0xACA JUMPI PUSH0 PUSH0 REVERT JUMPDEST POP JUMP JUMPDEST PUSH0 DUP2 MLOAD SWAP1 POP PUSH2 0xADB DUP2 PUSH2 0xAB7 JUMP JUMPDEST SWAP3 SWAP2 POP POP JUMP JUMPDEST PUSH0 DUP2 SWAP1 POP SWAP2 SWAP1 POP JUMP JUMPDEST PUSH2 0xAF3 DUP2 PUSH2 0xAE1 JUMP JUMPDEST DUP2 EQ PUSH2 0xAFD JUMPI PUSH0 PUSH0 REVERT JUMPDEST POP JUMP JUMPDEST PUSH0 DUP2 MLOAD SWAP1 POP PUSH2 0xB0E DUP2 PUSH2 0xAEA JUMP JUMPDEST SWAP3 SWAP2 POP POP JUMP JUMPDEST PUSH0 DUP2 MLOAD SWAP1 POP PUSH2 0xB22 DUP2 PUSH2 0x744 JUMP JUMPDEST SWAP3 SWAP2 POP POP JUMP JUMPDEST PUSH0 PUSH0 PUSH0 PUSH0 PUSH0 PUSH1 0xA0 DUP7 DUP9 SUB SLT ISZERO PUSH2 0xB41 JUMPI PUSH2 0xB40 PUSH2 0x6BB JUMP JUMPDEST JUMPDEST PUSH0 PUSH2 0xB4E DUP9 DUP3 DUP10 ADD PUSH2 0xACD JUMP JUMPDEST SWAP6 POP POP PUSH1 0x20 PUSH2 0xB5F DUP9 DUP3 DUP10 ADD PUSH2 0xB00 JUMP JUMPDEST SWAP5 POP POP PUSH1 0x40 PUSH2 0xB70 DUP9 DUP3 DUP10 ADD PUSH2 0xB14 JUMP JUMPDEST SWAP4 POP POP PUSH1 0x60 PUSH2 0xB81 DUP9 DUP3 DUP10 ADD PUSH2 0xB14 JUMP JUMPDEST SWAP3 POP POP PUSH1 0x80 PUSH2 0xB92 DUP9 DUP3 DUP10 ADD PUSH2 0xACD JUMP JUMPDEST SWAP2 POP POP SWAP3 SWAP6 POP SWAP3 SWAP6 SWAP1 SWAP4 POP JUMP JUMPDEST PUSH0 PUSH2 0xBA9 DUP3 PUSH2 0xAE1 JUMP JUMPDEST SWAP2 POP PUSH2 0xBB4 DUP4 PUSH2 0xAE1 JUMP JUMPDEST SWAP3 POP DUP3 DUP3 MUL PUSH2 0xBC2 DUP2 PUSH2 0xAE1 JUMP JUMPDEST SWAP2 POP PUSH32 0x8000000000000000000000000000000000000000000000000000000000000000 DUP5 EQ PUSH0 DUP5 SLT AND ISZERO PUSH2 0xBF9 JUMPI PUSH2 0xBF8 PUSH2 0x839 JUMP JUMPDEST JUMPDEST DUP3 DUP3 SDIV DUP5 EQ DUP4 ISZERO OR PUSH2 0xC0E JUMPI PUSH2 0xC0D PUSH2 0x839 JUMP JUMPDEST JUMPDEST POP SWAP3 SWAP2 POP POP JUMP INVALID LOG2 PUSH5 0x6970667358 0x22 SLT KECCAK256 0xD4 0xB8 ADDMOD 0x22 MULMOD 0xE2 0xBB SWAP16 SWAP7 0xDE 0xDD 0x4C PUSH21 0x1CE41BC74BAC251A7BB917ADEC9C5DCFBCFBA36473 PUSH16 0x6C634300081F00330000000000000000 "
				},
				"gasEstimates": {
					"creation": {
						"codeDepositCost": "629400",
						"executionCost": "47032",
						"totalCost": "676432"
					},
					"external": {
						"": "infinite",
						"addressToAmountFunded(address)": "2824",
						"fund()": "infinite",
						"funders(uint256)": "5010",
						"minimumUsd()": "2402",
						"owned()": "2596",
						"withdraw()": "infinite"
					}
				},
				"methodIdentifiers": {
					"addressToAmountFunded(address)": "3e47d6f3",
					"fund()": "b60d4288",
					"funders(uint256)": "dc0d3dff",
					"minimumUsd()": "098de820",
					"owned()": "df32754b",
					"withdraw()": "3ccfd60b"
				}
			},
			"storageLayout": {
				"storage": [
					{
						"astId": 55,
						"contract": "FundMe/FundMe.sol:FundMe",
						"label": "minimumUsd",
						"offset": 0,
						"slot": "0",
						"type": "t_uint256"
					},
					{
						"astId": 58,
						"contract": "FundMe/FundMe.sol:FundMe",
						"label": "funders",
						"offset": 0,
						"slot": "1",
						"type": "t_array(t_address)dyn_storage"
					},
					{
						"astId": 62,
						"contract": "FundMe/FundMe.sol:FundMe",
						"label": "addressToAmountFunded",
						"offset": 0,
						"slot": "2",
						"type": "t_mapping(t_address,t_uint256)"
					},
					{
						"astId": 64,
						"contract": "FundMe/FundMe.sol:FundMe",
						"label": "owned",
						"offset": 0,
						"slot": "3",
						"type": "t_address"
					}
				],
				"types": {
					"t_address": {
						"encoding": "inplace",
						"label": "address",
						"numberOfBytes": "20"
					},
					"t_array(t_address)dyn_storage": {
						"base": "t_address",
						"encoding": "dynamic_array",
						"label": "address[]",
						"numberOfBytes": "32"
					},
					"t_mapping(t_address,t_uint256)": {
						"encoding": "mapping",
						"key": "t_address",
						"label": "mapping(address => uint256)",
						"numberOfBytes": "32",
						"value": "t_uint256"
					},
					"t_uint256": {
						"encoding": "inplace",
						"label": "uint256",
						"numberOfBytes": "32"
					}
				}
			},
			"userdoc": {
				"kind": "user",
				"methods": {},
				"version": 1
			}
		}
	}
}